:020000040800F2
:10000000683E012045010008C7010008BF01000843
:10001000C3010008B9010008A102000800000000A7
:10002000000000000000000000000000CB010008FC
:10003000BD01000800000000C90100085D010008C2
:100040005F0100085F0100085F0100085F01000810
:100050005F0100085F0100085F0100085F01000800
:100060005F0100085F0100085F0100085F010008F0
:100070005F0100085F0100085F0100085F010008E0
:100080005F0100085F0100085F0100085F010008D0
:100090005F0100085F0100085F0100085F010008C0
:1000A0005F0100085F0100085F0100085F010008B0
:1000B0005F0100085F0100085F0100085F010008A0
:1000C0005F0100085F0100085F0100085F01000890
:1000D0005F0100085F0100085F0100085F01000880
:1000E0005F0100085F0100085F0100085F01000870
:1000F0005F0100085F0100085F0100085F01000860
:100100005F0100085F0100085F0100085F0100084F
:100110005F0100085F0100085F0100085F0100083F
:100120005F0100085F0100085F0100085F0100082F
:10013000DFF80CD000F02EF800480047310F00081F
:10014000683E01200648804706480047FEE7FEE774
:10015000FEE7FEE7FEE7FEE7FEE7FEE7FEE7FEE777
:10016000CD0100083101000830B50B4601460020E2
:100170002022012409E021FA02F59D4205D303FA69
:1001800002F5491B04FA02F52844151EA2F10102EA
:10019000F1DC30BD064C074D06E0E06840F001039D
:1001A00094E8070098471034AC42F6D3FFF7C4FF39
:1001B0001C1400083C14000800BFFEE7704700BF95
:1001C000FEE700BFFEE770477047704708B530484C
:1001D000006840F001002E49086000BF2C4800680C
:1001E00000F002000028F9D000BF2948406840F024
:1001F0008000274948600020009002E00098401CE1
:10020000009000985028F9D32148406840F09000B1
:100210001F4948600020009002E00098401C0090B8
:1002200000985028F9D300BF1948406820F0030017
:100230001749486008460068164908401449086094
:10024000084640681449084011494860084600685B
:10025000104908400E4908600846006820F48020D4
:100260000860084640680D4908400949486008464A
:10027000006808490840064908604FF41F0088607C
:1002800000F0FEFF00214FF0006000F0ADFE08BD61
:1002900000100240FFFFF6FE0C00FFE8FFFF00F732
:1002A00000BFFEE70FB4054B10B503A9044A02983E
:1002B00000F018F810BC5DF814FB0000810D000878
:1002C000C88D002002E008C8121F08C1002AFAD118
:1002D00070477047002001E001C1121F002AFBD1C6
:1002E000704700002DE9FF4F89B09B46044600256A
:1002F00006E025280BD05A460B999047641C6D1CCC
:1003000020780028F5D10DB02846BDE8F08F0027F1
:10031000B8460122474900E0074314F8013F203B5B
:1003200002FA03F00842F7D120782E2819D114F8E8
:10033000010F47F004072A280ED06FF02F02207813
:10034000A0F1300109290CD808EB880102EB41012A
:1003500000EB0108641CF2E70A98641C50F8048B57
:100360000A9020780028CED0642808D0692806D0CA
:1003700075281ED05A460B9990476D1C58E00A9973
:100380004FF00A0901C90A91002802DA40422D21E2
:1003900002E0390504D52B218DF82010012103E05E
:1003A000F90704D02021F7E78A4608AE0DE00021C6
:1003B000FAE70A994FF00A0901C90A91F7E7494695
:1003C000FFF7D2FE303106F8011D0028F7D1ADEB62
:1003D000060000F12009780701D44FF00108C84554
:1003E00002DDA8EB090000E000208046002706E0BF
:1003F00008A85A46C05D0B9990476D1C7F1C574555
:10040000F6DB04E030205A460B9990476D1CB8F19A
:100410000001A8F10108F5DC05E016F8010B5A46C9
:100420000B9990476D1CB9F10001A9F10109F4DCA9
:10043000641C65E7092801002DE9FF4F81B00D46D6
:100440000F9C032A04D06FF0020005B0BDE8F08FC6
:1004500000217AE0002373E000266CE012984056F9
:10046000DDF84CB000FA0BF04FF0010EDDF850B0A3
:100470000EFA0BFE00EB5E0000904FF0000C46E021
:100480004FF000083DE0119800FB03CB1098ABEB58
:1004900000004FFA80F9119800FB068B1098ABEB27
:1004A00000004FFA80FAB9F1000F26DBBAF1000F15
:1004B00023DBA94521DAAA451FDA00271BE001FB4F
:1004C00002F0604360430CFB048B0BFB020000EB6B
:1004D000070B049810F90B0009FB05AB0BFB027E20
:1004E000DDF804B01BF90EE0DDF800B00EFB00B043
:1004F0000090781C87B29742E1DB08F101001FFAF7
:1005000080F8A045BFDB0CF101001FFA80FCA44578
:10051000B6DBDDF850B0009840FA0BF000F3070BA3
:10052000169803FB006E0E980EFB001E159800F83F
:100530000EB0701C86B2169886428FDB581C83B2B0
:100540001698834288DB481C81B20E98814281DB79
:1005500000207AE72DE9FF4F81B0DDE90E454FEA33
:10056000E27E02EB9E7E4FEAAE0EA2EB8E0EBEF155
:10057000000F09D1A34604EBDB7E4FEA6E0EA4EB1D
:100580004E0EBEF1000F04D06FF0020005B0BDE8C2
:10059000F08F00217AE0002373E000266CE01298CF
:1005A0004056DDF84CB000FA0BF04FF0010EDDF8CC
:1005B00050B00EFA0BFE00EB5E0000904FF0000C06
:1005C00047E04FF000083EE0119800FB03CB109885
:1005D000ABEB00004FFA80F9119800FB068B1098E6
:1005E000ABEB00004FFA80FAB9F1000F27DBBAF14C
:1005F000000F24DB0298814521DA029882451EDA39
:1006000000271AE001FB02F0684368430CFB058BEE
:100610000BFB020000EB070B049810F90BB00298DB
:1006200009FB00A000FB027E019810F90EE0009883
:100630000EFB0B000090781C87B29742E2DB08F1BA
:1006400001001FFA80F8A845BEDB0CF101001FFA7B
:1006500080FCAC45B5DBDDF850B0009840FA0BF0FB
:1006600000F3070B169803FB006000FB041E1598AF
:1006700000F80EB0701C86B2169886428FDB581CAC
:1006800083B21698834288DB481C81B2A14282DB88
:1006900000207BE72DE9FF4F88B0DDE915640B985A
:1006A000801007900999189B179D11E115F9010B0E
:1006B000B0400127A74000EB5700069015F9010B49
:1006C000B0400127A74000EB5700059015F9010B3A
:1006D000B0400127A74000EB5700049015F9010B2B
:1006E000B0400127A74000EB570003900A98801004
:1006F0000290089A98E012F9010B12F9017B12F9A5
:1007000001CB12F9018B11F9019B11F901AB11F920
:1007100001BBCDF804B011F901BBCDF800B000FB6E
:1007200009FBDDF804E00CFB0EBEDDF818B0F34465
:10073000CDF818B000FB0AFBDDF800E00CFB0EBEA4
:10074000DDF814B0F344CDF814B011F9019B11F9A0
:1007500001AB11F901BBCDF804B011F901BBCDF823
:1007600000B000FB09FBDDF804E00CFB0EBEDDF879
:1007700010B0F344CDF810B000FB0AFBDDF800E048
:100780000CFB0EBEDDF80CB0F344CDF80CB011F943
:10079000019B11F901AB11F901BBCDF804B011F9BE
:1007A00001BBCDF800B007FB09FBDDF804E008FB56
:1007B0000EBEDDF818B0F344CDF818B007FB0AFB05
:1007C000DDF800E008FB0EBEDDF814B0F344CDF810
:1007D00014B011F9019B11F901AB11F901BBCDF86E
:1007E00004B011F901BBCDF800B007FB09FBDDF83F
:1007F00004E008FB0EBEDDF810B0F344CDF810B0F5
:1008000007FB0AFBDDF800E008FB0EBEDDF80CB0CC
:10081000F344CDF80CB0DDF808B0ABF1010B1FFAD2
:100820008BFBCDF808B000BF029800287FF463AFBF
:100830000A9800F0030002902AE012F9010B11F966
:10084000017BDDF818C000FB07CCCDF818C011F90A
:10085000017BDDF814C000FB07CCCDF814C011F902
:10086000017BDDF810C000FB07CCCDF810C011F9FA
:10087000017BDDF80CC000FB07CCCDF80CC0DDF827
:1008800008C0ACF1010C1FFA8CFCCDF808C000BF09
:1008900002980028D1D10698204100F3070003F800
:1008A000010B0598204100F3070003F8010B0498A1
:1008B000204100F3070003F8010B0398204100F3E7
:1008C000070003F8010B0798401E80B2079000BF95
:1008D000079800287FF4EAAE0B9800F00300079019
:1008E00026E015F901CB0CFA06FC4FF0010808FAD6
:1008F00004F80CEB5800089A002706E012F901CB27
:1009000011F9018B0CFB08007F1CDDF828C067453E
:10091000F4DB40FA04FC0CF3070C03F801CBDDF820
:100920001CC0ACF1010C1FFA8CFCCDF81CC000BF40
:1009300007980028D5D10CB0BDE8F08F2DE9F84F0D
:1009400080460C469946DDE90A7C002367E00026D4
:100950005DE0002553E06FF0800ACDF800A006FBB3
:100960000CFAAAEB070A0FFA8AF12FE005FB0CFA42
:10097000AAEB070A0FFA8AF01DE0002917DB00280E
:1009800015DBA14213DAA04211DA01FB040A02FBD3
:100990000A3A18F90AB0DDF800A0D34507DD01FBDB
:1009A000040A02FB0A3A18F90AA0CDF800A000F1E7
:1009B000010A0FFA8AF005FB0CFAAAEB070ACA44EF
:1009C0008245DADC01F1010A0FFA8AF106FB0CFA22
:1009D000AAEB070ACA448A45C8DCDDF800A04FFA32
:1009E0008AFBDDF830A006FB0A5A02FB0A3EDDF85E
:1009F00038A00AF80EB005F1010A0FFA8AF5DDF801
:100A000030A05545A7DB06F1010A0FFA8AF6DDF89A
:100A100030A056459DDB03F1010A0FFA8AF3934299
:100A200095DBBDE8F88F0246002006E01356002B48
:100A300001DA00231354431C98B28842F6DB704756
:100A40002DE9F041034616466FF07F02002008E0D2
:100A500013F900C0944500DD1A5600F1010C0FFA9D
:100A60008CF08842F4DBA2F1080C0FFA8CF200241F
:100A700000200EE013F900C0ACEB020C8CF3030570
:100A80004FF0010C0CFA05FC644400F1010C0FFA64
:100A90008CF08842EEDB4FF4801C9CFBF4F70020C6
:100AA00011E002F10D0C13F90080ACEB080C8CF393
:100AB000050547FA05FC0CF3070C06F800C000F129
:100AC000010C0FFA8CF08842EBDBBDE8F08170B5C9
:100AD00004463C20B4FBF0F6B4FBF0F100FB1145FA
:100AE00003E03C2000F008F8761E002EF9D115B185
:100AF000284600F001F870BD01460020114A126836
:100B00004A434FF0E0235A6100229A611A46126963
:100B100042F001021A6100BF4FF0E022106900F0BC
:100B200001021AB100F48032002AF5D04FF0E02221
:100B3000126922F001024FF0E0231A6100229A614B
:100B4000704700000800002070B592B078A0FFF751
:100B5000A9FB7C4D05F500447B4A07CA0FAB07C3D0
:100B6000794A0C3207CA0CAB07C3002031E0774941
:100B7000095C0F9A8B1A0C99491E01228A4002EBDC
:100B8000C3110C9A114101F3070121546F4A411C12
:100B9000515C109A8B1A0D99491E01228A4002EB72
:100BA000C3110D9A114101F30702411C6254674AB7
:100BB000811C515C119A8B1A0E99491E01228A40A0
:100BC00002EBC3110E9A114101F30702811C62541A
:100BD000C01CB0F5406FCADB00205D492022CDE982
:100BE0000752CDE90910092006215A4A0123CDE90F
:100BF0000332CDE90510022005212022564BCDE914
:100C000000210290032220212046FFF715FC4FF41B
:100C100000412846FFF707FF002010210222CDE9FE
:100C2000021003230494CDE9000220221146284635
:100C3000FFF784FE002046491022CDE90752CDE996
:100C4000091009200421454A0123CDE90332CDE9E9
:100C50000510022005211022414BCDE90021029010
:100C6000202210212046FFF775FC4FF480512846C2
:100C7000FFF7D9FE364808210222CDE90304CDE969
:100C80000121002003231022114600902846FFF77F
:100C900055FE00202E490822CDE90752CDE9091062
:100CA000072001212F4ACDE90312CDE905100220CA
:100CB000052120222C4BCDE9002102901022082191
:100CC0002046FFF747FC4FF400612846FFF7ABFED4
:100CD0001F4804210222CDE90304CDE901210020AF
:100CE00003232022082100902846FFF727FE1F48F3
:100CF0001F490822CDE90305CDE9012101200A237E
:100D000042021C4900902046FFF7C4FC174A0A2102
:100D10001046FFF795FE002606E01448825731463C
:100D200015A0FFF7BFFA761C0A2EF6DB12B070BDD5
:100D3000737461727420657865637574696F6E0A87
:100D400000000000629A002004140008C681002000
:100D5000E28D00206C0900200C0000208C3B00205C
:100D60008C0900209C6D00209C3B0020D88D002029
:100D7000BC810020BC6D002025643A2025640A0057
:100D800070B504460D46E1B2054800F0EBFA00BF2D
:100D90000721034800F0EFFA0028F9D0204670BD83
:100DA000003801400022034B1A68130C03800A80AC
:100DB00070470000E0F7FF1F05490968016004491A
:100DC000091F096841600249083909688160704754
:100DD000F0F7FF1FF0B5044616460025002201F08B
:100DE0000F0501F0100707B1354300201EE0012771
:100DF00087401F40C7B122684FEA800C0F2707FACF
:100E00000CF7BA43870005FA07F73A43282904D1BB
:100E1000012787401F40676105E0482903D101276A
:100E200087401F4027612260471CB8B20828DED3E4
:100E3000082022E0012787401F40E7B16268A0F147
:100E400008074FEA870C0F2707FA0CF7BA43A0F1FF
:100E50000807BF0005FA07F73A43282904D10127FC
:100E600087401F40676105E0482903D1012787407B
:100E70001F4027616260471CB8B21028DAD3F0BD6A
:100E800010B540F2066000F08DF94FF48063012246
:100E900010211248FFF79EFF4FF40063012210213A
:100EA0000E48FFF797FF4FF48053012210210B48A3
:100EB000FFF790FF4FF40053012210210748FFF77E
:100EC00089FF0020064908600649C1F8AC010449C1
:100ED000083108600349C1F8B40110BD0018014091
:100EE000A801234200002342002006490860064969
:100EF000C1F8AC010349083108600349C1F8B401E5
:100F000070470000A8012342000023420120064947
:100F100008600649C1F8AC0103490831086003497B
:100F2000C1F8B40170470000A80123420000234229
:100F3000602000F0BDF9FFF7A3FF4FF4E13000F0AF
:100F40005FF81249881EFFF72DFF1048801E0288A7
:100F500041880FA0FFF7A6F91A48FFF72DFF19489F
:100F600083684268016818A0FFF79CF9FFF7ECFD61
:100F70000BE0FFF7CBFF4FF47A70FFF7A8FDFFF708
:100F8000B3FF4FF47A70FFF7A2FDF2E702000020F2
:100F90004744333246313033564B543620466C6129
:100FA00073682053697A653D25644B422C53726106
:100FB0006D2053697A653D25644B422E2E2E0D0A15
:100FC00000000000CC8D00204744333246313033DE
:100FD000564B5436205549443D2564256425642EDE
:100FE0002E2E0D0A00000000034A0A400243034B64
:100FF0001A60BFF34F8F704780FFFF1F08ED00E0BE
:1010000010B5044640F2026000F0CCF840F20E60E9
:1010100000F0C8F84FF40073032218211648FFF7B8
:10102000D9FE4FF48063032248211348FFF7D2FE14
:101030002146124800F04EF90021104800F0DAF97C
:1010400000210E4800F0C6F900210C4800F0B2F96A
:1010500000210A4800F09EF90021084800F0A2F99A
:101060000821064800F0BEF90421044800F0AAF95E
:10107000024800F07BF910BD000801400038014033
:101080002DE9F04F8BB00746002009903EA090E874
:10109000004CC068CDE905BECDF810A007900FF256
:1010A000EC0ADAE9000ACDE9020A0FF2E00ADAE90D
:1010B000000ACDE9000A38484068C0F381000A9070
:1010C0000A9820B1012804D0022829D103E033492D
:1010D00028E0324926E03048406800F48038B8F50E
:1010E000803F09D12D4C2C48406800F40039B9F5F7
:1010F000003F02D1641000E0294C27484068C0F34B
:1011000083422548406800F0006008B142F01002B8
:101110000F2A01D2921C00E0521C04FB02F101E0F4
:101120001E4900BF00BF1C484068C0F3031504A857
:10113000465D21FA06F318484068C0F3022502A86C
:10114000465D23FA06FC14484068C0F3C2251DF82A
:10115000056023FA06F0089037B1012F06D0022F60
:1011600006D0032F0AD106E0099108E0099306E0B2
:10117000CDF824C003E00898099000E000BF00BF4C
:1011800009980BB0BDE8F08F0000000000000000DF
:1011900001020304060708090010024000127A0049
:1011A00000093D00064A02EB9011096800F01F0398
:1011B00001229A401143024B03EB901211607047D9
:1011C00000100240002000212B4A126842F48032B5
:1011D000294B1A6000BF401C274A126802F40031F4
:1011E00019B94FF6FF729042F5D1234A126802F402
:1011F00000320AB900BFFEE71F4A52681E4B5A6010
:101200001A4652685A601A46526842F480625A601E
:101210001A46526822F440325A601A46526842F422
:1012200080325A601A465268144B1A40124B5A6068
:101230001A46526842F420125A601A46126842F066
:1012400080721A6000BF0C4A126802F00072002A15
:10125000F9D0094A526822F00302074B5A601A4635
:10126000526842F002025A6000BF034A526802F01C
:101270000C02082AF9D1704700100240FFFFC3F7A3
:1012800010B5FFF79FFF10BD042808D14FF0E021F3
:10129000096941F004014FF0E022116107E04FF0CD
:1012A000E021096921F004014FF0E022116170474B
:1012B00010B504460420FFF7E7FF044804704FF41C
:1012C0007A7060430249086010BD000004000020ED
:1012D000080000202DE9F04704460D460027B846D7
:1012E000B94600261D49601A8C421CD006DC1C48F9
:1012F000204470B1B0F5806F1FD10FE0B0F5806F62
:1013000016D0B0F56C4F18D10320FFF7B9FE074691
:1013100014E00220FFF7B4FE07460FE00220FFF7BB
:10132000AFFE07460AE00220FFF7AAFE074605E0E7
:101330000220FFF7A5FE074600E000BF00BF07EB55
:101340005500B0FBF5F64FF6F07006EA000806F01F
:101350000F0948EA0900A060BDE8F087004C004092
:1013600000BCFFBFC1F3080242607047C16841F48E
:101370000051C160704710B5024602EB9110006841
:1013800001F01F040123A340184008B1012010BD43
:101390000020FCE70A460021416921F40071114355
:1013A000416170470A460021416921F4807111436F
:1013B00041617047C26822F4C062C260C2680A43D9
:1013C000C26070470A460021C16821F00401114340
:1013D000C1607047026922F44052026102690A4307
:1013E000026170470A460021C16821F008011143DB
:1013F000C1607047C26822F48052C260C2680A436A
:10140000C26070477D0000007B0000007200000099
:101410000800000008000000080000003C1400085C
:1014200000000020CC8D0000C402000808A20008C3
:10143000CC8D00209CB00000D40200080000000009
:101440000000000000000000F7FF0206FC0604F5A3
:1014500008F7F50AF4050F0BFFFF21E7EE2FDDE992
:1014600019E5FB00FC0902FB0022E7EB37D8DF227D
:10147000E0F005F902EB100EFC05030EF6F903F699
:10148000FEF80508E3170CE70F08F10407F005085C
:10149000F3110C02FCFFFFF60906FC150B000CF61D
:1014A000F7FC0D0A0C130B1B00FB0BEBE6E4F90336
:1014B000F1100E1AEAE7F8E3E8E90006F30D190067
:1014C000EBEEFDEBEDF30B0E040D12FC0610FFF638
:1014D000F2F90C09050D08FC090AF7FC07FD0707DE
:1014E000F4070300FFF902F8FB09FD06FC07F6E725
:1014F00007F9F90A020EFC0211F705FD07F6E704E9
:10150000F6F8000010F90B19F20D0407F4E905F0E4
:10151000EF08000B020D15F509FD02F7F7FDF2F5D6
:1015200001FF06FA060EFF100B0703F21506FA116B
:101530000D040107FDFA02021B0DFB1200F9FAFC73
:1015400002E8F500EEF8061808F20BFAF8F8000CBD
:10155000EAFE0DF1FD071D06F00AFAFCF4F90BE6B0
:10156000F203F6F8001005F8FBFB03F1FE17EFFBA2
:101570001101010C0A03FBF9EEF9FDFC020306045C
:101580000402F911140CE9E5F1FD0306050F06FE4E
:1015900002FB16160BE6E2EDFAFB030A0C0602014B
:1015A000FD140E04F1E6EE00F7010E080601F9F74E
:1015B000080B06F6F3F5FCFC08020511F7000BF723
:1015C000F515060D27F9011E020C24F5FF1CFEE798
:1015D000FA06F0FAF7DEE803EFF102ECF500F3F5B6
:1015E000190D0600F1EC1007F507FDF6FBFEFA0EEB
:1015F000160CF0FBF4071707F605FEF6FFF70715C4
:1016000008EDFEF3021503F109FEFCFEFEF4020DE7
:10161000ED01060010FF0508E40BFEFCF6FF15E2E5
:10162000FC16F80E090B0EEB14F7E900FC13E4F7B7
:101630001FE2FF0C030EF51E03E803F806EAF71F8E
:10164000E3021AFB0B081802DC1803F7FAEF04F8A0
:10165000F80C01FF0503F40FFAFEFF000FF5EE068C
:10166000EEF6060306FD03F40DF2FF2BE9FD34F060
:10167000F51CF804FA05F510FAEC20E4E826E1EA96
:1016800014F005F307FE0503FA11F6F816F3FB0D47
:10169000000BF00EFDF20603FC0404FE02FDF7054C
:1016A0000201FEF6FAFDEFFE01ED0201F2080B0E5B
:1016B000030701F3F302FFFDF700FBEE0400120342
:1016C000090FF6F80AF4EE05FDF0F600F205040E37
:1016D0000EFF0A10FAFE0EFFF40802EEF3FF11FEF1
:1016E0000218FCFD1108FF0C09FAFDFEF703FEF3DA
:1016F000FFFBEFFBF9F0F9F8F2F703F7FF00F3F95E
:1017000004F7F903FAF8FEFCF905F9FC01F8F50A0B
:1017100006FD0E0CFF060AFE00F4F0FDF7ED0001D9
:10172000F4090CFE010AFF0A04F80603F50B0E018A
:101730000C1308031009F9FF04F5FF03010C080757
:101740000F0DFBFE04F9FB01F8FD02010A09FF0879
:1017500009F5F7FE00FF06F2F3FA01030A03040B92
:10176000FFFB0507040AF2EFF6F4F3FAF5F2FA01CB
:10177000FA0102FF01FBF9FDFEFC01F5F3F7F4F0BD
:10178000F4FEFFFEF7FBFCF9FD03FFFD0809FE0177
:10179000080B0D050E11010A11FF031200FA00FFDC
:1017A0000003040D10FF080EFC020EF0ECF2FDFD2C
:1017B000000D1519050B0EFBFE0901FB02FAF7F2ED
:1017C000F9FCF8F6F7F3F6F4F407FFFEFB02F2FB80
:1017D00003FA010903F803FFF70200F4FCEB06111A
:1017E00008111C16FB0602F1F8F90815FD0214FB9E
:1017F000FF10F80711030006010B1A00EAFCDFDCFA
:10180000F0D8FE0E01020A050111F6F003EAEAFF24
:10181000F2F70A06F907070AF805FDFCFFF9F9F9DE
:101820000100FEF90B0905FE020C0E100C07020068
:10183000F7E9F2F8E9FFF5F2F9F7F90E0B072C23B7
:101840001322260C010309FAFC08E0E4EDD7D3DBF0
:10185000F2EFEFF904FDFB0808031015080E18FD60
:10186000FB06F5F1EEF8F4F4FAF2F809FA011003C8
:101870000B0303F8FB00FAF3F3F3FAF1F106FBFCB8
:10188000091005010E05FC07FFF4F5EE00FAF4055A
:101890000E00FF0D02021206F7FCF000FDEF040C33
:1018A00000FF0D02001006FA01F7FBF8ED12FFFC35
:1018B00010FEFA12FFFC09FC01F4F3FC09FDF70627
:1018C000FCF20F05FEFBFBFFECF7FD1002FB0C0327
:1018D000F90F0701F4F9FEF1FE021207FF0A02FBFD
:1018E000FFF8F8EEF1F9FE0709F1F1EFF9FAF9F472
:1018F000F4FAEFF4FA090E0C0D070603FD02FAF9EB
:1019000001F9FC03F5F4FA0C0B06FCFDFEF1F4FC06
:10191000F9FC03F7F7FC0F110CFD0102EEF3FA04DA
:10192000050A060105090E08FA0103EBF1F9FEFFAD
:101930000504FF0204110EFC0409E8ECF5F9F903B3
:10194000FEFA010509F60609F40C0BF90401F10B86
:1019500009FA190F05150D05170E070D02FD110ADD
:1019600006FFF6FEECEBF2F5F5FEF5F4FDF0F1FD09
:10197000FCF206F0EDFFFDFE0DFFFD0CFAF608008F
:10198000FB0AF5F604FCFF08F5FB03FAFF08F8F183
:1019900000FD0009040B0EFD0304F1F7FAF4F2FF59
:1019A000EEF8FFE6F4F8E4F4F7E2F3F80AFFFA0FD2
:1019B00011050B16080F180811190C0AFBF704047F
:1019C000FB010A010204F80607F905F6FAFFFBFD20
:1019D00003080A0104FEFF00F802F80300FA0901F7
:1019E000FEF80601FD01F60605FA07F8F4000B11F2
:1019F000FCF9FFF401FE090B0211DDE0EB263414C3
:101A0000E5EFE2040211120A13D4DEDE2B3B1CE7E1
:101A1000EFE10600100A0412E1E5EA1B1F10F6F7D9
:101A2000F003FA06FEF50F0A000EFEF8F800F9F9C9
:101A30000D000B02F9030A040300FEF2FFFFF0FFA2
:101A400003FA08FC030C04020401EF070AF8000A79
:101A5000FEFDF1000A0408F6F3E8F9FEF00008FDC7
:101A6000FAFA07070B0D0209FAFC0BF10216000245
:101A7000FCFEF6F4FB180F19FFFCFEF5FFFD070B4B
:101A800005F0EFE9E3DDE2352D36F5F7F4FD050469
:101A90002C2724D3CDCDEDE4F019181CF100F40768
:101AA00001022C2A28DCD7D7050003FF1205EFF12D
:101AB000F107080E0B030401F5F80AFFFEFBF6FD23
:101AC00006060A050909FA0300F2EBF0D8D9E60088
:101AD00004100F1418F2F9FB03FB01F3F400F0F506
:101AE00006040714F5F7FF0BFC070E0716F2F205C4
:101AF000F9FA0CFCF70412FA050EFC0CFEF50603CD
:101B0000FB0B04F60102FFF204FAE91A0BF10CF9DF
:101B1000DF06F6F10D06EC0E00E702F2DE01FCF541
:101B20000309170106FBFAFEF8F90611FB122AED6C
:101B30000A2AFDFFFEFE0108040B1DEEF407F0F972
:101B40000201FF09F7F70FF9FB12FFFC060102FA89
:101B5000F607FE0104FEFEFC0605F90403F9FEF596
:101B60001100F1EEE828191EF7ECEE010401E0F493
:101B7000EA362B2900EDF7E3E3E705101414060815
:101B80001D0510C4B6BF25272BFBFEFE15F909EB7A
:101B9000DAED06160E021911EA04F50306F1FB024E
:101BA000F3FE0CF8000D05FC0105F81304FB1C1DE9
:101BB000EE1213EC01FEF7FEF6E20108C7E6FDD1D6
:101BC000E4F60401030F04FFFCF8040CFD0A3010D6
:101BD000192601FF0FF9FC17FE021FF9F117EFEDAF
:101BE00006ECEBFEFF0404FC030900080AFAFD11F1
:101BF000FEF50EFEECF4F812F1F714FCFF170706E1
:101C000014FEFDFBF4FD1AE5F111EAF613F6FD10E2
:101C1000F6FD00F9FF13F0FA10F4FB10F9FB06FAD9
:101C2000FCF7FBFC08FAFE0901FF040700FA0905AE
:101C3000F30C0604080F0AEAF4F1DEECEDF2FEFD07
:101C40000900070D1215031516E1F5FAE8FB000867
:101C5000F6FFF4ECF3080D0D101C1805151603F52E
:101C6000FB01F1F51206000301F8FF0206FFFBF885
:101C700008FBF81607FA06FCF3FCF4FAF4F7F6F79B
:101C8000F7F5FAFAF7FAF9F6FAF7F6F5F8F8F7F9D8
:101C9000F9FBFDFCFBFCFCFAFBFD010404FF030364
:101CA000010404FE0102FE0105FD0306FB0104FB25
:101CB0000103FC0003FD0206F7FE02FA0103FB012B
:101CC00001FB0002FB010400FCFF14060214FEEFFE
:101CD00007FFF1F604FDF4FF10FFFC061701F916EB
:101CE00000F30A02FEE0F60EE7F30B1003061900FC
:101CF000F313FFF6E5FE0BD7EE08FF000B11FDF422
:101D00001A00F3FA0A0AEAFF10F00011FDFD0703BA
:101D1000F5F8ED0EFDF40D02FB010904FFFC0A00CD
:101D200002EC1202F10B0E00FA0B14F5EF11F4F3B2
:101D3000E5170AEE0F1904F2051EF0E31AF3EBDFC4
:101D4000150EEC0D2004ED0220EDE316F5EEE81380
:101D500008F50C1605F0FD19F5F007F9F5FAFDF296
:101D6000080B020405FE09FFFF11FC02F6FFF7F75E
:101D700003FCE6F3ED0B0B0E10040CF502FFEDFF78
:101D8000FBE0F4EF131717080004F0FCFBEF01FD74
:101D9000F3040011130F01F8F9F0FBFBFE0E0BFD2D
:101DA0000A060A0703FEF5F3CFEEF9ECF4F1070299
:101DB000F6ACB8BFCBFAA9C1C0E4E4FCFDF6CCF1A7
:101DC000FBF9E1D49AEDFBBFFDF7F0F208EFF6F76F
:101DD000EC25F5FBEB09EAF6F512040C08160B06E8
:101DE000F2FA0E0F08F1FAF6E9E0F5F5221DFBF222
:101DF000F30EE1EFF408EDF70B0CF81F2318DD07E5
:101E000010F0FA14030009E4DCEBF4DDFAFEF61737
:101E10000AFE0807F01AF3F1F511FD100FFEE9F7BD
:101E2000E9F306EB07FCD8DAE8ECFDD1131AFD0460
:101E300015FCFC0901180EEFE6FFF426130DF9EE70
:101E4000310101F508F9E6F8E20EE4CF0BF1F0F804
:101E5000270106F0E92304F8F9F1F1210E08F7FE55
:101E60002A1B040F00E7F3EA0EF6D4DDF603F00EAA
:101E7000F60F080E061A000A13170F05F80CE907EB
:101E8000EE0E0813FCF704FB12E1D4DD0907E907A5
:101E90000D00F1EFFE19FA0D0918F41A1023DEF205
:101EA000130AF808F8100EEF05EB04EFEC06072B09
:101EB0001AFCFEF6FF1EEFF7F00609180FEBD7101D
:101EC000FC220BF8FAFCD9EDFDD9EBF7FBFF081B60
:101ED0000AEBF9FDFBF6F5F5DC05F20C0619EB0053
:101EE000022B0CF303F2DCF5F6DDDBCFF9F304187B
:101EF00016F0FCF0EFEEF8F3EA07E2220617F1EA3B
:101F00001A03F9FBFDECF8EA15D4DE03EE0BE50F3E
:101F10000F04190CFB21FCFDFB1AFCF8EFFFD507A1
:101F2000EF0D02E9E9F3EBF71AD2D1FBFB08DE0271
:101F30001CFC21E9E829F1F7F105F4EF06EBECEAE6
:101F4000FA08F8EAE608FFEF19E406FADD0FEB30CD
:101F50001EFB18F4D046F3F4FF0B0D0311FCE7F75A
:101F6000DF010DEEF0F104E825E60BD9EF08FC16D1
:101F700017F915FFE12CF902DBFB0DF00102DBEC98
:101F8000FD0305F2FBE0E6FE0A1014CDF70C040D8C
:101F900009E8ED0DF1320906F0E513170E23F4E21E
:101FA00027EE0202F608EF1D09F1F40EED17F9E431
:101FB000080603F1F4E614FD0D2317E7C5E00A2433
:101FC000D80C08F80FEAEC01FECAE0F2F00AE2CA07
:101FD000FD00FEF6EAF605F1FB1A17D8C4FAF4097B
:101FE000E4EB04E30B04E40804E6EFE7D41EFCE8AA
:101FF00012040DFBE90F16F9032130E4EAECEAFDC7
:10200000C6FE20051602F6ECFBE90FDCE42AFFD73A
:102010000C011206DDFC0E01E52C23DCEB03EBF5D5
:10202000CEF90E071522E801FEF403E5F83601F6B5
:1020300010E8F3E5DDF607F4FB15ED060C0409D610
:10204000FAF007EC0423F73FF9072310F6310DE609
:1020500037E411DD10D811041320FEECCDEB05267A
:10206000F81AFEEF19FA0015F5EC08FF001B08DA64
:102070000EE40BD403E0EDF8E70FF7F0D10107F61B
:10208000F807FC0114F7DE10F7E616FDF1310B0539
:1020900015E51CE10F360AF0EBFF08FEF61303FF0F
:1020A000E8040F0A181107F3E7E51AF4FD09FEFB2F
:1020B00022F40FE9F01AFEF6FFF50617EB0F0614EF
:1020C000ED11FEEC0B22F810EDFD26FE091CF70BBE
:1020D00015F8EAD0F1F1F3F918F9FD23F712F80D2C
:1020E000FF1BEB06F62429200B0CFD16F60DFEF067
:1020F00007F0191F0EF506070607FB23EA03251252
:1021000036F702EFFBFA02F9FF021508050E08D0B8
:10211000EEFDFD07EFF50717FAEBE716E615ED0DF7
:102120004D07E3FEF40117EEFCEE22FF0213350625
:1021300003090504F92405FAF5EEFB31F1090FFB5B
:102140001102F20C082A3BD827F707F3FDEA2FF714
:10215000F9082002E500DF0EF6E50027F117FD0083
:102160000A16F9E9051101111A1A250F031215ECC7
:1021700003FC171DF9EBE022FAFE2A16F9220B02E6
:102180001E22FCF2F90A0E0406F7F725D90002F226
:1021900015D3FB1CFEFA08001025F803E71E390FC3
:1021A000F0E4F8EF04FED301F80AEE0113EFF5D9DD
:1021B00003E5FA0EEDF20C10E7E8D7E6F53914F472
:1021C00010FDEFFFF7FDFFFBDA2B041001F226FDF7
:1021D00011FBFE10F0111AFE04EFF000F62F1909A2
:1021E000160DF1F00E0DFFEFFB20F30505DF04DE09
:1021F000090C0A12FFE5EBFF01070BEBF304060CD9
:102200002E18E7FCFF09E712FF2B0C11F100F5EA8D
:10221000FEFDFC11E203EA07F41622D0EAF80202FE
:10222000FA12F20FFB10FE010EEAF204D6EDE20BF9
:10223000100AE40A16F905E2F22E1DCB01DB1D029D
:10224000B60C0D140015D8FE14F6C4F0DAFCE8F351
:1022500000FAF4F2FFF005ECD6041E92FDFA05FA3E
:10226000ABFF0608F4FECF01F218EF0BCE151219E2
:1022700026EAFDF0FFF118ED03F027CC03E8031B7D
:10228000C025121A08FCD50202F2BAF1C6FAE90218
:1022900002F8FEFC0FEE03E5ECEB038D03DF1F0EEF
:1022A000CE1CF31408C9CD2213F0D611C2F7E80BE7
:1022B000050516010C2210EDED171299F3DE1D0C29
:1022C000C7FE031100EFE70809EADCECDE0FF70CAC
:1022D000201FEE11FDE9F8F8FF1F0FDBFDE31801E9
:1022E000DE181CF90B15EEEB12CABCDDC1FFEDFFC9
:1022F000F008ED00EDEEFEEFD91003BCEBB5EFFDFD
:10230000B0F418D204F9D3FA05E604FFD427141266
:1023100004F8FE0CFBF00CFBEF0F06EF01B5E70332
:10232000CD0C2E1813FDE10117F5C6E9A808FBE84E
:10233000FA12080701E515FEE00BEEA802B6FAF165
:10234000CCF918060BDCD0131329F303BD0614F3E4
:102350001F2105F9FC04140BFE1711D5FACFF4F177
:102360001813222A08F7E5FB14270CEFEE140603D6
:102370001FF5FBE61A10F9FBFE171D2F0B1C0D08AD
:102380002315F915033201E90203F6F8DCF7E7FC3F
:102390001CE9E7EFF5FF02F5FEF920FB01F0040868
:1023A000F4F4FB0301FCEDFAE40511FFFE13092030
:1023B00011EFEE0DEF0A08FB01E9081B22D6E7F842
:1023C000FC100A1217091DFB0306D2E6CEDBF3064A
:1023D000E50601F80F00F905F6EE04F71CF2E20637
:1023E000241301060FDDEF0A1A15FF0F06E7270475
:1023F000040A16E617FFFF0D1009F7FE150702166F
:1024000038191C2413041A09F9030FFAEB05F21CFE
:10241000FCD408F010080EEE19EBFB0DF405FE04D9
:10242000FBF31BF50DF3F60B041432F60B0C012A2B
:10243000F9FBF40E04FC03E418F20E00F209FFEAC3
:10244000020D0FEF1503F0091F2BDC0C08FC0F2801
:10245000FA1D0C0EFCFBFEDB26F2FBFFE9FB0CEB8E
:10246000F8230FFC15F314160CEAE6F3F907E6114E
:10247000E6F503F1081100F1FBF004E1FDBC00EA10
:10248000DA10FD0215E6D30A0FFDE7E71E14EC0F84
:1024900016F3FB0AFA14040501F4F3F4FCFE13DB53
:1024A000EF00110B0FFD031DF9EA1309F5051318D1
:1024B000EFCD17E1ED1604EF0EE2EAECF10E16E9AE
:1024C00005EF190B0BFEEFFA0304200E030D130C9E
:1024D000DF001FF30003ECE200100BEDDFEE060857
:1024E00019FE0DFF05EEEE0A1B2CF51602EA1A0B7B
:1024F000042616F70BF9E1F00E2EFEDAE8EDFD1ECC
:10250000183BF1ECFEE32B0200E1EBCEE5EB021011
:10251000FBFC19F4FBF1F6F6F2060DC9EE0D1108FD
:10252000D51FE4000005DBF819E7EAC3F6F219123B
:1025300026EF090C0918EBF1000104F1F7EE22EB8C
:10254000F80EF110EE19FF0FF1F0F20512DB18177B
:10255000EFEC09EAF121020D12F9E0FEF1F203E6D7
:10256000FD010AF8E80C25E4F434ED0BFAFE120242
:10257000FA0E00F5FCE5F61207210AF303EA07F369
:102580002320FBE3EEEE36F0F3420B1AF7040ED8ED
:102590000124F00EECC6EC09EF1A02E7F6F0F00E9B
:1025A000184AE6F5F7E5630DE8E3FF02FCEE08F5EF
:1025B00015FEFD06F3FA12F3F2FF19CF000CF60137
:1025C0000017EDFBEFF914F3F6012BF4FB002409DF
:1025D0002C18FF1D0A1EFAFDF42109F2091E11DA5A
:1025E000F417E316DF050CFFE511F7F705FB020C06
:1025F000FB0E09E00A210F24FE17FBEDF8EEFD1893
:10260000F2071903F1211B06E00D0D07F2FEE7D8D2
:102610000407FBEFF5E21B111512EEF404ECFC0AC3
:10262000D80000CBF61A3AF3D605221714FDC69E41
:10263000EF19EF01E2B6FB1304EDD00C0FEAEF0146
:1026400017D5F3E0F90A4AF9CB0F160C0A08A9AD21
:10265000FF09E902D8EB05F413E1F4F918ECD6E927
:10266000F3BFEB02F6EA01DEE80922F6F718BAC476
:10267000190EF907EB0E000CE707F001191404EE30
:10268000E8CDE202F20606F4050FF7F4E61FFE02BB
:10269000F9E90EE219F61038FA02090AFB1807F0F8
:1026A000142912FBF809010AF107000DE0F8E9DB33
:1026B000F9EDF9F7FDE204200EF4EF0AFE020BDD5E
:1026C000FC0702DBFB041EF2CC1929010BD7D0BAA0
:1026D0000601E1E8DDEAEA0008ECE8161917FAF16C
:1026E00021D3F5EFFF071B0AC41A19001BDEC1C175
:1026F00004F6EFDEDD06FBF21407EC062509E7F031
:102700001CE0E4F1FB0304D0E20C080308E8C6BFB8
:1027100001FCF7DCF8030243DD20F30A242606E47B
:1027200032E7D4F7F400F5DD1C12F9F3071C12F3BD
:1027300006060700E6073B12FE1606FEB02106F568
:1027400004FBF721FEF0ECED100C01DCFA162DFD78
:10275000E42011F9C90601FB0CF5F115DB17F2FBBA
:10276000FC02F808042425CBF00301F5FF300D1915
:10277000EA1700E9CF11EA1004F80104F2E90410A5
:10278000E612EB0C0107FA18FA1ED4E7CEF5DD16B7
:10279000DBEBFA08F8100E0DF7F717CEECC90701BE
:1027A000CE10130C03F0DC0512FC070F0111011110
:1027B000DFF0F51001F01403F4E90BFEEF210D0337
:1027C000F1120F30FAF4E50ADD2106F9050A0EE6EA
:1027D00003F117F6E5FE16141406152ED408F6F2CA
:1027E00026E6DE16DDF2FADFEE1323FF2A0E2EEDCB
:1027F000FF160AE7DB10EBFE17EE2127F73AE31787
:102800003D32E80BE70E1ED1DBFAFDED1209020A9C
:10281000FBEC05ECEE11F103FD001B17190D012275
:102820000828EDF1F51AF1E8F1FACADFD7FDDCFE70
:10283000E7E200FDF9FFF005F911FDCFFBBF0EF84F
:10284000CF0E19F2FCFECCFEFCDBEA0EFA0BEB0E0F
:10285000F8EB0603E7FFF41AFB0CEAF705D305F9DA
:10286000D2131A0EEFF7D003CD2119F834E0150278
:10287000050005FCF8F9EFF2F3F21D1CE72708F05C
:102880001E0BF5E906081205EF1619032F121E128A
:10289000F8F4FAE40108EAF9EA0621091630EF1E15
:1028A0004A09ECDA05032EFEF2E8E7F908FEF31F09
:1028B000EADFFDF4FDE0F609EF0626081CF91A0828
:1028C000F6F7E4D5151CFCEA12E6C6E3DDF9DCFCFC
:1028D000EBEFF4FE0C19F6FFF80B13D211C40AE368
:1028E000BDDF10EC13F2C8FA1CD5EE0BED07ECFDC2
:1028F000F0DF00F71624FC19FE0B1BE81BD5F2E5F0
:10290000E1FD0BF808F0D1FEE6EFFCEAF7EF10FD71
:102910000205F1ED03E8DEEBE2E419EFDDF2020B74
:10292000FD1607F80FDAEA0EF9F4F8F4060F260E92
:102930001AFBF0F10EFED9F4E7F60DD00CEFFF0311
:1029400016EE05050CDE00FE00EBDF0FFAE3FA0ED3
:1029500002F9F3FA0005EFFA04010BF514E4190784
:10296000DC0305FC0E02E5F723F0CCE8E7F0D6EC3B
:10297000FB06F6F20FFEF4FD00F907E1FDD10DEEC6
:10298000CDFD1FF10DF3CF0126ECECEAEA0EDCFEE3
:10299000FBFA05D81910F701060112DF16E3F8ED6E
:1029A000DA0612FC0BF7C70DFB0A1A0AFBD0F3F587
:1029B0001A17DEF007FEE4EA110DF024F60DFEEA28
:1029C000301D0AE8E7E1E6F9F5060B231CF1FF13D9
:1029D0003011F7EB1F03D8ED0B0BFC0914EBF8FBE0
:1029E00017100604F0EAFCFEF2E2D2180BE9E30B42
:1029F000240704F7FC0DE3F20608181B01F7110A7F
:102A0000F41909FDFC06E6100FFDD7F1F5EBE0FB2C
:102A1000FE1301FA0310F0F3FC0906EFFDD8FC0ADF
:102A2000E7E525F7080DCB0312EAF7D6E6F5E4153E
:102A3000F00602E60E05F2EEF8FA07DD12EBF10DF4
:102A4000E2FD170204FDC81AE3EFFE0D0AC9E7D440
:102A5000C115090518E0D2E9E8E8F9D702E608E966
:102A60000611F811070F0E1EF7E5F12B1F07F9E20B
:102A7000FF0301F2FAF4E4E60504011419D705FB9B
:102A8000EB02F40807EB260AFFEFFA2F16FE10E51B
:102A90000EDC0AF3FA0AFEE5182AF71402E90E071B
:102AA000F01FF5000F042E1A13F6F115EBF911E0E3
:102AB0000108FFE302F2E2F61C19F608E8DE05035E
:102AC000F10BE70B0A09F3FF01F7050A0D1A3AF2B9
:102AD00017F3F3F3E6E6FAE218F4FF17E30407F45A
:102AE000170EEC29051BF40FF60600FE10E8EB03A9
:102AF000EB09F2DA09F5FDFDF4001700FC04140FF0
:102B0000120FE61503F6F82813E9FF0A150704EE7D
:102B100006FEE5E0EDF7F00802E010221405110AC8
:102B20000EEED80FFBF12DF519031A1B291506EA35
:102B300017E0001FEA020FF001E2FA170DFE1C1267
:102B40001113F10804F7403040F6F00DFBF9F4F6EC
:102B5000FA05F714E0E00FE71AF1EE0EF3E618FBC2
:102B60001904F21203091A112613E726EFE9FE00F1
:102B7000F1EEFEECF2FAF5E514F5FA0BD7EBFCF802
:102B800019FEEFD6F3FFF1070513080D2728F611FC
:102B9000DF02F6F6000116F01F3401F9F7290213DF
:102BA00005E9F8ED11050F24370902FC0C190EFD9B
:102BB000F20EF0F80130040707120C041317CD11C0
:102BC000120FE71E09F62CF23CFE0503162B100926
:102BD000F30F2014E80B03FEE50806EE14FCE9FFF2
:102BE0001B2F031406F135324BF70FF2001F020AB8
:102BF000F3170F12EAED04090812F209FFE4FDEDE4
:102C0000F314172002F9F4140A20F630F8FA061229
:102C1000DE11161017EFEC0C0712F409D3F5E202DF
:102C20000D02160A00E3E11CF9F3E70909350D115D
:102C3000DA11E6EFE6171BF70E0CE9E4FD18F7ECE6
:102C4000F5000211FEF3071F19F7D6DBE5070E1199
:102C5000E51CE5F3FE07FEEC03EDFDEF06C2D4F83C
:102C6000D80EF4FDF7ECFFDC3AFDE3EFDF04E717E5
:102C7000DC25FF120A12FDF9EAF5E5CE0FC4F619BC
:102C8000DB11080402E3F7F6390DEBF4D811F30B6E
:102C9000CF02F7FF06FAFA08060EDFE4F2C3090BCB
:102CA000EE1224E7FFE4E0E4F62AF324F81AF22116
:102CB000C2E8F4EA0803EA0D0B13C90FE2B5F50701
:102CC0002BEF2210F6EB0E08F80AF2F4E83CFF05B1
:102CD0000BF9FC11102E1E00F13120F7E505EB1168
:102CE000F713E91CFB23FBFF18E5CB0AEB290D08C2
:102CF000F0FDEA1F091922F6F8240F0CF7E3EC099E
:102D0000DF0EE1F700EDF8F71E0FF0F6DE15CD133C
:102D1000D016FF17140518FA0C1D02E804CEE600C1
:102D2000F722F101FEF4D3F11A1418FAD422FC0EA2
:102D3000B91C110A11060206180C05F4E7D9FC1596
:102D4000FF0A13F5FCF9EBFAF1191A2220390311E5
:102D5000CA060B0D04F6F41813FBFB27DBC504238E
:102D6000F6EB22F5F9D02D11EF1B0AEDEFF6EDF59C
:102D7000FFDB15E8F1060420F2FAF204EE0A1B0567
:102D8000EE0E1606F3F4D7FFE51221E70A0AFF0359
:102D9000F0E80CFDF9F9FA0BE5EAF8FCFDF8FB0D9B
:102DA000F612F7FEEC0BF513FA1436F60D2001EBD4
:102DB000F6F811E6FCF42307F2E9F60BF301F8F15B
:102DC0000CFDF9FDFD18150E09EB0C0225E1FD03C4
:102DD0000402F9EC17F03102F7F8F003E60EF2EB1B
:102DE000EEEFEF1A080E00FC1EF8160DFEE8F0FAE2
:102DF000030AF7E9FDE91B03EDFAD7F7FCF3EFE768
:102E0000D8D3F0FF1106EA0FE7250CFDFB19F5FFFB
:102E100017002AF80004FF2BFA2E10EBFFF9110817
:102E20001527FB000014D60AE60D14EDF31609145D
:102E300006030DFFF2ECF90AF31309EE02FBE5FDC0
:102E4000F10E010AEC25E112FD063A07F41306FE25
:102E5000E61B1201F9EB0620FBF3F804F1FFE00892
:102E60001BD70BF7EE20F5DB06F809240BE204FF75
:102E7000FCFDEBF3FAF9ECEF03F302F5EEF00220C0
:102E8000FCDAFEF5FFFBF8E80E00F715F7F3F8089B
:102E9000050BCEEBEDEDE7DCF5F0FFED05D8F80323
:102EA000F7CDF8E808E6F303F324F212FB24CC0193
:102EB0002D0F00E220EB180DFE0A0CCC13D806CD26
:102EC000D22CD1ED2117DB07F5221E0BEF13DD0B02
:102ED000061FF2E911EB0A100CF0E4E811E0F5E24C
:102EE000F416E4F0111CEF0703F56C20011203FA4D
:102EF000D51EFF0700F6EA210602E8F9F6D4EE2512
:102F000015E6040C0707E1EFFD11221BEFEB03FEB2
:102F1000DD01040D0B07CFF5050D0CEFE2DE081601
:102F200013E1060CF6E30E03FA0F1621F1F2000E80
:102F3000F1FAF40FD924CCDD00F32FDA03E6E32F06
:102F40001C040008E8EF0909FD11E40AE3F5CF0DC0
:102F50001816F0F621F500F8E4EF10CD12D3EEF9D3
:102F6000DE10E2E72FE6E5FEF6181229F4DAE50AAC
:102F7000EC21FFE91DEAFAFF05F7E8E700D4EC1DB4
:102F80002A01EEE31CF4F7F5FAEF312D02E919EE10
:102F9000D7FE0E0000F4E1150BF5D6E6DCDCFD2EC5
:102FA0000FF8F8E812E6FBECFBE5171BEFEB10EC73
:102FB000E7E61CFD0DF7DBF60806F5F6D7050F244E
:102FC00026EB12FDEBEA13300400FC07F71119049D
:102FD000E5EE1C0CEA31E2ED0F0607E70D000001FB
:102FE000120623F6D8081A2AEBF8EE32E901DB23A1
:102FF0000E06E30D16E208F3FBF802F7F7F2E924F8
:10300000FC19DCF115DEE2F5E407094EF1EAF903FB
:10301000F7FFFAF810F103F9330400F3DEDD0520C1
:1030200018F9EBF006F7FBEAFC04062AF7E21DD9D3
:10303000F7F90EE9D6FAECF119FBEDEDDFEBE0085C
:103040000008F3F605E71ACD1308FBF4F2E71ADFE0
:10305000F4DF18DDE308EADEF700F0EAE70121001B
:10306000221004F6FE01202117F00E2000192A126A
:1030700000F22004F621F2F10CF2190A1EFA230BD9
:10308000241B1104F803282C0EFDF824F0FDFEF596
:103090000B24FB0207D9E5E408E6F204F8EAE6FAB5
:1030A000EB0FFE00FB31FE1F0ACEFCFE18090206E4
:1030B000F50CF4F016DDF0E616ECEC190DFB19EC4E
:1030C000D3E70D11F121F51407C505EF1106F50140
:1030D000F802E7F61AE5F9F2FBF6F1F5FED708F388
:1030E000C9DA1C2CE90CE4F80DF2E506ED03F2F761
:1030F000EE1CE6F017E8E1F7F6FAF0E604D30AF47E
:10310000DAE11304E6FFF705F810FC2514150AF9B7
:10311000F21BE5E025E20017E8F0020F091001EFCD
:10312000F0FC041AE30D172010FBF61BFBEFF4FE76
:103130001610FD151E0100EE04FBE9F308EAF1DDAF
:1031400008E70508071BE40916F0DE19030B070062
:103150001E1907011B02EF06010AF4EC12D80CEB52
:10316000DBEC0C080115ECF4FFD1C5E9FA20FEF503
:103170000F04F100F0F50406F70BF9FB04A10A04B3
:10318000B3FA0410F8F1CEE401FAC3EFD808F3F271
:10319000EE0CFEFCE4F3F0FAF4FA04E400A50412E9
:1031A000BFF306F8FBFED5F600FEEC1C060BF5039C
:1031B000F3F6F801FBFE0B45F3FF0A0609E90A08DE
:1031C000E90D04FFFF11091D082605EC02EEE0F4ED
:1031D00006F90603E1E501F20AD203FAFA2206FE35
:1031E0000203F006070D0B1EFFFB07022014F6F189
:1031F0000EF51CE20017F7FE0B010BFF101800EA9A
:103200000EF9EEF80D042F0801F5F2E3EB2202E4CB
:1032100007DB2802063AF708E10B1ADBFEE8F9079C
:10322000E11FF3F607EBEDEFF202E8D4E400EFE084
:10323000000B21FEE018F3FEF00905F8F9C9F412BD
:10324000F621F3E80D00EBF515270A100A011CF52D
:10325000FA000002F0E6143CEE0D1708F503FEFC40
:10326000301DF7F40E0624EFF502FDFFF5E6F91226
:10327000E9F909EB0BE42410FD07F3FFEDECF7246B
:1032800022EEEBF9FBFC1C0EEF18F7150DFA1322DA
:10329000171308D4091708FC06210934080D0E235A
:1032A0001AE1E70013F821EDF3F9F70D17321A2AA6
:1032B0000B0E2E08122500FA09412A0A1FE8F631E2
:1032C000F919012E0A01F5F7F90DDDE20227091BB4
:1032D00019121505EEF623E5F13C2711060BDC2249
:1032E000D51804011202F00F210F28102117251202
:1032F0001C07070508EB25140216133E0028EA01F7
:103300000FFDF2F20B0324EEF807C70924F5EAEFEC
:10331000F026EDF605E010FF03F3CB24EDFB0008EB
:1033200036F3DEDA08DEF928E2DCEDE9070D0AFE05
:10333000E5190405DE11FCF205F3FC2CF7EA041A8A
:103340000FECE9E20AEA0BF5E9F6F3033229FF088C
:10335000FFFC1C130015F20A2CFA0C211ADEF324D0
:103360002409FEFDFC03E5E5ED09E2D7F71DFBF9B5
:103370000AFB060FE012F2FEFD10F30105E3091C43
:10338000E8020EE60110C206F1FB07C81828191062
:1033900002ECE704F901F804F011EC2C0140DD0225
:1033A000FD0500E6F7F401FE12F10809E80F0B0A2B
:1033B000E5030EF708E7F00406FC17EDF5FA0BEE4F
:1033C000FA1024F1F6FD0BFD0501FE03F72012159E
:1033D000FA0BFA0011E51EEB05F5F902FD0BEAFE0A
:1033E0001BF31C25EFECF6020900EF11FC03E701CB
:1033F000F303F80414CB1011F901F711DF0717F7E5
:103400000AEE0B05F6FE02000F0D0B0500EAE9EFD0
:10341000F7F8FFF6F5E0F819FC0AE9FBF7FB1BFAF1
:103420001C07FED8F8F609FFFC062C14F6ECFC0786
:1034300009271EEFF0F1F51BEF001BEFF5EA070A75
:10344000150EFF0A0A0722F1F5FB00F602E6080E48
:10345000F00301190BE7F71005EC1F10091D010E11
:10346000FBD219DFFEEEFFFA01EEF32003F7033380
:10347000EE04F801FBD2F3F815F7FE1EFFD4EAFBC9
:10348000D8ED08F0FD06F61DFF02E10FFEE7E606A7
:10349000E1F506F2FFDBFC19F6F7E50BEEEB0F06A4
:1034A0002D04FADAF4F007EDF11FEAF40DE2F6E488
:1034B000FAF405DCD3F4061CD6F8F50B03E8051383
:1034C000631DEAF3F802FAE8FD0F11F7FEFEF40FB0
:1034D0001013F9F1F2EE0B15E1F60CFA111C04F2DF
:1034E0002204F805FDFBF4F5F3E705F710F9FE11EA
:1034F00002150E1BF426D811F0FF0C09FC3915FA41
:10350000E2FB1BFA01030BE8DF16DFFE14F6FE2ECA
:1035100005022116FFD5EBECF507F409FFED2D1A96
:10352000FF050BF1FAF716F6F134220C10F9D1DE93
:10353000FAF604FCEAC40EFBE50AE106F9E4201AF7
:103540007F37F4F7EFF31EDDF3462F09FF00EAD0D3
:10355000F712F5F2CDF21309DC02FE0806C9FFFEF0
:103560006E11E4E2F2FAF8F3FF100B191709F104F7
:1035700004180216EA050A1DFFF9F8110EF002FC04
:1035800014F909F705FBF3F5EAF5ECFA06EDEDD0D1
:103590000A22040B0D23DE1004F116E9E64105FAB8
:1035A00018ED07E611EE21F8E6120DF0FA01E3CF6F
:1035B000000C08EAE6FB02F8E404FEFEED0106005A
:1035C0001919F8DFFDEEFEE3DD48352FEFF8DDBC1D
:1035D000F8F1E1EBE0DA03F2F404E3E404C81807DD
:1035E0005F13DCC703E508F8EC44FC3BE7EDEAF0C9
:1035F000E6E8EC0DF3F201FC09DFE5E608A2E3E200
:10360000170BF9D305E5FEF3061AF00CF7ECFA25D3
:10361000C414060709D9F0FC0209EBFBF4CCE1DB8A
:10362000EE0214E100EAF1E9CE21192900E0DFA35E
:10363000F501DF00DEF40306020EEBD6D709FF2109
:10364000151316E80BF8030ADFF922230411F3C659
:10365000F0E90900E204110F05E5ECFC00F9E825AA
:1036600012F407C10906FFD2D7FB23FD0E02FB0EA1
:10367000F5FC151C1A0CFE0411DAE9F4F513EEFF43
:10368000F7F5E9020003DD01DFFEF70FD20F02308C
:103690000C0605132013F5ED1904EBF20911E5FBF7
:1036A000F518FC04F00B0218FC18FD03F703193D94
:1036B0000C212AF308F2FAF90A0B09ECF7EEFCF8F0
:1036C000F836170CF8F0E9FAE01F04E2DAF5DA034D
:1036D000EBF0061800001402EFF3CC000202F2ED4A
:1036E000FAE300F3FBF01D10F5F6F7F0D8F5F01152
:1036F00000F913F101110EE9DDFCC8FA093CEEE610
:10370000E0E5F20AFCFA0201FCE113F9FEFA071CFB
:10371000391310F9161F0BF115EB03091C4CD808CF
:10372000D4EADB15001AECEA01EF35F106ED1D15C0
:103730001F0F020604EB08F9E7ED06FD1510EE0376
:10374000F3EBE5E8132B04F303EC17FB15F208FE8B
:1037500010F4EDF500E812EEE9F9FBF21419EC01B2
:10376000150101F1070214F1DC1FF3E3F215D8F69D
:10377000DE0CF0E907E607FFE800D5021121F9F6B3
:103780000B0607120AE6EF09E110EDD1E10BE6FEA8
:10379000F80DE7EFF8F813E8DDF0F8F60110E5EFC3
:1037A000FC0E011800EBD2F5E2E305E1F9250A2150
:1037B0000BFDF60AE52204EF01E9F4EAFC37F2F426
:1037C00017F2EEF0FEFECD03E3E31EF2F4F0001D6F
:1037D000FDFEF8F0FA1D0505EFEDEDF9F81FF2F327
:1037E00028EBEDDF0414EE0BEE1E12EE0CF30009D5
:1037F00008F2E3E7F2F123F0E1E9EEFE0E0CF7EE5A
:103800001FEEFC0A001518F0DA10D3E2CFEDF0DD60
:10381000DC10FEFDFDE4E903E5F9F7F5F10E0636EF
:10382000FE0F270307E2EFF1D818E9E4D4E4EEEC49
:10383000DE11EBFDF0E4E3FCE606FAD8EE0CE3184B
:10384000FB0F2F2100E1CBDFCB1FEFE4E6F70900F0
:10385000EF04EB12D215EAFE000B08E3EF15E225A8
:10386000FB143836FEEDF2F6D305FEE3E0ED10175B
:10387000EADDE3FFFA1FFBFD02FAF5E8E027F519A0
:103880001D2B2E04FA170C18DE270F090FFA000E55
:1038900002F3E9F6061F0501F9FBE4FAEAE904FA86
:1038A0002A1C050DF4E2FCEEE335DCFEDE00E8E167
:1038B000DC1BF80BEFEFEE17EFDCEBE9F41AFBF98A
:1038C00015121CF507D0E9EBE433F1F4DC03E8FB57
:1038D000E41B05FDFAFDEC09F7FAF3E0E9F9E81855
:1038E000032522EF04D1E8E8DE1CE409DA11F40A2A
:1038F000E60906E8E510DF070E09FE0CF3F1DE1815
:103900002A1828EE09DB02EBF51FF209DEF8F016A3
:10391000DC0703EFFC0CF8F6F8F9F70A080AFB0ECF
:1039200015281CFF01E412F601FB0E28FB07F21B11
:10393000DB0B06FEFBF2FE08FDE904F4FA0DD70DE1
:103940001C00EDFAEEDFEDE8E547F517D510F7E4DA
:10395000CA21EF1AF5F6EB0001F2EC08F2ECDC32CA
:1039600031001FFF03EA1406EB1AE812CF0BF3FC39
:10397000CBFAFB0DEB13F9F1FEE7EBEDEFEBE63ED7
:103980001AF628E0FACF17EADE10F119DD15F90B67
:10399000E8FDF6FCE63DF0F8EDEE0D0DF3E8DD3B5D
:1039A000152835E7FBCA00FCF9F2E127EEFDF3121A
:1039B00003170CF0F71F0C16E70602040AF5E032B5
:1039C00035362ACFF9D91AF4FE06F831F2FAF8148E
:1039D000FF1C1FF70B020537FC140B01FFCEE84755
:1039E000032404C9FAF7F9E80B17001918F0BD020F
:1039F000E5FE03C615DF061CD1E6FEF3EBECEAF8A4
:103A000003EDEC1FE0F31004F70A1CD51315D1DF0A
:103A1000D8F20CE50A02F8FADD3608EBF8051CFAD4
:103A20003D2CF0D212091B0AFD0BE4FAE0F7BEF3BD
:103A3000E7EB02E4F60E0412F5200EDD051702FB9B
:103A4000F4F3EBFF15DAE6FEF614E808FFF6C1031F
:103A500013F6EDF3EF2A0A0AE707DB002839F0EE48
:103A6000E8FBE42809E6F8F6ED1BFD0C0DDAD614A8
:103A70000918E2F30FE80624ECFBE8FBE7F901E1A3
:103A8000FE11E714040AEAE91AF1E90F0705F41C2C
:103A9000E3F3DF0AF3EF1E1015ADFC0BFFF4FA0A97
:103AA00006DE0C32EF000CEFF6F5DD3A07162AD6EB
:103AB000D5FD09150F1BD6FE0519FF02FBFF1820C7
:103AC000463C0AE61C0625FAF6F3FE16F8051ADA55
:103AD000DEF4F1DA4246E0ED025305E6EB02100FA8
:103AE000061E02091A3CF702F60729ECEB0C0D0939
:103AF000340CF7EBE8F7FDFB170BEA03015C01F868
:103B0000E71CF51F0531F0FCEAFF24EF00F30D255B
:103B10001E1DF507E3EC0B0108D7F5F1F2F0EFF904
:103B2000F5E700E704040CFB1E0DECEB15E9EB22B6
:103B3000F114C00213F414110DB3EFE5F3FB16EC0E
:103B4000E0D60BEEEFFE0306F3EBF930F80617D4E0
:103B500010F1EDFB010AEAF2F1FFFF12EE0F010B8B
:103B6000000BEB0F12021918D228FE2136FE19B9EC
:103B700016DADE0FEE3CF0F7E23AF008F23508EC28
:103B80003858E2FD0B5E07FADE1816EB0FED0AEE71
:103B900004E9FCF7DA1FF1F0FFFEFE0BF71B16E558
:103BA0001752D812F849EADEF0FF2CECFAE8FC27AD
:103BB000070EEFFAF7F529F30CBCE6FFFF00EBD791
:103BC0000EF2F5D9F8FDFAFA0EE8FBEFF5E8091662
:103BD000F610FF081EF1071615C9F4DEF70FFEE513
:103BE000CFE818F7E70EF918F8020F1E0BF515E3EA
:103BF0000CEB15F5160D02FAFBE9FFEDF325DFE2FC
:103C0000E5EB07120720F6EBE8040A041413FECBD9
:103C100031E2F6F20EF4E411F60DE0D4FF1AFA23C5
:103C20001600FDFF0A1C17DBE12BFD0E141011EE30
:103C300010FA00EADC05091612FA06F1FFE506069D
:103C400018FCF3E5F31101E4E413F0F7EAF00A0DD0
:103C5000FEF8F1E31EE515F710D205EC00EEF308CF
:103C6000FD06FD0CFDFFDF0C02F71B07F0EDE50A7A
:103C7000EF0E0EF6E4C114E80AF3EC01F62015FE8F
:103C8000D5EA0F0FEE060423F9E51EFD04E20BF55D
:103C900003F33BE6E8FA06EA12FFFBF7E0231E1205
:103CA000DDEE15F607150808F81013E6D5F7F8ED60
:103CB0001D070DDEEA0F0610E21410E2DCEF2910FA
:103CC000ECF206EF061B15E9F6220F1A051209EEB3
:103CD0000B11F7D809EFFD14060222F30404FB16BA
:103CE000050D0ADD00FC0D12EB1FDC0EFBFA060CC5
:103CF00005FCEDE722DC11ED1DD6F2F0FEFFFA091E
:103D000004F8FEF30AF019FCF60A020A15F3FBFFA9
:103D10000F1C17EBFADCF30B13EC0AF3DCF41A13A9
:103D20000E16F53CFD1AF9071120F4E2E620F527FE
:103D3000FD2A01EE1601FAE4FAFD02E7FE0105058F
:103D4000010CFF150EE201F12202F9FAD2E810038C
:103D5000FD0410DA25012302DD1AF9E8DA1319F857
:103D6000F30507220EEF04E131E510FA0300151800
:103D7000091505F0FFF3020B09F2FD06DB130A0239
:103D800001F50A19F8080BE323F704FD0C0A0F23C9
:103D9000010203FD0B14EEEE13D00415EA0B04FC34
:103DA000030112E0F3FC06EB0107D6F7EE09E0F0A1
:103DB000D6E614E4EEE1EE090EF019EDF0D6FDE4DE
:103DC000240B1C0EEFFB00041714F4FFEDF6E00CBF
:103DD000F3EA222816FBF0F4F4F802EA000FF50AE1
:103DE0002CF416ECFF0CF7F203010027D2EDF908D2
:103DF000EAD9201A1DD50B01DF06EEF7EA1B21F5E3
:103E0000EBE822EFF839050009F918F3F2FC041584
:103E1000CBF211E308D900FD0ADB0505F70BF3FD32
:103E200002E822EAE9F5EFFB2A011013150806154E
:103E3000D9F4EFE20D2612F800E80BEBDE18EA17D2
:103E4000F3FF1B1CF40C26F2F709D006FC0EFCE66F
:103E5000ECFCF005C4F0EF27FE0EFA1DF9EBEE0DB9
:103E600021F607F5F9060007F0280E0728110408C7
:103E7000F8EBD61A05FE0103F7FFCB32FE26170832
:103E800055F101F002FB0CCF0EF80B2312F32A259B
:103E9000FBE9011501102DD9E002FF27F23C51D1B9
:103EA000EFD90F27FE260AF01FE116FF21EB13378B
:103EB000F6FA0DFE03ED1402FDEB262A13F1071F9F
:103EC000EBECFFEBF726F3F72AF9E710F7150109FA
:103ED000DDEFFCF90D120112FAF22DF7FADFFE1AEE
:103EE000F43F1B0604D70C06E51409E0F906DDC80B
:103EF000F6320118DE160520EEE8F62BF7FA04F08C
:103F0000FEF1F4C5FB12E9F1E6F42B1732FF0BCCFE
:103F1000F307BFFBEAC4F906F6C9D214F5FA10F4A8
:103F200012E0D9ABEDEE15E5F9F2FB021ADA310732
:103F300007F0EFD4D0035AEBEFE8D323F2140CD3FD
:103F4000F9BFF5DFF00B2CEF0EE307090DF00C1EA7
:103F5000F1F51109F92813F5FDF0EA321CE1ECF84E
:103F6000E2F5F0060514F8F6130AF517E70DECFC78
:103F7000D8F9FE080E17EB21152510EFFCDAFEFD2F
:103F8000E2260B0E00E7F3F9E4FC13F52D05D1D57D
:103F9000F20C0600D3151E190AFA12FFFB2E04EFCD
:103FA000031DE2FF0903F4E8E8F4562D1BDCFBDEF9
:103FB000F0EACED4D2EF0FF10CDBFAFF070E1AF2C3
:103FC00015F5D5B5D7E010FFEF1B370A16E60D0340
:103FD000F2DC0FCEE3FD14EC1DCCF9090FF6CED5C3
:103FE0003CF8EA02DF1844F22CFB10EF1114FE2714
:103FF000FE0841F9051FFDF4F8F315FE1EE2FAF282
:10400000E7F7F5260C25F8E62DDBE8F4E312F9EEE8
:10401000DE1D1714052CFB140D342FDEEEE8000D09
:10402000DE2411251C00E000F002F208F9F8F30488
:10403000131CEAFEF0ECECE105E7F5E3070BEF17E4
:10404000EBF00604FCEB0C06EA0AD908FBF3E806E1
:104050000808FFF4190ADF0619CFECF3270BF61452
:1040600012F60AEEFF03110CE601F31F0CDFF9E56F
:1040700023F901E8F302EB0911DBEC1206FBDEF297
:104080000AE1031A0B0B2EFCFC10F31C17EEFDF2D9
:104090002A031C00FE0AD4FFEDEDEA12FA1FEEE23D
:1040A00006FA001E03E9FD13F90BFD03EAEF1BEF0F
:1040B00007FD0CF5F2F5121022E9EDEAF00D00D63D
:1040C000F2EF11FDF7E701E3F6F9F203DBEAFCF6A4
:1040D0000005E20BF5D7F5DDFAF3EFE6FCDAE10ACD
:1040E000D4DFF3F8F9EA0608FAEF0F0A060B0E0719
:1040F0001807E8000BE50FF917ED17031805E20D97
:10410000F3E1F109FC0B1704FAECF223E9F7F2FBF7
:1041100054FB05E0F5EF0DEFDBE5F008EF37E01AB3
:10412000C7D0EE03F815340810E1EC0FE6FAEE13F1
:104130004D1229DCEE1604FCFB0CECEFFF3DE8FC15
:10414000E2D8F500F4153A0F0C15F90CE72E0A1C0D
:10415000241E44EFF3390823172E02CAF905E5D4CB
:10416000F7F2F820F10E08F0F807F80CF1E204E796
:10417000F0F4F809FCFCF5F8FCEFF2E7F410FFF5B9
:10418000E615FAFAF6F3F00FFE011F0B03E505FB47
:104190000403F81CF6EFF3DD0EE6DCE5FBE6F00ABF
:1041A000F8E70A15F90FF4EEF804F413F9D8FDEA6C
:1041B0002006FE1D00F616F2DADACFFBD5FD050D5E
:1041C000E8E613FEF700210BF026C6FFE2E9FD0743
:1041D00054FE04EBFD0C1112F7FEE8E20929E9DDBB
:1041E000F5EF0BE20F22210CF20CE406162BE61879
:1041F0002D1A18D1FB211E18EAFFFBEA0615EBFB6E
:10420000DFFFE2F70521160913FFF7061110F0E8AA
:10421000F5E1F50BF3F6FBEEFAFCF6D9FF0C110510
:10422000120CFAF8F3F6060D0AE41E25F211F1F568
:104230000CF1F703F0F7EAEF0905E9DB00F7F7F215
:10424000E4FD0D14F5EFF805F92007150814F5EC59
:10425000F6F0F91C1A02F81EF70DEAE7E1EB04E5A7
:10426000150A15F101FFED0DE531EBEBF5FE0BFF46
:104270002102F7EE12F7FA13EE05F5E303EB11E373
:104280002A0813F31EFDED14E40EE1F20DF4FC1107
:104290001F1105E11A270CFBDBFB0610FBEFF8F3FF
:1042A00022FCF9E22304EB020F0510021011FEF4C8
:1042B000F7E1010BF6040203F70A07E2FCFA0EF33A
:1042C000F4FBFE0101FB14131BFC0C05FF020AF4B6
:1042D00017EE01F81113E407200D040608DFE5F2DC
:1042E00009060605F8F01C0810FA0B0D06F8FEF595
:1042F00001F2011B1C0AEE0C1C06FA09ECFEFC0183
:104300000AFF09FCFFFAEE13F6101FE802EC0AFEA2
:10431000EEF6F710060C0602F8FEF50B100D160867
:10432000F8E112FA17EFEB14ECF510EB02DEFD19D1
:10433000FE00E8DFF3F300E70104F80DFC0BFE00DC
:10434000FCEBFD1329F0DDFFE814FBF2F3EEF6DFE2
:10435000EDF2EBF2F2EFEAFD18FCFBE8FDE902F901
:104360000B1303FA13F708FEEEF400FF020203EC4E
:10437000EF0E020206F7EC1302F00EED08091E0A1A
:10438000EF0C0D0D08FFF506ECFF16E70FF6FEFA31
:10439000F113011FFFF3F90CE9EEF1FA0E10031E01
:1043A000E1FA0110F605F70BECF50C07FBEEF10353
:1043B000F80BF31EFB04FB0203ED0FE91205FA12E2
:1043C000E1E6F313F60CF106E1FA0D05E30AE9EC78
:1043D0000806EEFA071CFCFDECEBEBF20F30FCF8E4
:1043E000DFF0060AF41213F90019FD09FAE903EBEC
:1043F00005FF020410ECFB1017090AF6F3D0070CB6
:10440000EEFD0EF403051402F5FA101BF408FDECA2
:10441000F7010A0911120019FC060DCE09F5111059
:10442000C7F90E170A10F601F7E22007050CF7ECA2
:10443000EA03F827FD0C131BF5F20AF113ECF2085E
:10444000D9F300F9032004DEEBFD17050C08EA019F
:10445000F6FEE91FF3ED0B0712D303F107E1DDEFE1
:10446000D5CDEE16FC1516F9E0E40803F102EFF7DE
:10447000F8F0E8FD170BFD0407DAFDE21613F7E884
:1044800025D0FBFFF5FB10051DF801280EDDF7E731
:10449000020CEE01F9FDE9FE090302BFFBF0100278
:1044A000D1010313F5ED17E8071E08FBDEF1F1E279
:1044B000E1FBF6FFE430EF0BF1050EC3F2E904F780
:1044C000161BF913000CFAE2F9100C00E8FC01EAE3
:1044D000EFE2F110D33FFB2400E90BE0F320FAFEFA
:1044E000083EF5F8010900EEF9DBFF1AFDE504F9D5
:1044F00009DEFE0BDC140818FBCAFCEA00FC11F60E
:10450000E820EBFCFB160D00F0FE211CF6F80C0871
:1045100007E905FEF703101E11E7F5E41910F3EDA6
:1045200016D4E403ED0E21181328FA030EF003D578
:10453000200E0AF1F412F80310F70CE0FC06052631
:104540001D13F60E00E213F4FA4424E1F502F4E739
:10455000F31408E8CDEEEA08EAE245E7FBD4FF628F
:104560004C3AE6080004FFF6F03B0EF7D805F6E5F6
:104570000C04F102E0FE0B1E12E018D1DA06F5265B
:104580000120E01803FB0DF00AF8ED0DE6DB02DC7C
:1045900005E10402E40E262007D4F3E1F11E08FA37
:1045A000C8F1E00E06EA2BE909E32411F7D205F67B
:1045B0000DE512DBE4F4171909EBE4F2FD3407FE14
:1045C000DCE3E21A01071B070D2610F702111DDEBE
:1045D00012FA16E9090E1CF11809FBF4E6EE0710B1
:1045E00013000C03050505F0F91724DD121B0FEA73
:1045F000F6F6F2E1F7EAFAEFE7FA23FAEBD80F2D35
:1046000003F903E4110BF8F9F9E7140FF41712E1B9
:10461000E1F9E301F902F8F115070AE4E1F41709F9
:10462000D4E2F8EF10E51E010DEE2703F20C05D7DA
:10463000F5F6FB010304240214030CE7FA2EF7E756
:1046400007E2020D0CEA18F715E53EF707F0FFF94F
:104650001A0609EB010834010EF015EAF43D32F5B3
:10466000E2DEFB2210EEFD030CD8EAF4D011D8ED07
:10467000FF1FFCF8F9EFFEE8FBE3F7D6051DE7E0C6
:104680000D000414F8FDE00C12DE03F4EC030FFF40
:104690001BF711FFF71505E5E3FAD7CEE41903E997
:1046A000C9FC0135FE18EBEB04AF04CAF00A261072
:1046B0000BF51CE0F60FFBE000FDD2E3D83502D786
:1046C000BCD4F72F0435DBDF13CD0AE1E800243535
:1046D00016FF0707F227F4EB05F3DAF2E90F1DDB0B
:1046E000D5EEF230022BEEF304FE0903F719223F58
:1046F00014FD04FFF606F7F201E8F100F93A1E0393
:10470000E4F0F521081E121413120D2206F4D2FC57
:10471000161615053717FD0410080D002004DB00E0
:1047200022F70809F5FCF9141102ECFAE8F0F8DABE
:1047300013020E06060722F7E501F30AF518FAE35D
:10474000F4F30AFBF422FDEA18E20FE60C0941DE5D
:104750000DF31000F60612F9FCEE01F9E75A10CE3F
:10476000BDC3060D0310F3ED1FCF10EBF9F73E129A
:1047700014F51DF8F715EDF310EE01DAEE38F9C671
:10478000EAC1F608FE2DE1CD0DE313F2E9F7182298
:1047900027F10913C329F1E0F1061AE7D705F8025A
:1047A000D3D5FA26052FE3E40229051FFA00E50E0A
:1047B000F40EFB1D2201F304FBFDF800142AFD2278
:1047C000220C010DF6EF0521072EE2F8EC02F802AB
:1047D000E60805FE05191AF7E3FBFEFF0905DFFDF4
:1047E00004F311FFFC040BFEFEFA08EEF40A17E3D3
:1047F00026E9FCF3090607F5F8EEF200FA2FF2D8E5
:1048000010D807E2FD140C0805DC0EE1EAE614E915
:104810002EEDEEF2EB0418F811CFEDD2E84BF1C615
:10482000DBD5F3F6F12608EB0CF11FDCEDEB1AF803
:104830001DFD0D160048FDF2E60604EFD54619DB16
:10484000E7EFFD0FFA27FCE4F1FBEB10F3E3E916C9
:104850001102150202F60F09EB15F7EA1113150BF9
:10486000F5F9060509F4F10A0009D3F4EFECE610B6
:104870000C0D13FF0D0D11FDD805020A09F7F1F912
:104880000EEF11E504120E0DE6FE0CEE07FB020220
:104890000500F8FAE4F42FFBECF1F3FDFEF7E2DBA0
:1048A00004E20EFAED11F933E8EADAEEEFDAF1E8B4
:1048B0000FFCF4FEFDFE180A07DCE4E3FC1DFAC55C
:1048C000E6E1FFE7F50C0114ECF01601FF0503CE5D
:1048D0001F0C030800EA0B21EFE610EAE01D02E1DD
:1048E000F2E30EEEFB1BF40CFEFEE8F10FD9E42E12
:1048F0000C0AEE013AE21510F40DEDE4061AFBFD88
:10490000190A13F704F4F309FD0BEDFD06D6EC11BB
:1049100010F6F9F313F10301ECFBE71B1DF1EF04B3
:10492000F603160002FD18FCEBFAF00016FA091067
:104930001005E1FDF40203FE16F3E1220902F3077C
:10494000210A0AF3F3FB0C35DCFDEC11F0D8DC0096
:1049500000F8F7FC0FFEF22821F3E5211124E7FC13
:1049600034F9F809F7041B0AE0080BFDFCFAF2D948
:1049700004030C2813EAE62406E700110D32F705BC
:1049800029F801FB09030E2105F7F604F12FCFEBFF
:10499000F1E6F121F9F6FAE00DF505FFFEC216EC9D
:1049A000E1F307F2FBE8052517F4E5160A22C4F443
:1049B00007E5F21012E710EDFB01FDF6FBF1E9F05F
:1049C000E5E100F7F6FCF61015FD000B0FFF0DE713
:1049D000F1F20CEC0DB00D0114FEF00601F8E8E761
:1049E000FBF00417F8091F15F61B1900250917E03D
:1049F0001F130DEDE2CEFA2927DFF025F603F003B1
:104A000001C9E6F7FC102EFCDC09212D083E022826
:104A1000FD291506E7310826D1180D1A131B03EDE1
:104A200014E613EA0B04FBFF0DD6F51109F5E7E7D1
:104A300000F6F61CE829F2DD09F61AF0F5EB190F7D
:104A400008170610F9DA040E17E0F2F8F6F3D8EFBB
:104A500004FBD914FEFB11E2E40201F4F2F307F5C2
:104A6000F20407FEEF05E9080FCEF70A0AD40BDCC3
:104A700000E9F9FBE4C7FFF607F6DCFDDBCA09CA6B
:104A8000E9DF0A02EC050EFFEAE6150604DE15E48E
:104A9000EF06EDE8D1AFE4FA25DDD22FF3C3DDF068
:104AA000E6BCE5E5071825E0EC2C182B1A07FE1EDE
:104AB000050810F7F115DF05F2F01F1F06F5F9F0F4
:104AC000FBC80C1E24ECFDFC1DFAED180103FC0DC7
:104AD000220713F4F238EF001F2525F61803070C00
:104AE0001436F210FC01F7FB1A031EFBED0F16162D
:104AF000F607F2F903F91EFA0A2B24E30CFAFBF687
:104B00001B230DF5FC15F1FE09D50AF412FC1A0160
:104B100003E510E3F3D9131013F7F00A000424B1EE
:104B2000010D0CF4F91C1E0BD9DD211023F724F123
:104B30000104FAD7EAC9DE0E1DCEC6321AE9F3E443
:104B4000E0E1DECE05121A07E4F63C2B37F809192E
:104B500008E309E7F4F7F9FA09D41F1128F3E8DDAF
:104B6000FBEBF20506F805F10903E3F400FBFD0E8B
:104B7000F1FB05E70204F5ED1016FF0310F6F31143
:104B8000F31BF81411EBEEE70AFC1AFFF9FC111005
:104B9000F0FEECEBFEEF0BFB1AFEE7D9F5EDFEF5B0
:104BA000000006F01716F60C12E1060711F102FDDF
:104BB00007090AD316DF0B010CD0CDFF02F706D789
:104BC000E2E805E20D110319EAD32E1BF7D813E82A
:104BD000040D06F2FAD1F70FFBD5C12210F2F1F461
:104BE000D9DED9CF0C0C17F4FFEE192712E81EFD01
:104BF00029FF05FDE8F9050302CF0DED1FF1FFE6E2
:104C0000EBEDF0DCFC2A0FEBF7FEF503F1021F0BD6
:104C1000F5F105FEEA2D12E4060701160FE9E52479
:104C2000FA0F04ED0E0F05F204FC0601E9050B0274
:104C3000E7F3F819001507F61AE401FFF5E214117D
:104C4000FC1F11ED0037F51615FFED0C15F61BFFD7
:104C5000FF0804040CF5EBF910CCF2FCFE0EFFF398
:104C6000F20F0CDDF410F01CFFFA1B0302F7FC142A
:104C7000F00C0EFF19FAE909E9D2D61D09F90F0265
:104C8000ECEFF3E5F50014090826050BF4FB101210
:104C90000021FDFC0C2E0219FDE312E1F72400F0C7
:104CA000FDEFFD04FD1412F1FA150E1A0EECEE0DD7
:104CB000DD07F2FC2EC307F0FDE6E4F6FAE61A1D66
:104CC0001808F6DDEC091E07F90AED2307EAECECFB
:104CD000CB19FA0114C3E0FDF406E9D3F7BE1A3785
:104CE0002C0CF3FFF0F3EC30E7211A1509E3EEF09A
:104CF000E40CF9FFFECF03080114FCDB0CF729409C
:104D000002EF050CF9E81A39E3012F0216E4EC046E
:104D1000F90910F912ED0BF717FFEDD81908061174
:104D2000F1D0100CFFE00112F8E701EDE3C6060B2D
:104D30001004180114EA31F802EAF0FA12EE11F741
:104D4000E2CF050A0ED9F0F3F40F16280FF60A1376
:104D5000F805F6E314C117FFE5F6F506F116F8FFBE
:104D6000031E06F6F2021FFFFF0ACE17E1FBE9FC65
:104D7000D203FDEEF3C7FBF40609F6E00DD50F11E3
:104D8000F1ECF5D7F5DEF10DF3DFF011E9EAEBF028
:104D9000C9F6FFE604D8F7040910E0DDFDE112FBD7
:104DA000FFD00FF1F7EAFCFBF3F71BF7ECE5DDF9B9
:104DB000DBFC04E001E307FB0D13EAE31113F0DF72
:104DC000E9D11007FFEEEF00FD0114EEECE8FA0464
:104DD0000D0C0DF41AD61AF7F9F5FEFE1F1208E3B2
:104DE000E9E40F1902F2EDFB0AC2581717F0430469
:104DF0001A1AF3FC150008F9DEF10E27E458F7261D
:104E000003FCFF2AEF2411EA0BD20303FCEF1EFB85
:104E100011F80F0511F6FBF3061013FCFF16FD0445
:104E2000E9CFFC170311F3F1F9F3E903D8DF04E844
:104E3000E2050F12F4EBFEFBFEEF09DCFBC30B0AED
:104E4000BCE214140914F4F0FBFF0005E4E3D7E41A
:104E5000E414F51404E2FEEFF8F71AF10AF2E5247F
:104E600006ED07F30CFEE4FE00030912FCF5F2E583
:104E7000FD14FC1B37CC21F11EE225F11D0AFF2990
:104E8000280EF7EE0401ED1F1BFD2AF711E346F88B
:104E900023E704F206071AEDE3F1E606012601EB2B
:104EA0000108120E022307FE1FD90BF70FF437FA81
:104EB00035FE04E4F20616EA02FDFFEC042F17C0EB
:104EC000DE040D2C0A1FFA050BFAEEE2E9FB14F4DE
:104ED0000C041603090A1BF8EBE6160DF30C0BED98
:104EE000E4071907120EF3E7F713F60CE5F4E0F008
:104EF000E910F91B0BF9F001F0EA14FA05C30A20D6
:104F000006100DE806FDEE0AF602F41A0BEFE7E3D1
:104F1000E603FA1415FD0A1920E9FEF31A0E16032A
:104F20001807F4E3FDF6131F21F3EBECE8DF14FDA3
:104F300015FCFB1D231903FDE913F0FB011305FC10
:104F40001F1F1D0E1703F4F10E0520EB10FB320A94
:104F50001EFDDFEFF50A07FDEE01040AFA1D1DFC38
:104F600005100B231114F70F020005E502FF2804BA
:104F70001D0EFAEBF90C0F03F4F80611ED01FDF12B
:104F8000140B031C1A0610DE0101FB0803F2DD05F9
:104F9000001D0000F9F00DFEF2F20910F7E7EE0B2C
:104FA00008F2E7FB0616F3F2F9E7EB2BFBDAECF37A
:104FB000FC0D0A25060BF60807F7F503FEF61102AD
:104FC00001F2E62AF5FA090B3732222BDB23EB0A32
:104FD00023CBB4070EFF5C140F0A0301ECF505EEBA
:104FE000F7FFFCF5FBEDE6F10D050107061001ECFE
:104FF000032300FE080CD7FBEC040603FD00E4F3DA
:105000000610FCFC01081102FCF6F7F503FEFCF7A4
:10501000EBF6EE02FAEE1B050205FBFDFCFEF011BD
:1050200001EFF3F4FFEE0A0607FCFF0701FC07F8A7
:1050300000040CFCFBF308EF00EAFE050C1403FA75
:10504000040A1004FDF900F1EFFF0E190203F1F557
:1050500001FCFEF2FE050CFE05F308FFFC00FA0C55
:10506000FDEAEC07030B080606020A07FBFAFA1230
:10507000FEE90201F4F7FDFE00FDF704F0FDF9E999
:10508000F6F8FFE6FD091EF0F5F3F7F5F20505F772
:10509000F0010AFBEEF21FFAFF0105F90102EF032E
:1050A000080102FDFC03FA0717F6FAFDF7F7DA0E1E
:1050B000FD09F6FD110DFA0C160808FA0909FA0D9A
:1050C000FFF50CFEFCFDFE1102F8F1FEF7F6F7ED20
:1050D00002F506FBFB081C02E90CEDF4DF02F8EF19
:1050E000FDF1FF17EE091702F712EFE3110915069C
:1050F0000D030D20FC00F90AFEFEF6FBFCFB08FF89
:10510000FFF7EC0B0104F601FFFAE8FFFAFE0B06CD
:1051100007F70208FAF8ED0B06F605FB00F212F5A8
:105120000D0503F90006EB04020CF203F200F6FA97
:105130000A00EB110313EDFE0D15F6F5FBEEF60676
:105140001901ED0002F5DCF30BE804F0FDE40001C9
:10515000F7FAFDFF06F5ED0305FAF910EAEDF5ECB7
:1051600006FEFFF41803E5FEF1EEFEFD05F4F8FC83
:10517000E9010513E20CFBFCFF0AFF0D02FCF4063B
:10518000FD020D05EEFD020104140D0816FAFD08DE
:10519000F4F6E40CF4FB05F4FA0D01EFE0F514F27B
:1051A000F7FAF5FFF8FEF3F6FF1FF415E0FEF2FF45
:1051B000000BFFFFF310F6F8F614FE0103F9EFFF02
:1051C000F4FCF2F0ECFFFEFCFD0B1006F4F503001E
:1051D00002FFFEEEEBFC05F70C100715090DFC02B3
:1051E0000400EBEFFD02F6E8F60703F103F5010119
:1051F00005F800F90300FD02001FFB070006F3F9A4
:105200000BF1FFF3020DFE0819FAFFF0FD0703EBA7
:105210000A00F20D110700F90E0AFFFAF8F2FAF08F
:1052200004E6F5FBFFF20F0A1AFFE5EA0617F0F2B3
:10523000FFF4E6EBFDFB01F7F3F7F7F400FAFDFAF4
:10524000F7FEF6FDF305FC04FE01FD01FDF306FB90
:1052500003EEF5FAEDFEF30C04F617F8E90F0AFD7C
:105260001204FB02050A01F00FF20221FBFC05F516
:10527000EDFC060510F2140C06F2E8E3F50110FA55
:105280000BF8E707F7FA0714EDFDF9ED02F80FF94F
:10529000FB02F5F5FAFC04F9FFFC0FFEFDFE07F733
:1052A000F0FAFCED05FA060C0EFEFDFF1103F5FB0E
:1052B00019040FF9080701ED09E0131106040802AB
:1052C000FB1D1CF70E0EF3FD05F7ECEF04F400FCDC
:1052D000FE0E090509E4F108F80BF0DE08FDFE04F6
:1052E00008ECFFF5EDF2FFF2FBFD19F00C0D0E16C8
:1052F00006FC01F403F103F2F4FB1704F303EA13D1
:1053000008FDE309F4EBF4EEF1F708FA01FBEB0713
:10531000FE0103F7F01BF5ED080000FFFEF7E4E7E0
:10532000E802F9FBEC01E5F10208F3FFFF03EBFAF9
:10533000F609040FF10CF4F6FAF102000500FEEE96
:1053400004F8FD0401F7FF10F8140B070CFCDE0B4A
:10535000EBFAF7F4EED9070EF2FFF50404FBEB02CB
:10536000F909FBF7141F11EEF2FFFA01FAF2EBF55F
:10537000FA0308FC051A02EE0013000403F802F613
:10538000FA0D07FD0310F9F509F513F7FAFB02FF13
:10539000FFF8F60D07F7F4FE00180AF90D0D0E13CD
:1053A000FA00EDF20AEB0FFFF5FD15000117DB0126
:1053B00003F7000D0A0D1FE3FDFF09FEF8F5F5FAEE
:1053C000FBEF0FEC000B070C060D00F4F8F3FEFDED
:1053D000FBFFF6FA04060008F8F90AFBFAFEE9FCFE
:1053E000FCF30310FF1005FDF409FBFE0BF00D0F9D
:1053F00007F400FCEEF7F904E7FAFA06EDFB0D09F5
:10540000FFFB0304F91005F8FA030501FA040EFC8A
:105410000E0202F60D170703050B03F3FC090CFA45
:10542000F9FEF5FD00FA02FE1708FCF3FFF904F798
:105430000409F8FDF805F4F2F1F3FF030E01F70497
:10544000FEF8FE12FBFB0AFCFEF80C1EF61101F63C
:10545000FFF1EF1106FDFC0001F30002F203FCEE88
:1054600006F4090CF4030D05FAFCF902EF0BF9033D
:10547000F9FE0C00F7150109180D0BFEEE02FDFFF9
:10548000F2F3F202FF00FE13F8FDF706ECF7FBFB68
:10549000FCF7EFFCFC03FD0E0B030106EC0CF7F030
:1054A000F40104FAF90603FB00F2FE14F4FEE3F142
:1054B000F6060EEF01E904FEFB000305040CEC0107
:1054C00006FEFF01F902FEE9000003080001EC11ED
:1054D000F0F9F4FE0501FAF106F80305F2F5FE0312
:1054E000FF07FE0DF3040615EEFF09F9F402F4F7C9
:1054F000FA010A05F4FB05FFEEF1F313010AEB01D3
:10550000F808FEFBF3F80900EFF5F700060DFC0ABA
:1055100000ED000FF1FD0FF9F7F8FDFB0205F811A2
:10552000FB01F503F60A08040BFF04F4F6F509FF86
:1055300002FAFD10020EF102000008FDECF00DFF72
:10554000F20208040D05020E07E60B02FFF3FB0250
:10555000F701F7FDFAFE13FEE60008ED0E02F80271
:10556000F3F0FF02F4F82009E9FD0F13EA0219FC39
:10557000FFF00A08EE0417080408F7F4F90215FC16
:1055800003F3F3F6F4FEF3EC0B05F808FE0E0DFB47
:1055900008FEF6F0FCFE07F90CF3FB0A0B120A06F4
:1055A0000CF7F4110F030D07E6F310F812F70108DA
:1055B000F9FD04060BED0A06FCF60D05F0FE20FED3
:1055C000F5FEFC0FE2FB0D11F209FC0AE2F210EF0E
:1055D00000F5F8DBFB09DCFAF80B0312F5FAFFF82B
:1055E00005F600F7F904ECF9FF10FBF8FDF6F9FBFE
:1055F00009FEF1F50208F7EE1007F3FF000AF4F4D4
:105600000D15EC0708EFFAF70F090BF9EFFCF5DEC3
:10561000FB00ED09F1E4F600F30D13F9F6F6FCF8E2
:1056200004F9F112120AE5F7F2030714FB01F60A76
:10563000FDF0FF020EEEFEFDFE05080CF907F70E69
:1056400001F40207F404FAF9EBFD0F00F2F7F5F5A7
:1056500003F900FCEAF102F8E70B0F06080204F96F
:1056600005FEFCF3F3EFFD09F7FB03FBFCFFF7F985
:1056700003E3FF00F7060906F3FEFB0A0004F7FD4B
:105680000CEFFDFB02FD0D02FBFAFE07F809050514
:10569000FEF1FA00F7EB090DF3ED0204FEF702F458
:1056A00004EB0F02F400FEEFFF0BF9021BF01000F9
:1056B00016EEFEF8EDF0FA17F4EC05E8F1FDF80748
:1056C000FFFAFFE4FA000BECFFF208F8FD0BFCF820
:1056D00002F1F807030812ECFAEF03E7FAF5F1F923
:1056E000F4140300F7E114F5F0F205FBEDF6ECF528
:1056F000F61104EEFCFBF4FAF3F5FCF801E40707FD
:10570000F91001F90203011319F60CF310020B074B
:1057100001FE0508F7F900031BFEF5FD020817045A
:10572000F9F9FDFB060103FF0C0803F1FE00F90186
:105730000809121A0A0D01F91102F3FE11EDF9F927
:1057400000FC06FDFBF7F4F307F5FEF505FF0FF48B
:10575000E807F300FF1804EBFC1B10F7FE05F9F552
:10576000EDFAF921020609F10F0BF0FDE60DF9053E
:10577000F1F40DF7F9FF03F60812FEF20000FBFE4C
:105780000F06FC0FEE17FEF71408EBF000F80BE421
:105790000BF802FEF506EEF5FF04F0F9020BF1E658
:1057A0000B03ECFFF20EFAF8FCF003060DFC0909FE
:1057B00003F2F3F50D0500FC0904F30AFFEDFFFB0E
:1057C000FAF4F2E9FFEDFE021326F8EE0BFEF9F40F
:1057D0000EF9EEFF060304F4FBEC03080404EAFBF5
:1057E000ECFE0AFFFDF903FE09E9030D14FD13EEBB
:1057F000E3F4FCFA07FEEEF802F304030A00FF0FDD
:1058000005F8FB020E1204FF05040D02FFF5FE145D
:10581000100C03FBF0010A03090D03F2120807FF45
:1058200008FDEA07E4F90813EDF40203F7FF0D029F
:1058300009F7FCEEED00FAFF00F20510F2E9F2E3E1
:10584000F4FE11F5FF1C150601FE0501F606110810
:10585000FEF0F500FAFFFEEE060100FBFD05FD017E
:1058600009F0F4F3F3F9F5F5041A05FBFC01FA026B
:105870000D02EBF7F4F9E8E6051CF8F10AE9F9087E
:105880001423FCF4EDF0EBF0FCF9F00A0909E80050
:10589000FC08FFFB010F08E6E9000201EF03071017
:1058A000F201F7F9F6EA08FCFAEEF2F9ED03F60474
:1058B0000DFCFEFEF6E8FFEE03F0F902FE07F40130
:1058C000FDE0FA0201E1FAE8FE0FF3FA0BFA090231
:1058D0001A0E0109EFEAF5F005FA04030F20001192
:1058E0000200032005F8F00DFFF30700F8F4EEFEC8
:1058F000EAF508F5FBEFFE07F7EAFCF6FAF8FC011B
:10590000080419FA0DFDF801F6E7FBFBF6F3FE13A8
:10591000F5F90A09F3EDFC0401FA0501F8F90804A8
:10592000F502030EFDF1EE0EFAFC18F5FC01F3F89A
:10593000F90D02021E01EE20EEF1180605FEE80246
:10594000EBFF08E9FD15FBFBF8F707F7F3F4EFF3BE
:10595000FE051506050AF4F0FF1D1503F9E104E73D
:10596000FA12F80AF9FEF2ED031A210A00F605F51B
:10597000ECFCF7F20AF0F40615030AF2EC04E30C6F
:10598000F809011DF3FC09F4ECF6FFFA1207F0FF29
:10599000E70EF601EA0608F6E5F3F8F502FF010D59
:1059A000F1FF0FFB0803F803FD070602FDEE11F1FE
:1059B000F7EB000012F0EAF7F7F709F0F4EF19F54A
:1059C000F1F70BEB15F2F707F4E8F9FBFE000B1B00
:1059D000F4001911020817FA0D00F608F403E70A9B
:1059E0000C02E305FAEE1006F702FF11F7FF000EB6
:1059F000FEFFFEF600F0EDF10612F41305F62BFFA4
:105A00000406F8FA12F506F4060511DEEFFDFAEFCA
:105A1000FC04FF030C05290AF0F0F108FAF8E5068A
:105A2000F2F2F5F3F6160B0204FBF9FEF5F6ED00C3
:105A30000EF8F6FFFFF90A06ECF5F80DFEEF02F599
:105A4000F8040105F6EE03F7FFF6F3FC0F020B086E
:105A5000F50400EF130003EE10F601F2FBFDF6076C
:105A6000F500F705FCFF1004FEE80609EEEAFBF777
:105A700001F7FDF2F9FDF01225F90100FDFCFF022E
:105A80000CF9FDF504010BF7FF1005180A06FB01E0
:105A9000FF06F6F5F9FF06030CFF0205EFFF060D02
:105AA00008FCF5E800FE0001100A1106FAFC08FFE8
:105AB00010F8F6FAFBF70E01EAF30601F5EE010421
:105AC0000AFF00FFE7FCFAF8FE05FE140901EE16D6
:105AD000F7F80BE7010505F40705F10FFC0F0103CB
:105AE00000EF01EBF5FC0406FC04FEF4EEFDF70309
:105AF000F6E9F8F2FFF20EF904F9FC04EDF2F3F71F
:105B0000FE0001FEF5FB08010FFAFEFFF3F4F712A9
:105B1000FEF8FF00080CFCF8E9F80006FCF8FC2091
:105B2000E4FD01F706E8F8F50C16070106FC010B89
:105B300003FAFAEA0E010EFD0106F5FFF8F7FF0081
:105B4000FEF2F3F909FC09F10C0DEA06FFEBFEE7A2
:105B500009F9F3F5100904140CF8E70C00FAF40E37
:105B6000060109FC0104FDFEEBF90DFFF30305FF3F
:105B7000F502F0F1FADD03F5000B2FFFF30307F157
:105B8000FEFFF7E706F4F6F1FA0613FFFCF107F360
:105B900000FC0201040FE8E91216FD0008FF05ED04
:105BA00016010F080C0AFFFBFB0EE112F80AEDEFDD
:105BB0000102FD17FAF807FDFDFE01F2F00CFDF2FF
:105BC0000000F91BFAF1F80DFFE92FEDF10D03FBD1
:105BD00004FCFE0309DEFE0107EA14F200FE1AFBD4
:105BE000EFFCFBFBF90AF0E40DF908F3F40B0001FC
:105BF000F2F30414F70203F2FBFCF601FB20E60CBF
:105C0000F3F7E906FFF605FEFC03E7FBFEFAFB11DE
:105C10001700FA16F71DF807F2FBF701F8F31C015D
:105C200006FB06FFFAEC0FFCFEFBE7FAEDF21FF6AF
:105C3000EF04FAF90CFEF8F9FBF9F4F3F7050104A7
:105C4000FCF3110602FF0303E90CF813FBF9F7114B
:105C5000F8FCFE03FFF3E219EFE70901FF02E1069A
:105C6000FBEBF10201F50414F6EF05FDFE06030C53
:105C700000F50D0C00F7FFF30B00FEEF0500F10837
:105C800005FAFBFD04070D0F05F600F2F6F9F7F72C
:105C900007FCF1F50CF9FE0DE4F9F2FEF810F7FD42
:105CA000F810FC0E01F401F601F9F0F90007E70D18
:105CB00005EFF6FEF51B030BFEFE020A04F5F7FAEC
:105CC00003EE160FFCFEF7F9FE01FBF1FD0BEC02F3
:105CD00006FE04FA0401FE0DF702FBF3060100FDC7
:105CE000100CF3000AEE06F4F20006121EFDEDF0B1
:105CF0000015F1FFFCFC08F61205FEECFAF808F8B6
:105D00001500F0ED0611FCEA18F304F804E50E089E
:105D100005F500F604011510010006E9FBF6E7EFB2
:105D200010F40FF509FE1D0D031502DEFFF501F25B
:105D30000DFFEDF9FDF7F2F2FB1116E8110CF4E995
:105D400000FDF8FDFD05F7E8F007ED05F905FEF5A6
:105D5000F801F611120406FA0709F414F6EE06FE2D
:105D60000400F1FE000F06F8EC06FCFDF9FBF6005E
:105D7000FCEDF6EA04FE1407FCF1FEF9FF0608014B
:105D8000F1F8EFF7F7FF04FD07F708F9F502F7FC64
:105D9000FBEF040FFE18150AFFFEF30907FCE8E706
:105DA000EF060C15060DEE0801FAF708E6F2F7E427
:105DB00006161304FA0DEF05F50CF9EBFEEBFBF9F3
:105DC00015FDEFF5F301F102FAEAFFF8F9FF08FA21
:105DD0000EFDEFFEF61209FAF1F103FBEF0103F6F7
:105DE0000AF9FC1BFFFF1610040409F3FD0307FA70
:105DF000F3D5000315F6FDFE0D02F5F402F5EDF402
:105E0000FBF6EE0F0BFAF6F9FCEF080EFCFCF0F6D1
:105E1000E6EDF5F7F80F0BF5FBEDFC0904080A08B1
:105E20000EF6041002110DF3FE02120C0106030A15
:105E30001204F208FE0D05FDF7EC25F0ED1202F15B
:105E4000EB05FFF703F4F5FE10FE01F4FAFDFDE5A6
:105E5000F6F01016F31610EFF8E9FF07F109FA054E
:105E6000EAFA0F03F9FF1A09FDFAFB080408F5FB2B
:105E700002F207070FFA130E09FB080900020BFCD8
:105E80000FF8FC04FCFCF8FBFBFCECF7FBD8D8ECAF
:105E9000FD3CF0E8FDE7E9ECFC04F6FBFF02EFEE69
:105EA000ED2319E00414FAE7E7F602FE0202010806
:105EB000E7FF0CFAF10BF9EEFB0B0AF613F807F308
:105EC000FAF3FFF80100E9010505030806FA01F9F4
:105ED0000FF9F801FFFEF7FEFA00E7FCF9F3FDFC0D
:105EE000F344E1FAF9E5F607EE0CFF0CF510F414B3
:105EF000F9FCF7070EF2F603F6F7040FEA03FEFFCC
:105F0000E7E60008F4EDF101070C03EB09FD0306D9
:105F1000F0F5FFF800FCFE01FE0901FEF806F4F4BE
:105F2000FCF90006F607FA0502060FFAFEF9F8F981
:105F3000E605E9020BE7F105E608F8F605030416A5
:105F4000F9E200100AF005F9F3F8F8FEF911090E6C
:105F500002E406FE0010080905F603F90109FE0E29
:105F60001CF5FEFA071306F908FE0E09F205FAF809
:105F700016F40501FC060E040301120AFAF8E8FB08
:105F8000FEFCFBF1FCFBFFF9F2F50F0702FEF90244
:105F9000FD0D03F4F5FF0AF7E4020CEEFDF400FC3E
:105FA000EFFAFB0E02F0FFEDF902F0F806FC0EF836
:105FB000F9F1FA0524F801EC0B0501FE09FFFB06D7
:105FC000EBFFF90910FB0D0101F2EF0917F60EFACC
:105FD000FCF3F7F0EBF30FEBFDED031908F2090109
:105FE000F7F40308FDF817FBF3F0F5FAF2F1F60CFD
:105FF000F3FDF613F7EEF5F7F8F9F7F4FDF6FEEA20
:10600000FA0403F603FCFFE906FEF90EFA0E0AEFA6
:10601000F3F3F3F9F5FCFAFB08F41AEA00F709F6D2
:10602000E5F3FC03000BF5FF190018FEFBED1B0D5B
:10603000F1F5012605FD08F805F202EDFA00F82752
:10604000F6F30B0213F51AEEF40004ECFCF6F0F68E
:10605000EF09FAFDF9FFFCED00FF0F04090805FE4A
:10606000FEF4FDF7F2FCFC00F7FD04F9ECFB0C0577
:10607000F30AFD080218F8F6FA06EC0BF1F7150121
:10608000E51BFFF4EF0AFFF6FC10F9090216FD010B
:10609000120A1804FFF8010FF9F7F3FC010AF8F8E7
:1060A000FD0C03F701FDF50D000F0203FA0002FFDE
:1060B0000B160DF3E715FFF90D03F707F105E3FCE8
:1060C000DBF9EEFE0BFE110FF30AEE04EEF8FA0B0D
:1060D000FFFEEF020AFAEB02F50111FCF4F4FC05F5
:1060E00010F71204010806F9FAF9060704FFFF0287
:1060F0000106140AE602FBFD1DFC0C070B05110747
:1061000000F7F30200F5F6F0F1FF09FB0D031001B3
:106110000DFFFF080A04F4F3060509F5F208FD0C6B
:106120000902F40803FEF7F4F5FEF712EA0BF60590
:106130000104F6EC08FFF301F6FCF9FAF404FBF4B1
:106140000CF3E715F6F109FB14FE0EEDF707F4FE6C
:10615000F6FBD90D02FEF007F1F5FAFC0300F1F9A8
:10616000F9F6F5EEFBF7EBF40205F7060BF8F70589
:10617000F503FCF60006EB05081304EE1BE7FA0F27
:10618000FCEFE9F2F9FCF60DF10406FB01EEF8F97B
:1061900002F6FF060AFFFAEA030205F0F5FC000129
:1061A000F6FD17F2FA07E20314F10310EA05F0F91D
:1061B000F8070903ECF8F20404FCF116FFF5FB06FE
:1061C000FB04090C0C07F3160005FD110B06F2FB8E
:1061D00000FDF4F30103181208ED0DF80201ECF5CF
:1061E000FF1A1AF0060105F8F9FE0111EFDF081099
:1061F000E21059E80D08F0FD08100E0FE8F203F068
:10620000F704FA09FF0901F303FCFB14F70510F783
:10621000F600FF100505FBEDF8FCF80B070E27F75D
:106220000EF3F2FB0CFF0DFB02F006F6F217EF0186
:1062300003FEEEF3F8EC12FEED10FF05F40000187B
:10624000EDE60B00F408FDF3F70008F3030A0FFD79
:106250000C02FDFE1303F70F0204FCFD0204F5041B
:10626000FE01FBFB07FAFF04FFFEF8F6F2FA01F865
:106270000BF6F7EF01FDF0F8000F04F30406E90850
:106280000309EDFAFA01F701F50B04F9FDFDFA0631
:10629000F212FAFF00FDFC0404FAF40806EF00F81D
:1062A000FBFDFEF1FAF80804FCEC06FB050000F12A
:1062B000FAFFF6F9F4F60FF9E9DCFBF71313FBF23A
:1062C000F3F515F1EBEBF0060500F6020B10FCF010
:1062D000F5FF06FBF6FEF1F512020501FD05FFFADA
:1062E000020900EF07F006F0F1061402FEEFFE0CC3
:1062F000F7010BE4FC04F507F8FCFE01FEF9010BC5
:106300000400FC01F2FD0D04F7E911F6FBE90104BC
:10631000F8030200FE09100114F408F5FE01FD0661
:10632000F8F80CF304FB050403F607FCFE0A0C0A5C
:10633000FC0022F911070F00F71000F8F4FEFAF93B
:10634000F917F8E7ED0FDFFB030604F701F5FBFA99
:10635000FE0BF8FCE10B00F0FF1EF9F6F7EAF1F78F
:1063600001FEFB1EE90D01020F05FF04EFF5020718
:10637000F70AFE02FBF7F5EFFEFFFE0EFEF9FAFC50
:10638000F40310FFFF02FFEF09E804F4EA01FBE465
:10639000E312F409F507E703FFE4FDF3F9F401EA7A
:1063A000F5F9F101E80DF7ED0D14EEF301EAF7EA66
:1063B000FCE0EA2DF70EFAFDFB1FFCF3F4E8FFFA10
:1063C0000900F5F7FF07FEFDFB0FFFF8F3F0FD00F6
:1063D000FDFAFBFAF8F8F3F71FF80BF8F005F5FCF7
:1063E000071C170D101AEA0B06F3FFFB06F8FEF167
:1063F000F9F8100AFC04E8030FE907F716FB070099
:1064000012E8F40CFC07FC0401E903F4FBFA00FFBA
:106410001FF00A00070B13EEFC000AFCEDFEEE066F
:10642000071003F7FB0A0300F6120208F6F3F1FA6D
:10643000FE01080600FEFDF61706FBFEFF02170030
:1064400002F1F7FDFB0AEC04FCEB05EF2211F6FE6E
:10645000FB02FA06FD02F7F701F2F9EBF9F7FA048D
:10646000F1FA0AF60A070BE6F4F609E804EC0A0763
:10647000070D1808FD11F20BFE01ED09F0F8FAF70F
:10648000F6F8FCFFF8FE08FD0C1A0207FBF5FDF418
:10649000FAFEF209FCFF04FF01FE00FD0BF7E40623
:1064A000F6FFEC03FA000AF7E9ECF502F5F4FBF568
:1064B000E60311E2FEFD090DE9F804F7F8F5FF0225
:1064C000F40010F40001F4F1F3F3E40E09EDF00030
:1064D000FBF402F9FFF9050D1B070914E5EAF9F9C8
:1064E000E9EF01FE0905FA091E1DF613EC0BEDF7A5
:1064F000FCECEF1BFB140404FB0DEF13E2FDE9FEC3
:106500000D01FA03F1E305F3EE1E1522F100F42864
:106510000C01F3F5FCECF800F8F502F8FCF60AFEC5
:10652000FAF203F700FBFC00ECE3F40600FF0AFCC0
:10653000F6F016F20303FC130B00F322F201FCF950
:10654000F1EEF804F90C12130205FA0B00FBF3F25A
:10655000FAFFFCFAF9F70301FC17FA1506FF020A25
:10656000FF07F70306FDF60D1DFF0AF4080DF10203
:10657000010F01FDF8F4ECF1EDF508F7F713FA035C
:10658000FCEBF308F4FBF7FAF9F90F11F30AFCF846
:10659000EAF80A08F90D14100B0201F605FBF3F2F4
:1065A000FBF7FDFBF10807050C0B06FBFD000A04D9
:1065B000F2060303F908F9F7EDF3F3FCFCF9FC012B
:1065C000F5F803160BFCFD1AE3EE03F9020E0502C3
:1065D000040906FA030304F21B15F30402060AFD7C
:1065E0001609FBF012FFEEEF1604F205140AF6FF8F
:1065F0001BF6EE0705F90802FD06F9FBFD0A03F696
:10660000F30C05FDFF030706F9F5F70004F8F0FEAB
:1066100005F1E2FE00F20202F0E90503FDF8E5F300
:10662000F5F5F8FAF2E106F40B00180DFEFEF9E9B3
:10663000E90903F0ECF5E1F7160008FB06EDF2FEC0
:1066400007FCF3F8F1F9F4EF1CF8F8FCF8F6F1F5B3
:10665000FD0414EEFCF501F7F5E100F50B1C08FB59
:10666000FB010F0704FE1513EEEA0809FE0E0BFFEF
:1066700005F90701FEF618F4FDED0B15FF0F1BF9E8
:10668000EC01F1FAF3F6FEF31201FBF902FB00EF65
:106690000809F80C01F8FBF308FE0203FA0204F4FF
:1066A000F4FF0707FE0509030EF7F404F4F0010AEE
:1066B000FD0AEBF7F805060201F60202FE0CEC02F9
:1066C00006F9000EF9FC0DF302F6050EFFFA08F4C8
:1066D000EAF5F4F1FBEFF2F81209EB01F7FDF3EF45
:1066E000FDF404EF050513F40201FFFEF903F004C5
:1066F00003F8FC15010610E40700EE11EFFEFE00A2
:10670000F60511F0F710F7FFFDFBFC05031305106C
:106710000BF611F808FB05FCFFF20CEC1B02FA006B
:10672000EC000F05FCE4EE010A02FBF409F3FDF4B2
:10673000F10919F004FDFCF4FDE9FEF403FE100874
:10674000F900FB080EF90DEBFEEA05FB00F5F1F987
:106750000EE21906011904F103F9F7FB0FF40AFF21
:1067600006F709FE110704E8020BF5E90404F8F244
:10677000F323F9F1F4FA03E9070DFCFD0FFFF7F934
:10678000FD13F4F304F7FFEE05EC06FF0403FC0031
:1067900000E5F006FDFCF90002ED10FFFE05FBF937
:1067A0000DF1070AE410011109FCFA04F9FA0BEEE5
:1067B000EEF30D0AF017F504020BE8F805F00F03ED
:1067C000EA02F7F6EEF0E800001107F408FA080E06
:1067D000F90F0EEE0CEDFBFC04F70FF1040EF911AE
:1067E00001FC0B0F08F509F4F80D01F30908030388
:1067F000FDE7EB05030D100403F01CF5F50502DBC6
:10680000F3FEFF2AF01C06F5F9FFFBFEF6F1150278
:1068100006FCFCF9E7ECD709EEF71607F600FE0FC9
:10682000EEF827F813E711FCFBFA0506F409FEE47D
:10683000F5EF0B08FEF300F100F307FA0A0409076D
:1068400000F906EC01EE020902ECFDF4F00EF4F0A2
:10685000FA15F9F51AF010FFF600E8F9F5EFE5FA88
:1068600003EBF1EBFCEADEFFE5EFF3020003F8F5E2
:1068700008070B0809FB03E60DFD091CF3080FF1DF
:1068800000F2ED00050B0FFD08F3F7FBF9F5F50637
:10689000F90302FC05EE0D071101F0FCFC05EEE525
:1068A00010130909090702000904E3F104F5F208CD
:1068B0000109E8FEFADFDE0BF806FF0316F5F31C0C
:1068C000000BED10040105E7F80E0E02F70606FEB8
:1068D00004F702FA051B06FD0401F80EF8FDEFF6B9
:1068E000F3FCFAF2F508ECFCFB1DF321FDE6FDF8E4
:1068F000F2F6E80CEDF8010C011A1002EB1304009B
:1069000006F9FBFE02030507F6E908E9FDF4FD05BB
:10691000FA0306FC100501ECF3F1E50EFDFFFAFCAD
:10692000011915FBFEFAFD001308001104E6F3F748
:10693000F508FEF9F4FEF109060FFC1705F612FA48
:1069400002F6F9FF03F7FB020904FDE8F7EF0E0D6D
:1069500017F10503F8FBFEFFF6E7EFEE0EEBEF078E
:10696000FDFA09FAF702FBFCF3F3F5FDFAF7FD0176
:1069700012020004FDF1F403FA01060604ED10FE14
:10698000FC1A07EC1AECF324FCF70805F70D0926AE
:10699000FBFF11EB09FA00FC07EB09FBF7F9FA1F03
:1069A000FA0210FEFFF1E3041208F8020A00F105F2
:1069B000EEF4F9E8F5E800F3020A0807FEFA020B24
:1069C0000DFF00F5F5F8F8EFF4EF28FEF0ECFD1000
:1069D000EBF0F4FD0BF5ECF801FBF8E7E50B08EC48
:1069E000FCEF0813F2FF09FB07F3FB07F802F7F6C9
:1069F000ED12FF1FF0FBF80B1006EAFE0FF2F60592
:106A0000F9F9F3FEFBFD0CF50F11ED09090CE50793
:106A1000FDF1ECEEF4F9F4EEE3EBFCEBF7F3FD1A29
:106A2000F4FA00032204FCFCF4F7F802DE01F2E6BB
:106A30000D010F12091119E9F8EFFB030309F5EE37
:106A400001060202FF0203F30007090E08FC080515
:106A5000F6FBFCFF0909130512090E11000313F6DA
:106A6000F9F0EAF1FEF8080AF0F602F0E9F6E406B9
:106A700000EEF10503040C01040204F3F200F9FF37
:106A800003F1F302F5F7F90105FD00F40FFEF60E30
:106A9000FDEBFE11FDF301EA02040E01FF19F6EC15
:106AA000012303F502FE02FCEFEEFA20F5F7F3F303
:106AB000FE1802F9FF050FFFF6F1EEEFF013F007F5
:106AC00013F5F307090107FE010611F2F70FF305AD
:106AD0001402FAFFF9F7E4F300FE0AEF0104F40FE1
:106AE00010F00DFAF704FC0406F9FDFD0003EDFFBC
:106AF00013F9100400FC0F01F003090DFDF5ED0082
:106B000001F112F1F70003EA080DE8FCF6F80A19A2
:106B1000FE09F5031609F7FF100907F901F90BEF54
:106B2000F2F2F4F1FEFFED00EF07F7E91D04F700C4
:106B300004F1E3000AEFFE09F403F4F70722FF185B
:106B40001EECFF1102EE09F5F2020B09080C06FD1E
:106B500000E4FBF0F3FD01EDFB0FF8FCECF807138C
:106B60000BFB0B0509F9F0EB0BECF5F7E3FE0CF86A
:106B7000EF0600FFF703E9F8EDEFF0040A0716F35C
:106B8000E6FDF3F0F5FAED10FC0205030A08030038
:106B9000FEECF20403EBFA0B05F30803F7F711FD23
:106BA000FFFBEAFDF6FD01FFF8FD00030702FF14FD
:106BB000FAF20BF20306F8FBF9F604F2F6FCFCEE2F
:106BC00010F90307F8FEFEE907F2F40B01FAFA01E7
:106BD0000B0D05FC06FCF8F80CF70104ECEB020FBA
:106BE000FA17090207FBFA0E110801F6F7EA030D7E
:106BF000FD09FDF90AFCFF08F9E01DF3EC0200FCB9
:106C0000FE04F110091306F7EF0424F504111DF634
:106C1000E8FC18061304ED0BFC00ECEFF6F203EFB2
:106C2000FBFF06FB16F508FBFCEEF3F4FC12F3F297
:106C3000F7FA0F0107F819F6F6010507FDFEE8FE61
:106C4000FA08071000F5050CEEDFDE01F3F503137B
:106C500006FCF30BFBFA0CFBF3FBF70D040818F82A
:106C6000EFF101F3EFFAED09F4FDF3FF04E8060498
:106C7000FB0102FEDE04EEFDF2F9F207EDFAFDFA89
:106C8000FE0C08F1F203FF01FEFD0C0CFAE7ECFC30
:106C9000FC0AF9EBECFEF2150EFDE305F5EEEE0550
:106CA00004FC0DEDECEE30FB0309F51700E9F2EA08
:106CB00003E204E8EBF001010B02FC0A05EBE7122A
:106CC0000EE5FDF5FCEC0AF61304FB1104FE160BB1
:106CD00000FBFCF7F8FC16011D001712FEF900F589
:106CE000F8F40107FA0803F113F9F5EDF5FAE9F202
:106CF00007F1FBE9F9EAFEFC0C0CF7F2FBF4FBF7F9
:106D00000FEEF8F0F7ECF1EEF905F5FDF909FF08E3
:106D1000FEEEFCF0040BF8F5F609F4F40EFB05FFAB
:106D2000FF08FA04F3F309FE060FF9FB0304FFFA68
:106D3000F9000501060310F81BF40801FA00F6F843
:106D40000A0102F5FE02F7FD06010F02F0F1FFF95C
:106D500007F208FAF5F1F8F4FAFB0403F307F81563
:106D600007FC04060F10F2030110F6F602F9070AF9
:106D7000070EFD0D0408F912090D0CFEFBF9FBFED0
:106D8000F7F4080BF200F10604FE0BFEFBFDFCE538
:106D9000FC0EF805EC0906F9FFFF16FFF50DF6E904
:106DA000FF01F507EB0A08F5F8F41802EEF6F40017
:106DB000F7F301EBF0F204FCEFF6F9F7F9FA070646
:106DC000FDF800FBF900090C01FC08F9FEFB1500B9
:106DD00003FA0FFAF2FA05FD11F60D01FB0B0E0591
:106DE000F311010B080409FFF6F911FDED0B060480
:106DF000F91FF9F30401050CF6E50212E700F3F4BC
:106E0000FA0AF6F80AF811FBEBF5F300FF05FB149C
:106E1000FF0CF8F30001000EF2090001EEFE06FD82
:106E2000F30712F8071C03120FFFF409F608030C0E
:106E3000F6F9FDF402F40DF405FA08F6F404EEFE9A
:106E4000F90303ED07EFF4E90AECED121708E1F19D
:106E500013F4E502FAEAE9F0FA0DF4F9220BE70F70
:106E60000FFEFA05F5F5F3F7ED0DFF0C0C06E5FD49
:106E7000F4F1F918060800F5EB08FAF3F7F9F0F366
:106E80000CF203EF0309F309FE02F7EFFA00FBF03F
:106E900009FD0EFC0903ECF911FAEA0DFEFAF7F808
:106EA00015F6F6FD10F6F3020208F5F900F5F2FE0C
:106EB0000DFDF9020EEAF1040105030602F9F6FCE4
:106EC000FBF0F00BFAFBF6E801F20809E909F6F429
:106ED000F90003F8020D0AF404EDFF12F809FBFBB8
:106EE000FF020519091108F50FFC0003000DFFFF53
:106EF000F4F0F5F611FE050B000CF5F6FC0C000B9A
:106F000005FFF50909F101F5010500F1000E020484
:106F1000FFF9F91D08F10A00F20308F90CFDE80376
:106F20000A00EBEBF3EFDFE21612FAF90DE3DFF5FF
:106F300003FAEFF3F4EEE3E9210DFCF01F11F4087E
:106F40001F0FF7FD0CEFEBED04F60603FD14100A1E
:106F5000FC05050E04F706F2F6FB0405E3F9FDFE59
:106F6000EFEC01F309F71800F90F01FB17FFF4111B
:106F700009EDF9FFFCEEE5F90209FBF802FFFB124F
:106F800001E9FFF7FBF605F905F103ECF105F21A4B
:106F9000F9F7F8F5F4F1FFFE09F80CF5EF06F4F84F
:106FA000F4050C07F0FAFA07FA060C16FD00EFF6E6
:106FB00008F71202060704F8F110FBFE0F0EF703A4
:106FC0000DFB020FF9F605FCF8FAFEFBF902130CB3
:106FD00005F9FA030AF5030FF007FEFFF2FFFC11B3
:106FE0000A04ECFE02F3F1F5DFF7F4F3F9070DF212
:106FF000F31003F7FD0CFDFAF606F9090D0B02027A
:1070000004F5F8F0F603F812EE00FC0E00FB0601A2
:1070100002F0F009F5F60801FDFF1205E908080283
:1070200001EDFC0109FA10FC06FC05F900FA020E5C
:107030000AFEF80C01E20E0CF9F5F9F8F90804E97A
:10704000F101F601F8030802F3081107F90104F74A
:1070500001F0E9F6000511FEF90D0907FEF9FD0F33
:1070600004E9F0F9FAF0F10E00FA0005F50CF7FE6C
:10707000FCFBF5FDF9F400F402F4040FF919000B20
:1070800007080C170FEE02FC05F009FDF300F9F2FA
:10709000ED1013070507FDFEFB040AFDFDF109F8DD
:1070A000F905FCFEFD0805FC00F7FC120BFE0605C9
:1070B000F501F82102F401FB04F91813F20FEFFFB8
:1070C000F904F1F8FAFCF00C011105FEED00FCF1F9
:1070D000F3FF04F7F8F9F21A09FE06FBF0FF04E9E2
:1070E000F1EAF4F3FEF804F30F0402F5FB0B10F6DB
:1070F000F8F3F404F9EB01F80A11FEF7180B0DFC94
:10710000F80104FE0B06FC06F5F9F60F06F5EFFA9A
:10711000010BF4FDFBF10C0CEEF8F6FDE7F0FCEDD5
:1071200002F303F8EDFB0C09F3F8FCFFF8FE01F2A3
:10713000FEF902F2F9ED10F70005F3FC060705FA77
:1071400003FF0001F2F9FFFAFD1403060AF903F93F
:107150000B0803F20408FC06F8FCF21205FEF3FD2E
:10716000FBF3FDF6FEFB0CF70202F60AE5FE0CEC63
:10717000FAF703F7F0030F040CFDF4FBEDECFCFE53
:10718000F7EDFFE5F2F602FA1B0BEC03E8FF02FB5A
:10719000FFF008F1F304FB02F90E0808E7F6F80225
:1071A000F3F2030509F91902EDFDF7FDE5F4EEFA36
:1071B000F0EEFFF9FDF90806F407F1FFE3F9F6F93F
:1071C000FEFC06E9F6091B0DF4F8FA07E5DBF80FFB
:1071D000FFF60FEDFAFB050AF2FFFC0DF6E2ED27D4
:1071E000F4F008ED0BFB09050C080900F1F30F039F
:1071F000FEF90A0FFCF902FD0EFFF7FB04FAEEF2AE
:107200000306F9FBF802F60113FBE1EF05FD0304A9
:10721000130AF812FF170A0814F5F4F312F5F60A28
:107220000B11010502F707F407ED02021AF304231C
:10723000FF0FFEEC04E7FCFC08EEFBE3F010E908AE
:107240000110F1FE18FFFFFE08E8FDF5F8F5F4FB6C
:107250000300EDF50801EAEB04EE02F9ECE8E015B5
:1072600012030802EF0305E7FEF5F308EDFBE40463
:1072700018FDFFEDF9F6F2F709F6FAE4F0F6F80179
:10728000030103FE050A02F8F0F0FAF6FE11FB0E08
:10729000ED0A11FAFAF208100FF7F005FFFCF7FDFE
:1072A000080005FEFDF6F6010AF2F8EEFFF4F1FE25
:1072B0001409FA00FEFF03EEF4F5EEFFE50901EF15
:1072C00003FA0D04F6F4F6F6000602EEFA0100F3F6
:1072D000F9070405FE020FF81B05F4F2030504F29A
:1072E000F20AEC0408021FF608FBFDFFF4FAEFFFB8
:1072F000F7080EFF03FC04FF10FBFBFC0AF1F20A87
:107300000B0F0C01FD01EB090F00EA0EFB02FF174A
:10731000EF0812F9F407FFF806060C0EF705FB0D4F
:107320000C06F80C03F81B01F60FFB02FCF5ECEB66
:1073300001ED07FDFA08050E0AF7F1FAFAFDEAEE8B
:107340000EFAF008041DF4F2F4EC000305E4F41264
:10735000F7F201F8F1F5DEF5E9F7F4F30DEFF71ABE
:10736000FAF301F70CFDF0EBF00AF5050EF3F10965
:10737000FEEEEBF604EBFA06080D141402080EF804
:10738000000D09000701EB0A030AEF02F609F4F603
:107390002012F60BFE09F9F50AFD05FCF210F203C6
:1073A000F41101FD06FDF8E3050003F9FC0BF3EE13
:1073B000F41306FC07EFF1F1051A0DFEFEFF0010B5
:1073C0000505F80404FAFF0BFDF5FE08F6F7FF01CA
:1073D000F5FEFAF903F2F90313040E07EEF5FBF4D8
:1073E0000AF8F801100017E60C0DE915F6F3F302A0
:1073F00003060301F0EC14F4FB0404FFFA0AF51091
:1074000005FEF6FF0FE9F904F3FE12EAEDFBF706BD
:10741000F604ECFF26FBFB07E8FC0FECF313011569
:107420000204080601F6F31204120FFFF4F9FBF44C
:1074300007F9FF010AF6F805030EF7F9FDF501F962
:10744000F503ED08FFFA00F607FCFCF3FD03FD036E
:1074500003F9EE01F8F1FFFCFDF404FBF600FDF882
:10746000FB00040BF414FB09EEE106F10C06EB063D
:10747000F5F72109051206F11709E4FF170CFAF6D2
:107480000AF11316F0FEEB02051DE00B0009FEFEEB
:1074900004F2FF07F706E80F10FFE800FEFBFDFE11
:1074A0002208030802FAFEFF0CDF08100BFAFEF8B0
:1074B00002F30D020208FBFDF1DEF801FAEFFBE337
:1074C000F3F73008F4FC04F903F6F312F2F7FBF3D8
:1074D000F5FEFAFEFFF3EEF9F202E209EE06070707
:1074E000FAFCFEFFFF0008FEEFF6F9FE020B0104B6
:1074F0000C0A02FA07F4FBFE03EC0408FF0A06007C
:10750000F4F60AEF0C040DE7F3F5FF11EFF60DF5B5
:10751000FD00EAFAF2F3EF00FA020E1404EDF8F0BF
:10752000FEF8E4EC05F6F90C1B09F8FC00000F0767
:1075300001F3ECEB01F9FCF8120FF6F5110A08FC67
:10754000060AFAFDFEED02EF06050802070D04F239
:10755000FF0A01FA00F61AEE0106EEF8F604EEFB59
:107560000900F8FB0401FD11F60FF1F8FFFF090116
:10757000F0FCEE0AFCE0FDFCFF05090EFBFDF60148
:10758000FDF6F203FF02FBF5F9FBF9FCFFFDF60F38
:107590000708070701F413F9FB0A0D090DEBFAFAC6
:1075A000F1FF0114EBF7EE0109FB0104000FFBF4FE
:1075B000070405000309F1F6020306080EF103FAB9
:1075C000EFF5F118FBF5F1F2FF0101FFFEE9EEFC2A
:1075D000FBFBE911010AECE9F9F9EEE9FF00FD0A0C
:1075E000FD0AFA1C02F807FA0600210001F4FCFB70
:1075F000F808FA12FD09F60EE906FE0B0607FE066C
:1076000008FEEFF5F50C1BF3F7080C06FCF404027A
:10761000F2FCFB00EE0311F1FF0A181209FF11063C
:10762000FFFAF308E60E1BF5FEFFFDEBFEFF070673
:10763000ECFBECF2F2F90BF7FCE214FBF9EE0E01B5
:10764000FD15ED03100708E7F1EA04F80AEFF1076A
:1076500000F808FDF4F900FBF9F511030EF9F3FC4D
:1076600017F4FEF3F510F8F4FE0C0A0CF9EEFFF334
:1076700014E9FBDDF70CFDE9FFFA0007010DF50346
:107680000B010DF4E809F4020BE503F90003F60918
:107690000C04F307FEF40F0105EE030DF9FEEFF9FC
:1076A000F713FEFFF30BEEF00CF4050BF702FCF4FE
:1076B0000E0FF7FCF60DF8F20CF91C01F2F5F900CB
:1076C0000903EAF7010CF8E6FAEA0813F6FC0C09DC
:1076D000FFF30106FFFBFEF80DF001030210FE02AE
:1076E000F71104F9F8050BF8FDF4F3FC1D0401E0B3
:1076F00000ED03F9F102FFF4FFF802EDFA160FF6C0
:10770000010DF3F4FE1003F0FCFC0DF2FDFE090484
:10771000FBFAF3FAFBF8FAEA0001FBF2F7FD1003BB
:1077200005F602FC00FAFFEF02090BF1F1F8FBF09D
:10773000FE00FF170FE90708FFE414F5FEE70FEF5F
:10774000FA0613FAF3F805EDFFE400F5FA020FFE6E
:10775000F10A1C0A000504FA0104070B22E5F402F1
:10776000F5F1FE0302F1F7E50B13FE0106FDE6F469
:107770000105EEFCF901F1F20906F604F9F3F4E66D
:10778000FA0E0206FDF6EBEDFA09FAFFE6EFEF0C52
:10779000F20900FBF9F10807F708F91EF705F1FEF9
:1077A000060FFD0C020704060A0B071DFFFAEF0087
:1077B000F503F307F701E7F6151702FC0C02F5FCD9
:1077C000FFFFF1F40103F5F50DFFFA1102FCF9F8E2
:1077D000EA00F4F9F7E901F206200C0BE102E80DEA
:1077E000EFE7EEFCF9EB0301EA1FF4FBEB16F5F60D
:1077F00012040703070609F6FEEDEAF5F60D02FB93
:1078000008010606F803F6FDF7F7F8F5F5FE0104A2
:10781000F9F8FD0BFF0FFAFC0B000006000301FF57
:10782000F4F1F9F6FC0703F70B09F7090407FA0C62
:10783000FFFBF0F9FFF40218FC0B0B01FAFEFD0050
:107840000F11ED15FE0B0BF710F6F602FC0400030A
:1078500004FAFEFA050409F30802F909EE09F9FF32
:10786000FE01FE09010F09FC0B0606FDF60506F6F2
:10787000EBE8FAFD010F00FA02FE06FBF206F7F94B
:10788000EFF2FEFB03EB03FEF6FFF1F2FB00FCF36D
:10789000F8FBF306F9F708F10EEC0104ECF7EE152E
:1078A000110106FEF8FE09EA08F8F2EA04F1EF29F0
:1078B00006E804F0FAF2FDEFEBF5F71B1100EB1B05
:1078C000F4D9FCEDFAE50A02F9F5050602FFF5F731
:1078D00006F803FBF5F50E00F207F2F508F803F4DD
:1078E00001FA0408F3F30BF209FFF204F6FEEDFBD4
:1078F000080AF80FF50206EF0DF907F2F4F5F106A4
:1079000008FEFDF7090807F30AFB190401F8220035
:10791000F7FA04E9FEE5EAFCFDEAFA1101FAE9F3F7
:1079200004F303EF02EFFB0BF800F7FCFBF2FEECB5
:1079300008EB080601F703EEF40104F7F502E9ECA1
:1079400018060208FC01F505F9EEF8FFFC0AF9E754
:10795000FA0F0510051503F601EB21FD050A19FACA
:10796000F60916FCFBFFF30A1406F00A11FE02FEEC
:107970000CF1F10400F7FF031314F8FB0FFA11F0F8
:1079800008FEF20B04FA03FBFF0DFC0E09F603F8E8
:10799000FBFCF9020DF106FDF60502000900F304F7
:1079A00005FCEC080A09F4F1FAF4F1F3F606FF0419
:1079B000FFFFF301FFFCF20502041702F8100409AF
:1079C000F7F5F70208F9FAFE0C0F1AFEF9FFFFF6B9
:1079D0000AF7110506F6FAFA0F141E14ECFD08FC5E
:1079E000F5F5FBF80BFCF803FB010BF7FBF8F90CC2
:1079F000FDFBFD09F5EEFDF600F30FF9F0EEECFAF4
:107A0000FE0DFCFDF2EC0FED01ECFFF3FB06F5EDD6
:107A1000E90F12F50021FDF9060708FB07ED00F458
:107A2000EEFEFBF8000902F8F905EDF1FA07FD1387
:107A3000FFF2EE01F9FD09FEF1F6E506FB1316175C
:107A400008F4F7F8FCF0F6FA15FAF204F8041C0151
:107A500002F3F5EBF0F0EAEBFAEEEDFCFFF4FBF2EB
:107A6000F51207E5F000F7FEFB14F6F3F902FEEF5E
:107A700008F9F4EFFAFDFBFBF607F4F2EB16E31C52
:107A80001C0000FBFAF10113FCFBEB07F3060008F6
:107A90000C0AFCF2F8F2F0F61700F501E1F7F8FF36
:107AA000FDFCE7F407F4F1F0F413F6F1E814FEF846
:107AB000EBF1FC06EAEEFEF6091010EC05280603D1
:107AC0001113F405FFF9E2DD05F6F9FEFF01FFE40D
:107AD0000E13F2031C02F2E9000EF7F212F8F8EEB0
:107AE000F000FB0C08F808F8002103FBF2F8E0F2C4
:107AF00000F3F2030104FEF9100B03FEFA05071B65
:107B0000F8F0EFFCFD0CFB0C04EC05080600EE069B
:107B1000180F07FEF5F301020DE5032801F2F6ED5B
:107B2000FD131E01041101F40302FF0EFA04F5F720
:107B300000EF0AF8130A0302FBF904010B00F71225
:107B40000FFA0FFA0E080D020D0B050204FBFE04DE
:107B500007FEFB0A060C04F8F0F6FAFD0FFA00F037
:107B6000FB03051002F615FCFE0EFC0A08F800FBEC
:107B7000ED090BFCFC0310F8FA12FF06FB000BFBEF
:107B8000FCF7FB020AF805EEF20DFB18000205F700
:107B9000FFE9F9FDF4F6F604080C0C07F20BECF61D
:107BA0000108F5011304EF0102F5FDF5EDF4DE0225
:107BB000FFF1F7F408FE00F20602FAEAE80FFA0114
:107BC000FEE6FEF4F814F70CFCF001F3F804FB04F5
:107BD00011F201F9EC0E100705EF080E02F400FE99
:107BE000F3F200FDFC01120CFB040804FC1600FD7E
:107BF0000301F803F900FB08FEF4FEF2F2FAF912B1
:107C0000FFF7FFE7F3F30E05FAED0BFCF6190C0E88
:107C1000F90212F50800040601F50800010012F847
:107C200012F5FDFEFCF70CFD0F02FE0501ED04F15F
:107C3000F5F205FEFAF909090200FB01F8000A0550
:107C4000FB13F8F90AF5F8060F05F8ED08FB0C0030
:107C500002FCFAFA06FFF8FB01F8FFFC0424EE0030
:107C60000607F7FC140201F30E040001F818FC05E6
:107C700005F6E90411F5FF0001FA0009FAF5F1F83B
:107C8000F7020DFCF8F61309F30A01EEF4050AF603
:107C90000403FAECF8FBFEFBFB0C0805FFFB05F008
:107CA000FFF705F3F1F8FBF0F8EDF9F4F5FB140339
:107CB000020EF7FEF3F6EAF7FD01F8030EEC05F706
:107CC000FFE5F3F6FFEB0CFAF701FB01020204F10A
:107CD00001F4F7F2FEF014EBFFFA15FEF51407F9C4
:107CE0000AF70704110A01050904030FEEF3FB0666
:107CF000FFFDFFF803F3FF0108F303F7F3F404EAD1
:107D0000051C111600E4EAE71305040408EC09E772
:107D1000F4FB0AFFEEDAF5F311FD00FB1CFC17F78C
:107D20000D080BFC01E0F2EB08F406F828F3F8F17B
:107D3000EFFEFDF8FDF104F60EF307EFEDEDF2F0C6
:107D4000FB151A08F501FFF7FAECF9EAF00A0B0D3A
:107D5000F1F81D01EA02FEEBFDEE0001FC04010753
:107D6000FEF7E405F4E4F60B0005F001FFF9F60177
:107D70000A020F020400F4FC0FEF04EB07F60B0CF1
:107D8000ED00F8EB12F106F10202FE0608FEFB130D
:107D9000F4F8FEF7FCF8F5F6FC0703140B0B0A15D4
:107DA000FAFAF6FCFBF7FDE9F60204FAF90501FB25
:107DB00005F7F2FEFBEB0305E528F61105F4E9F9FA
:107DC00004E8F7030F05090C1318FA10060D050057
:107DD000FCFADEED06FDF9EDF50F0A0D0111F10AD1
:107DE0000100FAF701F6FF0AEDFB2214EC33FC095F
:107DF00008FCEDE0F7F6F30AFAF00FF4EF1815F3CC
:107E000009F9ECEA08FEE3F70609F6FFF20206E5D7
:107E1000F7ECFD1F022106F9EFFF03030B0810F139
:107E200001F008F6FD010103FD01FA0105FA08F071
:107E3000FC0211F910F5FEF5FAF300F2F4F0F40982
:107E4000F9F2F6FB0DF50A0AF5F507F4F5EEEBFF8E
:107E5000F903FCDD01F6090E0CFEF1F7F7FEECF973
:107E6000F80B0EEF090A04EF05F30AF4FEF3F8002D
:107E7000FFE408FAF3F8FF0303090DFBFAF70BFE22
:107E80000CF7001903F40EFB08F2FAF9EFF5E8001D
:107E900009FBF605FBE52001FEF90209F4FFF506F2
:107EA0000128F8F8F9F0FAF3FBFFE705010EEB0300
:107EB000EF34EFFB0DEDF6EFF6FBEDF8FD0FFDEE09
:107EC000F7FAE81108FEFADAF7F8FB0BEE0EF9DF25
:107ED000E7140805170500FD08F6120404FF040561
:107EE000F40702020F0403F80CFBF9F5FC0BF8F998
:107EF0000E04FCFAF90BEDEB0DFF03100AFDF3F98C
:107F000004F7FB0D09F00CF9F9F3EAF7F704E5F0D3
:107F1000F5FCFEE1E3FAF8F1F6F6FE05F900ECE80F
:107F2000F3010502E9F7FF0908FD0E00FD02F9174C
:107F3000F501FE11FBFE100AF7F40DF5EFF4F00564
:107F40000904F2EFFC05F9FE0CFD0D0300F7FEFB42
:107F500016FDEBF90506FFF005EDFBF9FE14F40242
:107F600001F90601EA071104EE00050AF002F10129
:107F7000F2011E0200050CFEFAFA0F09F901FD0FCD
:107F8000F801040A0AFA0200F6F80701E0F3F30424
:107F9000F0F8FC01F4F4F1F304FA01FFEBF7F2F16D
:107FA000FE0BEC05FDFDF3FFF9F8F3FA08040107F9
:107FB00003F11010060010F7EF05070508FBFDFAA6
:107FC000F3F50D07FE0C03010BFF09F3090208147A
:107FD0000003FE030DFE0AF103F40204E7F2FF0EB4
:107FE000F9FB09FAF7F6011715F7FCF3F5FDFEFCAE
:107FF000F404FBFCFEFFF30BEEED04E9F9FC1508BD
:10800000F3FC090D01FCFD00F006FCED0707000084
:10801000F4F6FAF9F9FEF303FF03FEF1050A000A8C
:108020000809FA0505010DF508FF0EFDFAFFFDFC34
:1080300000FF00FCFCFD060BF7120EE8F00D02F449
:10804000FF0EF40809FEFC0CF90720FDE8EEFBF733
:10805000E3060400F2FBEA18152006F3FCF503EE34
:108060000801FE02FB17FCF91BF1EFE902EAFBF342
:108070001E0CFB0400060BF9F2F302F5EDFEF7050A
:1080800013FBF9F8FEF3F5FAF804FB0AFE0FF40A05
:10809000F7F5FCF7FD04E9F70403F5EBF91004FC30
:1080A0000BF8F308FE04F21CEFF203F3F600200ACB
:1080B0000102F3FAF50B110DF4F8F7171917F7147D
:1080C000F61104FE00EAFB0CF705F8040A0FF40DA4
:1080D000F1FB0515FBF6FE120602000EFD0AF1F794
:1080E000FFF5FA000D0801F117F5FEEFF0121B0580
:1080F00000F00D02FBF2EEE70BE9060DEDF007E7ED
:10810000F113FB0DF80F15FFE9F90705F9F501F576
:10811000EA06FDFF0AF9F8F4FB0208F9F700020A83
:10812000F5F91A0711FFE6010207040F0700FA0923
:1081300009F2FDF5F5EDF81810FC00FA0BF8EFF375
:10814000F2FCFDE9F7DF00F401FD0007FD02E7F4B2
:10815000061102FAFB0117EC00F6F505E8F803E357
:1081600004EC01FEFF0208F403FF05F2F5F208F447
:1081700010FBF10EF61402F407F4F2F4F207F8061D
:1081800006FFFC08FAF9F6FD0AF10AFC1AE8FCF60B
:10819000EAEE09F603E802F305FFFCFB080BFDFE1F
:1081A000F80EFB00FAFB09E901F104F0F4F9020A08
:1081B000F007F7FBF3F60600090209FC04EC1004D3
:1081C000F513F402FFFE1902090B0A16ECF002FD8A
:1081D000F7FAFB0410F904081224D2D340080DED7D
:1081E0001C010EC71714FE2030F55549F9347D21C6
:1081F0007D0D5CB859FF0B4626F305EC0FFCFD0D19
:1082000024ED0A0EEEEFF50F19EEF0F7F7F8FC1576
:10821000F50A04060709F2F711FA010812050E0C17
:10822000000209F8FD0FF902EEFAE614FA090AFE57
:108230000C0BF6F912F4F42912060BFDFF020B18D1
:10824000011609060421EEF4E6EA0703FEF8FDF83C
:1082500013F01CEE010210E6E2EEF4E20909F90D5A
:10826000070CF510FEFF0EF60F0B04F1FBF40716DA
:10827000F1F4F9011601F41D0301FDF4FBF9FF16F9
:1082800014FAEC1903050102EFFEFE0404000FEDE1
:1082900006F9EC0BEEE60E0100F704F80BF0FF0F09
:1082A000F0F911F3F60102080EFEF020F6F60CF0DC
:1082B00009F5F6F10309E23A04EC06F6FA0B00FFC1
:1082C0000D0EF200FDF4FC1602020E010A01F4F894
:1082D00011F4FFF6F7F7FE0BE4E7FAFB040AFD0BD7
:1082E00006100DFDFA0523F4FF051AFDE302FCFA62
:1082F000F1FAF508F8F401F3FE070CF007FB0B1494
:10830000FAFE2A1524FCF401FC190600F4051CFBF6
:108310000105F101FE01FBFCF629F209F5E9002156
:1083200000F70DF7FD0601040103F70402F0FE1546
:10833000E0F706F4FE03F91DF8E50AFDFD0AECFD81
:108340000C00FCFCF507FA0802F50607FAF3FEFC40
:1083500011F505000B0104FAEFF7E7070404151106
:108360000EFB04F4EF052EF911F61600F7F3F30CEB
:10837000FC01FCEFFEF9F2F2F20709F5FE03060F2D
:1083800004060308140A10FCECF61907FC050301A7
:10839000FEFE080209FEFA02FBF5040118F6F50BD1
:1083A000EFFCFBF20B0202000A0DE109F20D1315BE
:1083B000E3F60409DF030900F3F0FFFDFC1403FEFC
:1083C0000CFADAF0EFF80A0C12F6F8101908FCFFB4
:1083D00004F4FAF8FE0BF602F0F528EF0B0504EBB7
:1083E000FF1921FB0CF9010602FC05EF110CEE034D
:1083F00006F8F721FB0AEAFD10FDEA1D2DFBFBED57
:108400000B0DF6F4F10801100EFDFC07F7FBFA0165
:108410000205F1E0F5F708F80903EEFC170C04F289
:108420002403FC290EFDFE02FD0C04FC08F1FE07EE
:1084300008080302040BFF0AE60CF90BF0FF1CE727
:108440001308FBF8FDF8FC10F8F2F7031008080811
:1084500004F403FAF40316F9EBF5F2FCFF07F6FD5A
:10846000060DF23DF6F2F1FD0D05E2ECF1E7050A2D
:10847000F70C08FFF905EFFFF3000BFA3C0500ECE1
:108480000615EA06F4F701FD01EDEBF9FC07F1FA38
:10849000F70BFBFB0CF406080F02FAE9E900FC06F7
:1084A000F8F7EB1FFB03FB0105FFF9FA1EF2FD0BCA
:1084B0000B05FC000FF9F8FDFC02F1FCECF90DF6E0
:1084C000F1EDE7F04CF1111A0207F0EFF2FFF715AA
:1084D000FCFB022AFA02F8FA0606FB03F6FE060E79
:1084E000F40004161AFBF4FFFC1C13020BEA1BEC4D
:1084F000FA0FF701F6F704FAFB04000205F5F7F5A9
:10850000FA1016FCFD0201F90B060608F3F7F00756
:108510000107F0F1FEFD0B03F406EFF112FB0B086F
:10852000F6F81605FAFCEFF6FE0CF002F9FB0C0467
:10853000EE0109F2FB01FC0DFAFE0BF80401F8F85C
:10854000000106FC1704FDF90114F5F801F2030C13
:108550000AFAFB2C0B05FEFD180306020100F307C7
:10856000020DF7070902F2021BF201F6030117F6EA
:108570000604FB0C0BF9FDF901F5F70CEB07F6F718
:10858000F211FEFEFC0218F8F4FC040E05150CF9BD
:1085900000FD03F4000205FB0BFC06FE21F6FE0FB6
:1085A000FAF60CF6050607FE0B03011002F5FA0BAE
:1085B000F6FBFD06F9E50501FFFEFE03EE0004F6FD
:1085C0000401FDF605F90DF0F1160208FE1017F58D
:1085D00013FDF4F509F5E808EFFBFDEA0602080CC7
:1085E000EF0A04FFFA00EF0505FFEA0101031FF996
:1085F00006FD050608FCFFF50BF4F61FF8FEF6F77E
:108600001C02F6F8ED060704F011FB09EFF5FD0D6D
:108610000FF2FB0AED00FE07FA01020D0304F2FF60
:10862000F2F9F52E120206F6EE370EFCFF0307F400
:1086300017130800F409FCF5F6EB070904F0FEFA3D
:1086400012F2F1F7F5F6F80304EB03F7090D001346
:1086500008F4F8E201060609E9FF03E727E50BED58
:1086600008F40711000AF9FBFE13FDF4EC090412EB
:1086700004040AFA0AEC0106FD060405F9FDFAF8FD
:1086800005100E0CEC02FA09F2FEE6020C0CF1F0F9
:108690000E0603F8FBFFFC00F40106060108FCF7D8
:1086A000F3FBF02AF507F8EBFEFBF3F1F5F905F51E
:1086B0000F20FDF606F60BF80A13EFE4FFF2F8F4CC
:1086C000FB02F4031F05ED21030AF7FF04F1010C7F
:1086D00000F8EC0202F301FB0B00EF01F8050403C4
:1086E0000F1B04FE05DC02FEF0000CFBFD061FF470
:1086F000F200F8FFF2081DF8FE05FD01F4FC0A0C7B
:10870000FCF813FFF1FF090E02F0FE0F030AF5FB60
:10871000FE020902F4040B000302F6F50F0100E962
:1087200003FDE900FAF4FF0BF4F302FCFBFD11007A
:10873000000009FD0405F7F504FB07F7FFF70BF947
:10874000F0FDF7F9F508FEFA030B03FCF9F2010C52
:10875000F4FFF70F130805021A07EDF9EFFCF9FF14
:1087600021F101F801FCFAFBFDF20AFFFE0C0608FC
:10877000F91AFAF406001FF713F5FE0EFA10FF01BE
:108780000506FCF3040BFA0207FAF102FD07FDF3FC
:1087900002FBFA0604FC0BFE20FD0C0014FFF8FFA0
:1087A000F60512DBF3FB10FD0B060AFDFE0901EFD7
:1087B00001F3040405FA02010BEEF9F50BFEF7FDD7
:1087C0000700F006030309F7011AF703FAF403019F
:1087D0001101FB040203EA06EEEEEFF11B060905A8
:1087E000090CF7FEF3FDF40A00FDF8FD080710017F
:1087F000F7260EF7F800F806F5EDFDF7EE0D05FB90
:108800000DFCFEF8F1052AF2FC0000FD0CFEFB0554
:1088100012D90DFA0C070D0608000702CF17F1F563
:108820001703010BFFFD07FFE61807FEF5030F0214
:108830000E03FB15EDEF04FCF0EE09F5190105F947
:1088400007FEF100FB060AFE0507F4F8FC0A10001B
:10885000E007F9E6E814FB04FA02FBFCFD060DEF65
:108860000A0EFDF5F70F0401F5F8F600141213FBDC
:1088700016F517FEF805090B02F51FF200F2010BC1
:10888000FA1C1EF9F9090EFA0801FB1611EDEEF3B8
:108890000512030BFF0303F904F5FDF7E214EE0ED6
:1088A000080BFF17F305F500F8FCFBF70A020200BE
:1088B000110EEB19EEFEF8000100FFE311FCEE12C1
:1088C000F6070903FD00FB171208090911F2040A53
:1088D000F603F3FCFD06F715E70206FEE617F701BF
:1088E000140809F4FE03FAFEF6FA05FD17F90EF96D
:1088F000F203F9FCF0FA0DFDFBFB1EFA0707060573
:10890000E90C08EEF2FA17F2FB04FF131201FA0663
:10891000F2FE09150505FF0202F804FB02F8F2FF5A
:10892000FD0F0D06F600030105F40CFA0AF9100319
:10893000160AFA19EDFEF5F108F206F70AFD080528
:10894000FEF3F6FCFB00FFFBFFF0FD030604160937
:1089500011FEFAF01901040417F600FEE60A0219E6
:1089600016FF0001F0FBF9F6EAF20AF90F1F0FEF0C
:10897000F9240CEAFDF90A08FE0207FC0802F506D4
:1089800011F102EADFED13E9F80109F60A02040524
:10899000FA1106000BF8F6EEFAFE1503F5FF0406D1
:1089A00002110FF3FF071BF5FFFE02F7020503029A
:1089B000FDFD03120CFF0BF918F9FBF7100306FB82
:1089C000080701F4FE0F09EE01FFF400FB0509EFB3
:1089D0001FFCF8F6F409FE0904EE0CF5FA05000395
:1089E0001002010AF0FC09FAFDFE09F6F00C050977
:1089F000FA1F0BFEF0F40A0301F7F80A04F9FAF182
:108A000006F60411E81102DF09E9FFFF20FB10F868
:108A1000030C15FFE8FFE81BFDF812FFF6F92DD94E
:108A2000EE02FCFA0505ED220F240B08F9F2F50021
:108A300000F50206EEE7EF01FDF1E125F7F20AE8A5
:108A400001F0010DEBF5FB0F05061B041B18FBEDF8
:108A500025EDEEF6EFEFF0FF120E0B0C0623EF23E1
:108A6000F2F4FB0701F8F70AF8F2011701E8F9FC44
:108A7000EC31120F08F4E20A00F9F80AFDFE06E7ED
:108A8000EAF6F6000109EEF906F50BFA07F401F033
:108A9000F1F616FB56F410D7F5FFFF0C1A0BF90C84
:108AA000EC2A06081006E50402E8EC072BF1FBFEB1
:108AB000F803F10CF0FC05FB01020903EF1304F5C8
:108AC000FF0800F306F60F0CE4F237FC0D10D6FB9E
:108AD0002EF6F8FDF2F3F1001AF9F81922F4DE1679
:108AE000F6F7EFFB0BF5F2FAFAF7000E07F2ED07D7
:108AF000F825F3F9F911F01317F2F3F9EE0912EC76
:108B0000E701EAE60EE410EFFA0406E6FAFBFAEFF4
:108B1000FBFB130D16F0F204F8F103020807FDFA4F
:108B2000FE11090501F4F200F2F70B0F27FBE70233
:108B3000EEFB04FF1712F7F90216F60AF3250EF5FD
:108B4000F7FAFB0EFAF7F800F8061CF90719F3FA22
:108B500019FD07F5F2F8F9F20F0A060B21FEE9F00C
:108B60000A0EFD08F600F211070218FAF717FFEDDA
:108B7000F90EF2FCFE06020506FFF50905F909F9F2
:108B8000FA0EF2FA030900FFFC020EEAF51208DC05
:108B900002FF09F2FC02F804FF05F81DF00AFF01CC
:108BA000F823010A04EFF30FFC000016E10412F9A8
:108BB00000FEF5F11D0A03070305F01AFA21F80873
:108BC00002F9090C0B0A0B0A02FCEF09F0E3F9FFAA
:108BD000ED1DF50003FD011A17FD07FC13FBE3145F
:108BE0001507FC03E9FBF50301E5FB14F416FB078D
:108BF0000EFAF1F005EDF90BFEF0F9F4F4EBF703E2
:108C0000F701F20BF5F706E5F3F9FA0431F9040977
:108C1000F3F438040B0EF10C13FCE70BEFEA0F042E
:108C2000FAF802FB00F501E9FA0315F4FFF9EAE9A5
:108C3000FF1301F9F6EC05F805EBFFFE0DFAF5055B
:108C4000F7F7F312FD0205F4FA1EF3FCEE14000828
:108C5000F8080400F90605061D092AFEF4070EF6B9
:108C6000F301FFEF08ED04EFF3EC0819FFEF130A2F
:108C7000050AFA03F40E1EFAF5F8FCEFF4F7F429EE
:108C8000F0EBFEF116020902FB050216F8F3ED38CF
:108C9000F00621FC23FD0AF10DF5FB0B0001FB039F
:108CA000FA15F4FAF0070FFAFBF101F801FDEFE312
:108CB000FE01F409F8F8F81E0A1211DE0A05021185
:108CC000F2FAFD00EA0614E0FBEBF008F801FE10F2
:108CD000FDFAECF305030A0DF7F30B000405F6F7B4
:108CE00005ED0AFCF5FDF4FCF5F9EBE2F6060E08DD
:108CF000FEFF100113F1F204FFFC04F90CF3F41D64
:108D0000FF03000204F5FDFDEA04FA030609E7107B
:108D1000FCF224030502F1FC01F50DFCFDFC00FC56
:108D2000FD2C0EFEF9F90DFFFAF702001CF3F8FA1C
:108D300001FBFAF706060AFD06FE0CF1050000111C
:108D4000FEEE04060203F9FEF6EDFCF9FDFC030954
:108D5000EF0AFCF6F4FEF607EAF9F90107FE06F859
:108D6000F8071209FB03FAFCF604F2F5F9090D0104
:108D7000FBF11B07FCF300F70B080B00FF00FC09DD
:108D80000509F105F61BF8060B0FF50DE7F1F0F7F5
:108D900009FC0EF9FAFEFE0302EBF8FFEAFBE5FA26
:108DA0000409070D00F9FEF8F40506FBF8F9FEFBCF
:108DB0000807F00110010400FA0B07F2FA0FFC118A
:108DC000FBFF05180505F20BF8FAEEFDF2F303FCC4
:108DD000F608F913FE040624160812ECF80AF90145
:108DE000F408FB04F807FEFDF9FAF000F70B0A039C
:108DF000FFF7FA00FDF8F502F313FFEA0400FA00AA
:108E0000F6F40C07F4FBEF03F4FC0CFB1B13F50A60
:108E1000FA0D0701FF1BF80C0706FEFA06F9F01819
:108E2000F6FEF4F50DF6FBEDE5F2F501FFF1FE12AD
:108E3000EDF60303FD1309F5F8FB18FD0214EEE847
:108E4000FB0B040E0E02F70800F7F4FE0CFE11ED0A
:108E5000EF041011F605FB0E0F0514F603F818F0D9
:108E6000FCFF04ECF6ECFBFE05020506EAEE03F857
:108E7000F90505FD0C0012F80CFE0DFC0203FC0BBD
:108E8000F1F3F20B00FCF6F6EA111914FCF6FB22E2
:108E9000FE1D0304F4F8F509F60DF0FB03FE0608C9
:108EA000FCFBF601FEFA0F030EF9FB06FBFE0D07B5
:108EB000F7F3F60EF9FC06FE08F11D0FF20FF8307D
:108EC000FEF3FDF8FAEC0CFD06F7F0FCF8F81FFADB
:108ED0000BFD00F6F6FA1106F40112F60109020381
:108EE00002E511FBF8FAF9FE06F1F4F40DF4F601CF
:108EF000FA0A0D0700F308EE001907F904F8FB0160
:108F000009FDFEF4FDFCEAF90406120101F5F9077A
:108F100005FD0FFA050AEA0BF7F00AFA060215FE3C
:108F2000FF020CF6FEFC050314030AF7F9FCF60C2D
:108F3000F2FA0201F8070500F7FC2EF2040CF30325
:108F4000020008041FF306F901F2FE0804F409F315
:108F5000F90504010AF9F2FAF90A0F01FCFC0BFE0B
:108F6000FDF30FFCF5F80402070AFFF925F1FDF9FE
:108F7000F0020D0BFDE903EDFBFEEB09F801000823
:108F80000AFC00FCEF0B0609EA0CF50BFF0E0A16B3
:108F9000020106F5F9FCFC05FBF309F7FBF9F7EF15
:108FA0000109FE030007FF10FB0EFC03FAF4081092
:108FB0000107F20100FC09F20101070DFD0B070991
:108FC00005F405F800FE12F1F7FBF30CF9FB020DB6
:108FD000F503021315F0F80C0D070402EEFCFBFA82
:108FE000F0F4F000040904F60900F90AF806FB069B
:108FF000ECF2FAFB03E9F6FC1203F606F90FF807A8
:1090000000EA03EBFE05F52102FA06F3F90E010A68
:10901000000DECF0F115F010052805010FF6081110
:1090200002EBE803F70503FCFAF9F3FC0002E91C84
:10903000FC000600030B01F3FAF810FD24020806F9
:10904000F414060809F9FB0603FF10F2F6FF28F0F6
:10905000FB0C1AFF05FD1715F2FB0002FD0F06F3CE
:1090600005F2FCFFF0F3F014FF1700DAFEF6111022
:10907000F7E8F7071109F8F60B00E606FBFBF8EF37
:1090800001010A00F5F0EEF6050B0E07EA05FFFFF9
:10909000F701FB12EF11F1FAF91FFCFCFF0406FEC9
:1090A000FCF501F1FDFB0B0101F0FAFF0704FB12D7
:1090B00000F70211F2F1F8E7F9F70D0E050CFC1FAD
:1090C000FA02FF000703EE12FBF90EF3F5FAF6FAC7
:1090D00002F0F21A09FD1CF70907FEFEF1FF030971
:1090E000FAE8FE02F9FF030315FD03F9F612FFF992
:1090F0000E0116F6EEFB1A07FAFAF8FAFE0702EE70
:109100000A090903FE05F5101BFBFBF0F4F2FD074D
:1091100002F0EFFFF60700F816F707FBFF05040D56
:10912000FA0807F6FEFBF804FFFE07F000FEF40362
:10913000F6FDFE01F8FFF305050910FC0E060C0410
:10914000071D0E03FCFAFD16E9FB0FE4050208F407
:1091500005EE0805FDEEF804EF1205FAF8F400FB41
:10916000FEF60106EF060AF8FA1102FB050B01FBF9
:10917000FCE6FD0EF6FC03F5F5F0FDFFFB0209022F
:1091800018110804FC26100E06FAF5FE0EF60BF573
:109190000C04F8F8E6F30DF8F21501F80A0B16EFD7
:1091A00007FCF9F600F5120905000AEF00FE020FB0
:1091B00001FEF9FE0211FAF2F3070B03010E000A99
:1091C00008F514ED00FC1008F30304FF04001DF47F
:1091D000E81A040BF2F4F60F0FFB0106FDF803F397
:1091E000F107FA01FDF502EE0EFFEFFE0C0CFA0C92
:1091F000E9F309EE040005FDF21407FAFAF50AF99D
:10920000FA06E804EE1AE9FE12F2F3FDF61CFC1E63
:10921000EA09F3EF0BEDF7F40E02FA191B0001F95E
:10922000EFFAF004010DF4FAFAF502F4EA11FBF199
:10923000F9FC050F2300FD0AF20DF00407FB0CFFFB
:109240000BFEE9F7FD0AF8FDFB090CFDF4FC060333
:10925000E6F905E8F5FDF717F7E0F0031E00100743
:1092600005FF00F1F928ECFAF7FEF3F9FEFEFC0029
:10927000EAFC0CF205FFFDFAF8022920F6FA03F6E3
:10928000F1F00AF4F9F4FBF33304F705F00F0201EF
:10929000F628F2092401F0F9FD06051917F1FAF292
:1092A000F5FCFEF703FE11FBFC000A1112FF01EFB3
:1092B0000308FA060FFF02F205F607FB0BFF00F6A4
:1092C000030D01F61007F8FAFAF3FD09140402F38E
:1092D000F7EAF8FEF00C05F007F1090601050208AF
:1092E00009F90FFE0723F500FE0101F711F907F94F
:1092F000ECF80BFE0609000AFCF51D0700FEF6F16E
:10930000FDFFFC04F1E5010C16F6FD14EF1307FD5B
:109310000525FC0912FDF9F4FD0F020010F5F40714
:10932000080AFEF114F2020DFF06040D110F0608E3
:10933000FA09F9061004FEFDF90EF202FDF6F9F243
:109340000408FD0A000CFC0405FBF6112AF70205CF
:10935000020503FDF20C020604D7FA02FD09030020
:10936000F9F80701FD0BFD00F50402FD17F5FDF806
:109370000AEB1A0CF710F81002F80DF3F8F0EE12E1
:10938000ED08FD02FAEB0801F3EFF2F90612EBDC4F
:10939000100814F3F8F008F702FD02FBFBF9FDF4E6
:1093A000FC0003F9FBF70C11F0FAEEED0719F4EFEE
:1093B0000901F2FDF20604EFFBFFF3F9FC0FFA05D9
:1093C00001FB01FCFE010309E4F7E4F61CFDF4FADD
:1093D0001806FBF9FA01050126DEFDF2F10EFC2567
:1093E00002F8EBEBFAF30106D2F4F8FB050A03F1FD
:1093F0001CF604FCF4020105F30A13F40207F8FD5D
:1094000000F3DFFB0A000DFEFE01EBFA06EDFD0E98
:10941000EB09070617FFE9F308FE100100FC0B0734
:1094200005FAF5F6000114060CFEFFFB14F2052CFC
:109430000401F9F90A01F41606010AFAF704030314
:109440000005FF00000DF6FFF20D00080BF2F1130E
:10945000F5FCFDF10204F7250BE4FCFAFCFEEFFD40
:10946000FEFBE4130FF8E2FFF30406FD08F7120613
:10947000FEE8F2F3F0030C22080900FDF712F300F6
:10948000F8F513FF0FFA2507F4FF0BFEF403FDE3D5
:1094900002F600F924EEF6FCF70003FF0CF8FAF2EE
:1094A0000D12180CFFFC2803F60A04FD150E0DFE24
:1094B0000B0CFBF5FA0BFE120704FDFDFE0A060677
:1094C00006F509F2F206110B000001FF08FD01FD8F
:1094D00005000EFD040C03FCFFEDF7FA03FFFFF996
:1094E00008070AF20AEDF9030AF8FEFF02F9F8F993
:1094F000021A0211FD0500060420FDFCFDF3F5F93A
:10950000F60C040B2100F4F60B0510F909FCFCF035
:10951000F8F80E0209FAFBF5FA0EF3FAFBF8F9FD7A
:10952000F51C090806050AF5F803E9F0010CF2003C
:10953000FE1203F6051909EC000FFD010401F6F90E
:10954000F91017F91500F2020306F2FDF1FBF1FC28
:10955000F80E0504ED04FAEEF80FFE08FC03FAFB22
:10956000F50E10F6F4FDF606FFFAF70CFCF7F8FF1F
:10957000FC1EFC18F510FE07061B05F6FE0011F890
:10958000F2F9F6031B1DEDF5FB02F6FFF202FE00F9
:10959000F701FE17E90FF8F415040EFAFFF5FF0ABC
:1095A000FB0B10FD0923F9020106FCF5F9F2FDF8A9
:1095B00012090C07F422FFE5090B07F7F80906F773
:1095C000FC07FCF60A0AF506F904F5FA00FCFF0AA6
:1095D000FE0FF30DE11801F3ED08FEFB07FC0AFC9A
:1095E000F6F6F6F8FFF6F8FD01F7FD0101F5FE06C7
:1095F000F622FB0CF122FFEC1E87CD4D28142EDD48
:109600001CDFEBEBEBE7E7E7E8E8E8E8E8E8E8E8A9
:10961000E8E8E8E8E8E8E8E8E8E8E8E8E8E8E8E8CA
:10962000E9E9E9E9E9E9E9E9E9E9E9E9E9E9E9E9AA
:10963000E8E9E9E7E9E8E7E9E7E9E9E6E9E8E8E8A8
:10964000EAE8E7EAE8E8E8E9E9E6E8E9E7E9E9E994
:10965000E8E8E8E8E8E8E8E8E8E9E9E9E9E9E9E884
:10966000E8E8EEEEEEEBEBEBEBEBEBEBEBEBEBEB47
:10967000EBEBEBEBEBEBEBEBEBEBEBEBEBEBEBEB3A
:10968000ECECECECECECECECECECECECECECECEC1A
:10969000ECECEDEAE9ECEAE9ECECEAEAECEAEAEB1C
:1096A000EDEAEAEEEBECEDECECEBECECEAECECECFE
:1096B000EBEBEBEBEBEBEBEBEBECECECECECECEBF4
:1096C000EBEBEDEDEDEAEAEAEAEAEAEAEAEAEAEAEF
:1096D000EAEAEAEAEAEAEAEAEAEAEAEAEAEAEAEAEA
:1096E000EAEAEAEAEAEAEAEAEAEAEAEAEBEBEBEBD6
:1096F000EAEAECE9E7ECEAE7EBEBEAEAEBECE3E6D3
:10970000E9E7EBEEE7E9EBEAEAEAEAEAEAEAEAEABB
:10971000EAEAEAEAEAEAEAEAEAEBEBEBEBEBEBEAA3
:10972000EAEAEEEEEEEBEBEBEBEBEBEBEBEBEBEB82
:10973000EBEBEBEBEBEBEBEBEBEBEAEAEAEAEAEA7F
:10974000EAEAEAEAEAEAEAEAEAEAEAEAEBEBEBEB75
:10975000EBEAE9E9E6E8E8E7E4E6E8DFE2E7BAC0F1
:10976000C5D1D8DBCFD2D5E4E4E6ECEBEBEAEAEA0C
:10977000EAEAEAEAEAEAEAEAEAEBEBEBEBEBEBEB42
:10978000EBEBEDEDEDEAEAEAEBEBEBEBEBEBEBEB26
:10979000EBEBEBEBEBEBEBEBEBEBEAEAEAEAEAEA1F
:1097A000EBEBEBEBEBEBEAEAEAEAEAEAEBEBEBEB0F
:1097B000EBEBECEEECE9EDEDDBE1E6CBD2DBA3ACE1
:1097C000B3C3CDD0D6DADDE6E5E8EDEBEDEBEBEBC0
:1097D000EBEBEBEBEBEBEBECECECECECECECECECD0
:1097E000ECECEFEFEEECEBEBECEBEBECEBEBECEBB8
:1097F000EBECEBEBEBECEBEBEBEBEAEAEAEBEBEBBA
:10980000EDECECEDECECEAEBECE8E9EAEBEDEDE5A8
:10981000E7E8D0D8DAC2CDD2B9C6CFAEBCC8A5B3BE
:10982000BDB8C4CACFD7DCE2E4E8ECEBEDECECEB7E
:10983000ECECEBECECEBECECECEDEDEDEDEDEDED63
:10984000EDEDE4E5E5E4E3E4E8E6E7E7E4E6EAE8AD
:10985000E9EDECECEDEDEBECEDEBEDEBECEDEBEC49
:10986000EFECEDEFEDEEE1E5E6E0E4E5E9EDEEDD70
:10987000E2E4B7C5CCA1B4BE9FB4BF9AB0BE90A37A
:10988000B18F9FAB9CA9B1C6CED3E9EEEFECEDEA68
:10989000EBECE9EBEBEBEBECECECEEEDEDEDEDEF07
:1098A000EDEED4DCDEE0E6E9E6EAEEE3E8EAE5EA5E
:1098B000EAEAEDECEDEEEBEEEDECEFEDEEEFEDEEDA
:1098C000EFECEDF0EEEFC9CCCBDBDEDDE9ECEBD677
:1098D000DADAC1CCD2B9C9D2B8C9D3ADBFCBA5B63B
:1098E000C49FAEBBA2B0B9BAC7CCE5EFF0EAEFEEC9
:1098F000E9EEEDE9EEEEEAEFEEECEFEEEDEFEEEE97
:10990000EEEED8EAF1DDECF3E1EEF6E1EFF3E3F0B1
:10991000F0E7EEEDECEDEBEEECEBEEECEDEEECED7E
:10992000EDEDEDEFEFEFC5C6C4DCDDDAE9EAE7E621
:10993000E7E5D1D5D9D1D8DEDBE4EBD0DAE3D1DD70
:10994000EAD2E0EBD9E9F0DAEBF1E1F0F3E4EEF0A2
:10995000E4EFF0E6F0F0E6F0EFEBF0EFEDF0EFEE35
:10996000EEEE768C95778A947C8E99889BA1ACBC20
:10997000BFE1EAE9EBECE9EDEAE8ECE9EAEBEBEB75
:10998000EBEDECE9EDEBD6D8D6E2E4E2E8EAE8EC80
:10999000EDECE4E6E8E3E6EBE7ECF1E1E8EFE1ED3E
:1099A000F7D9E9F3C9DBE2B9CCD3ACBDC3A7B3BAED
:1099B000A7B4B9BAC7C9DFEBEBEBF1EFECF0EFEE10
:1099C000F0EF6D828D6779856C7D896F7F89929FBD
:1099D000A5DEE5E7E3E4E1E5E2E0ECE8E9EAEAEA6E
:1099E000E7ECEAE6EDEBE5EAEBE7EBECE8EDEEE6DB
:1099F000EBECE7ECEEE7EDF0E5EDF1DFE8EEBFCE06
:109A0000D5A4B8BF92A5AC899CA386959F808C995C
:109A100079858F95A2A6D8E4E5EAF1EFEBF0EEEDBB
:109A2000F0EFC3D4E0BCCAD7C7D3E0C8D3DFD1D9E5
:109A3000E3DFE3E7D5D5D3D3D1CED8D5D6DCDEDE90
:109A4000DBE2E1D2DDDBD1DBDFD3DDE1D8E1E6DC57
:109A5000E5E9E1EAEDE2ECEFE1EDF1DAE7EDB7CCD3
:109A6000D0AFC6CBB5C8CFB2C2CABAC5D3AAB2C4EA
:109A70008E97A4B9C3CADBE6E9E7F0EEEAF1EFECB2
:109A8000F0EFC1CFDEBFCAD9CAD3E0D6D9EADFE151
:109A9000F1D6DBE3CBD0D0ABAEAEB1B4B7CFD5D639
:109AA000AEB8BC6270795D727E6579846F818B7AA5
:109AB0008A938998A199A7AECAD8DCDFECEDDAE8E1
:109AC000EBDCE9EEDFEAF0D9E2E9DDE4EDD4DBE559
:109AD000C4CBD4DEE6EDDBE3EADDE6E9E8EFF2EB6A
:109AE000F1F27182986F7D93717D8D7D83978A915C
:109AF000A5AAB6C1BFC9CDBEC7CCD0DBE2D8E6EAC5
:109B00009EACB736475C2D465B31495B35495A42BE
:109B100054626672819FA8B3DDE3E9EAEFF1E9EDF3
:109B2000F1E3E7EDDFE4E9CFD3D9CAD0D4D3DADC6F
:109B3000D4DBDFC7CED6B3BAC4BCC5CDD3DDE3DD3D
:109B4000E7EA3D516C4556723F4F644455667B8D44
:109B50009B8B9BA4979DA4C3C8CFD6E4EACEDFE439
:109B6000A3B4BE67798A5F70836575878A97A8B545
:109B7000C0CFCFD4DFDDDEE8DBDBE3CDCBD4B7BABB
:109B8000C39EA6AE939AA3838A937D858C828B9085
:109B9000889298858E978089938A99A0B6C5CBC5FF
:109BA000D4D828354D3A465E5562747F9099849793
:109BB0009C606B6E777376A39EA1ADB4B6B8C2C538
:109BC000B6C2C6B5C1C8B7C2CAC6D1D9DAE4ECC8F4
:109BD000D2D9AEB5BA9FA5AC91969F848895747D75
:109BE0008A626F7B5E6A76636F7B6976806B79824F
:109BF0007A87918A97A196A4AE9DAEB8BCCED5B90E
:109C0000CBD00D0F231A1D2F868C97CED8DC8A96C9
:109C100096767B7B8D8586ACA2A2B5B5B4CFD1D329
:109C2000DCE0E1E4EAE9E0EAE8E6F1F0E2EEEEB0F9
:109C3000BDBE909FA38A9AA28E9EAA91A3B19AAB11
:109C4000BB95A5B695A5B69AABBB9DAEBDA0B1BF61
:109C5000ADBECCBBCCD9BECFDAB2C4D0A5B7C19D06
:109C6000AFB70505183A3E4FC8CFD9E1E8EFC5CDEB
:109C7000D4C7CFD3D4D4DAE2E0E5E5E6EDE9ECF6FB
:109C8000E8EEF5E6EEEFD1DDDCDFEEEFDDEEF1D272
:109C9000E4EAC6D9E4B4C8D6C1D8E6BCD5E5BDD49B
:109CA000E7C2D6EAC0D4E8B8CCE0ACC1D4ABBFD1EF
:109CB000A1B5C590A5B3889CA98392A1808F9E8AE7
:109CC0009AA5272D47919BB3BECCDEBAC4D8B8C5A0
:109CD000D9C0D3E5C2D3E6C2D0E3C2CEE3BFCBE462
:109CE000C0CFE4BECFDDB1C1CFB4C6D79AB0C19367
:109CF000A9BC91A1B89CABC392A3BA71859C72898F
:109D0000A1849DB47E96AD6F879E5C738A5B7087DD
:109D10005D72855E7483697D8C798597818D9E8166
:109D20008E9C7A87A1A2B3CF8FA0C2899ABD839857
:109D3000BB8098BE7F96C08296C18396C08093BE3A
:109D40007F93BD8195BD8195BC7C91BA687EA364EB
:109D50007A9A66789A7686AA7080A35E6D915E7014
:109D6000945E7599577090536788506182536786E7
:109D70005D6F8B65758D6C7990737D92798594821A
:109D8000909C49576D4C5A714D5A7A505D7F546280
:109D90008657668E5766935A69965E6F986677A067
:109DA0006B7CA57183AC7389B57688BA7684B478F8
:109DB00085AF7388AC6E85A86A7FA364779B5F6D5F
:109DC0009455658B4F6184505C7F505E814D6485F6
:109DD00050648152627A5C687E71778A7D8792884E
:109DE000959C0D1929030B19091023121A30121A08
:109DF0003415193814193A161E3D1A243E222B46E2
:109E00002A334D303B5734456A3C4B79424D7E46B0
:109E10004F7E47577F48587E4351783C48703743C0
:109E20006A354468354567394566394769394E6E44
:109E3000485973576477687180787C8882888D89E7
:109E40009295242E370B1014080D13202C35242D39
:109E50003A161929080B1E03081801041100020FF5
:109E600000020F000414060D2A05123801133C03EA
:109E7000173E0D1D4718265115214D151F4C15264F
:109E80004E162C4F1E3253273A5A394665555A768C
:109E900071738A7B7B8A74737D7A7B80868B8999C8
:109EA000A09E23292D1A1B1A0D13121B2929475175
:109EB0005446464C3132391B1F250F0F1505050B33
:109EC00002020700000711112339405B1F324E0ABE
:109ED000243E041E3C041E3E071E3F0E2345192B44
:109EE0004A2937533E476356617B7A7C929083952B
:109EF000847887726972756F74848685929892AC43
:109F0000B3AF100F110D0A09040A08030C0B2D2C16
:109F10002E413439362B2F24212312121404040726
:109F200002020400010307080F767586A19EB38321
:109F3000809470708369697D69677C6D697F766BD9
:109F40007E8A73859A7E90977E8D7F6A7469565B50
:109F50006A5E617874748182818E9390A4ACA5B896
:109F6000C2BE2828230C0A070003030004040C06C1
:109F7000071E0C11200C11150A0C0706070201031D
:109F8000020102030203000002443A40B68092CD6F
:109F90008294C47F90C27B8DC37789BB7181AC6E84
:109FA0007A96606A7B4B536742455F4746685D58C7
:109FB0007A767181847E848D8798A29EABB6B0B983
:109FC000C5C2454D401A1D150101010101020401E0
:109FD000000C02051203090C020504010202000034
:109FE000020000040001010101200C0B992D3BCB64
:109FF0002F44C32E43BF3045B332439B313B772AB6
:10A00000315B262A51302E5E4D47756E667D7E741B
:10A010007D8078818780909993A2B0ABADBBB7B8B3
:10A02000C6C4535E522F342B01010102010202000B
:10A030000005010207010504000201000001000003
:10A040000100000300000102001B03028E1926CD4F
:10A050002036C6192EA9192B791924551D224A29F3
:10A0600027554238665C52797169807C737A7E73B9
:10A07000797F76848B83939D96A5B3AEB0BFBBBA30
:10A08000C9C75C665D363C32060703030201020263
:10A0900000010301010303010202010101010000AB
:10A0A0000100000101010003020F010066131C9D65
:10A0B0001F2F7511174A0D0C381B164A3A37635A71
:10A0C000517373637A7E6F7C7C707B7B717D82774A
:10A0D00080877E889189949F97A2B0ABB1C0BCBCA9
:10A0E000CAC95763592B332513170B0B0C04080AE5
:10A0F00002050B04020A040207020304010304011F
:10A100000304010203020006060405022A0D0D479E
:10A110001518351B19393229504D3E716252847120
:10A1200065867E717B7E70747D6F788073838A7E96
:10A130008B94898F9A919CA8A1A9B8B3B6C5C1BCCC
:10A14000CAC95260522E3924242C161F23111B1EFB
:10A150000F161C0F111A0D10170C12150C13150DDC
:10A1600014160E13170F131B14171F1525281B4049
:10A17000372D5746436858517466558070588B790F
:10A1800069837A6E757A6B737F707B8577838B7F3B
:10A190008B958A94A0979FACA4AEBDB7B9C8C4BB39
:10A1A000CAC85565533E4B303A4326373D253338B0
:10A1B000232F35212E3522303726313728333829C1
:10A1C000353A2C373E2E3B432D44473051543B68A3
:10A1D000604A7467537F6D5C8574617F79617F7FAE
:10A1E0006B767C6A727D6C7A837581887B889185B9
:10A1F0008D988D95A2999EABA3A8B7B2B4C3BFBAF0
:08A20000C8C7000000000000C7
:0400000508000131BD
:00000001FF
