:020000040800F2
:100000002004002045010008FF060008F70600084C
:10001000FB060008F1060008D907000800000000F0
:1000200000000000000000000000000003070008BE
:10003000F506000800000000010700085D01000847
:100040005F0100085F0100085F0100085F01000810
:100050005F0100085F0100085F0100085F01000800
:100060005F0100085F0100085F0100085F010008F0
:100070005F0100085F0100085F0100085F010008E0
:100080005F0100085F0100085F0100085F010008D0
:100090005F0100085F0100085F0100085F010008C0
:1000A0005F0100085F0100085F0100085F010008B0
:1000B0005F0100085F0100085F0100085F010008A0
:1000C0005F0100085F0100085F0100085F01000890
:1000D0005F0100085F0100085F0100085F01000880
:1000E0005F0100085F0100085F0100085F01000870
:1000F0005F0100085F0100085F0100085F01000860
:100100005F0100085F0100085F0100085F0100084F
:100110005F0100085F0100085F0100085F0100083F
:100120005F0100085F0100085F0100085F0100082F
:10013000DFF80CD000F0CAFA00480047FD0B0008B9
:10014000200400200648804706480047FEE7FEE7F7
:10015000FEE7FEE7FEE7FEE7FEE7FEE7FEE7FEE777
:100160000507000831010008202A04DB203A00FAC4
:1001700002F1002070479140C2F1200320FA03F3FE
:1001800019439040704700000649074A08685043E9
:1001900043F2390210440860400870470149086082
:1001A000704700000C0000206D4EC641F0B480EA9C
:1001B0000102D40F4200B2EB410F02D202460846C0
:1001C00011464A0042D0C30DDDB2C1F3C752AD1A89
:1001D000202D35DAC1F3160141F4000204B1524278
:1001E000C5F1200602FA06F12A411044B3EBD05FB4
:1001F00023D0C4B1012DA0EBC35009DCF0BC4FF0FB
:10020000004202EAC352DBB200F5000000F0D3B9AD
:10021000400000F1807000EBC350A0F1807040EA14
:10022000D170490009E0490841EAC071A0EBC35010
:1002300000F50000400800EBC350F0BC00F0B2B97C
:100240006142012202EB4101001BF6E7F0BC70475E
:1002500081F00041AAE780F00040A7E780EA0102B0
:1002600010B502F00043400022D04A001FD0010E1A
:1002700001EB1261C0F35600C2F3560240F40000D5
:1002800042F40002A0FB022000047F39140400D0D5
:10029000401C50EA124001D44000491EC2B20C0674
:1002A00004EBD010401C4008802A02D003E000205C
:1002B00010BD20F00100002900DA0020184310BD15
:1002C0002DE9FE4F81EA030404F0004421F00041CF
:1002D00000944FF0000B23F0004350EA01045ED07D
:1002E00052EA03045BD0C3F30A54C1F30A552C4409
:1002F000A4F2F3340194A0FB0254C1F3130141F4BE
:100300008011C3F3130343F4801301FB024400FB89
:10031000034E840A970A44EA815447EA8357A4FBB0
:10032000076802958D0A05FB07854FEA932C04FBAD
:100330000C542705029D4FEA065847EA1637B5EBDD
:1003400008056EEB070C870E920E47EA811742EA0A
:100350008312A7FB0201B6EB0B0164EB00042B0D2B
:1003600043EA0C335E1844EB1C50DA465146E7FB77
:100370000201C5F313044FEA0B3343EA14534FEA67
:100380000432019C43EA0603A4F10C040294009C8D
:10039000CDE900B400F04CF903B0BDE8F08F0020C7
:1003A0000146F9E72DE9F04D81EA030404F0004B22
:1003B00021F0004514464FF0000A23F0004150EAB6
:1003C000050220D054EA01021DD0C5F30A570246A7
:1003D000C5F31303C1F31300C1F30A5640F48015AB
:1003E00043F48013A7EB0608101BD64608F2FD382D
:1003F00073EB050002D308F1010801E092185B419C
:10040000B8F1000F03DA00200146BDE8F08D0020AE
:100410004FF48011064684460EE0171B73EB050768
:1004200005D3121B63EB050306434CEA010C490894
:100430004FEA300092185B4150EA0107EDD152EAD1
:10044000030012D082EA040083EA0501084305D0C4
:10045000101BAB4106D20122002306E000224FF020
:10046000004302E06FF0010253101AEB06004CEB60
:10047000085110EB0A0041EB0B01BDE8F04D00F014
:10048000C8B8C10F80EAE0700844CA07962300216B
:1004900000F091B80EB5C10F80EAE0700844CA07B9
:1004A000002140F233438DE80E000A460B4600F06F
:1004B000BFF803B000BD00F0004220F00040C10DC5
:1004C000C0F3160040F400007F2901DA00207047D5
:1004D000962903DCC1F19601C84001E096398840B5
:1004E000002AF4D04042704770B5C1F30A5201F0BF
:1004F00000450024C1F3130140F2FF3341F48011A1
:100500009A4201DA002070BD40F233439A42A2F2CF
:10051000334203DC524200F035F800E090402C43B7
:10052000F1D0404270BD000030B5041E71F10004EE
:1005300004DB4FF00044404264EB0101141E73F1F0
:10054000000405DB1C464FF00043524263EB0403FA
:100550008B4208BF824230BD30B50B4601460020B9
:100560002022012409E021FA02F59D4205D303FA75
:1005700002F5491B04FA02F52844151EA2F10102F6
:10058000F1DC30BD202A04DB203A21FA02F0002100
:10059000704721FA02F3D040C2F120029140084393
:1005A000194670470029A8BF7047401C490008BF82
:1005B00020F00100704710B4B0FA80FC00FA0CF093
:1005C00050EA010404BF10BC704749B1CCF12004CB
:1005D00021FA04F411FA0CF118BF01212143084358
:1005E000A3EB0C01CB1D4FEA00614FEA102042BF84
:1005F000002010BC704700EBC35010440029A4BF7A
:1006000010BC7047401C490008BF20F0010010BC1E
:10061000704710B5141E73F1000408DA401C41F154
:10062000000192185B411A4301D120F0010010BD76
:100630002DE9F04D92469B4611B1B1FA81F202E0EC
:10064000B0FA80F220329046FFF78EFD04460F4646
:1006500040EA0A0041EA0B0153465A46084313D0C8
:10066000114653EA010019D0C8F140025046FFF785
:1006700089FF05460E46504659464246FFF774FD2F
:10068000084305D0012004E020463946BDE8F08D3E
:100690000020054346EAE0762C4337430A98630579
:1006A000E40AA0EB08000022FD0A44EA47540A309D
:1006B00002D500200146E9E7010510196941DDE98D
:1006C000084500196941BDE8F04DA2E7064C074D09
:1006D00006E0E06840F0010394E807009847103412
:1006E000AC42F6D3FFF728FDB0120008D012000884
:1006F00000BFFEE7704700BFFEE700BFFEE77047A0
:100700007047704708B53048006840F001002E4936
:10071000086000BF2C48006800F002000028F9D0F3
:1007200000BF2948406840F0800027494860002009
:10073000009002E00098401C009000985028F9D3E7
:100740002148406840F090001F4948600020009018
:1007500002E00098401C009000985028F9D300BF98
:100760001948406820F003001749486008460068AF
:100770001649084014490860084640681449084072
:100780001149486008460068104908400E49086051
:100790000846006820F480200860084640680D493B
:1007A0000840094948600846006808490840064969
:1007B00008604FF41F00886000F05AFC00214FF0E1
:1007C000006000F077FA08BD00100240FFFFF6FE5F
:1007D0000C00FFE8FFFF00F700BFFEE70FB4054B7A
:1007E00010B503A9044A029800F018F810BC5DF88F
:1007F00014FB00004D0A00081000002002E008C8A9
:10080000121F08C1002AFAD170477047002001E08A
:1008100001C1121F002AFBD1704700002DE9FF4FD4
:1008200089B09B460446002506E025280BD05A4691
:100830000B999047641C6D1C20780028F5D10DB0F1
:100840002846BDE8F08F0027B8460122474900E05E
:10085000074314F8013F203B02FA03F00842F7D1A6
:1008600020782E2819D114F8010F47F004072A2800
:100870000ED06FF02F022078A0F1300109290CD89A
:1008800008EB880102EB410100EB0108641CF2E770
:100890000A98641C50F8048B0A9020780028CED067
:1008A000642808D0692806D075281ED05A460B99AE
:1008B00090476D1C58E00A994FF00A0901C90A9146
:1008C000002802DA40422D2102E0390504D52B210F
:1008D0008DF82010012103E0F90704D02021F7E76B
:1008E0008A4608AE0DE00021FAE70A994FF00A099E
:1008F00001C90A91F7E74946FFF72EFE303106F8A5
:10090000011D0028F7D1ADEB060000F120097807A2
:1009100001D44FF00108C84502DDA8EB090000E052
:1009200000208046002706E008A85A46C05D0B99C3
:1009300090476D1C7F1C5745F6DB04E030205A467B
:100940000B9990476D1CB8F10001A8F10108F5DC86
:1009500005E016F8010B5A460B9990476D1CB9F14A
:100960000001A9F10109F4DC641C65E70928010014
:1009700070B504463C20B4FBF0F6B4FBF0F100FB8C
:10098000114503E03C2000F009F8761E002EF9D155
:1009900015B1284600F002F870BD000001460020A5
:1009A000114A12684A434FF0E0235A6100229A61CB
:1009B0001A46126942F001021A6100BF4FF0E022AC
:1009C000106900F001021AB100F48032002AF5D05B
:1009D0004FF0E022126922F001024FF0E0231A6189
:1009E00000229A61704700000800002070B590B0A6
:1009F00047F6FF70FFF7D2FB002405E000F0ECF9AA
:100A000001A941F82400641C0F2CF7DB01A800F0B9
:100A10009DF9002415E0002500260CE001A92846D8
:100A200000F09EFA054601A9284600F04BFB01A9FB
:100A300041F82500761C032EF0DB01A800F086F9B2
:100A4000641CB4F57A7FE6DB10B070BD70B5044667
:100A50000D46E1B2054800F0DBFB00BF072103486B
:100A600000F0DFFB0028F9D0204670BD00380140BF
:100A70000022034B1A68130C03800A8070470000A1
:100A8000E0F7FF1F0549096801600449091F09686B
:100A9000416002490839096881607047F0F7FF1F1B
:100AA000F0B5044616460025002201F00F0501F0BE
:100AB000100707B1354300201EE0012787401F4083
:100AC000C7B122684FEA800C0F2707FA0CF7BA4328
:100AD000870005FA07F73A43282904D10127874000
:100AE0001F40676105E0482903D1012787401F4067
:100AF00027612260471CB8B20828DED3082022E014
:100B0000012787401F40E7B16268A0F108074FEA5C
:100B1000870C0F2707FA0CF7BA43A0F10807BF00AC
:100B200005FA07F73A43282904D1012787401F40D7
:100B3000676105E0482903D1012787401F402761ED
:100B40006260471CB8B21028DAD3F0BD10B540F28D
:100B5000066000F0F5F94FF480630122102112487D
:100B6000FFF79EFF4FF40063012210210E48FFF7AC
:100B700097FF4FF48053012210210B48FFF790FF9D
:100B80004FF40053012210210748FFF789FF00208E
:100B9000064908600649C1F8AC01044908310860FB
:100BA0000349C1F8B40110BD00180140A801234257
:100BB000000023420020064908600649C1F8AC0144
:100BC0000349083108600349C1F8B40170470000C7
:100BD000A80123420000234201200649086006497B
:100BE000C1F8AC010349083108600349C1F8B401F8
:100BF00070470000A801234200002342602000F05B
:100C00004FFAFFF7A3FF4FF4165000F05FF81249B8
:100C1000881EFFF72DFF1048801E028841880FA014
:100C2000FFF7DCFD1A48FFF72DFF1948836842687B
:100C3000016818A0FFF7D2FDFFF7D8FE0BE0FFF721
:100C4000CBFF4FF47A70FFF793FEFFF7B3FF4FF43B
:100C50007A70FFF78DFEF2E702000020474433323E
:100C600046313033564B543620466C6173682053FE
:100C7000697A653D25644B422C5372616D2053693E
:100C80007A653D25644B422E2E2E0D0A0000000091
:100C9000140000204744333246313033564B54362B
:100CA000205549443D2564256425642E2E2E0D0AC9
:100CB00000000000034A0A400243034B1A60BFF3DE
:100CC0004F8F704780FFFF1F08ED00E010B504460E
:100CD00040F2026000F034F940F20E6000F030F9AA
:100CE0004FF40073032218211648FFF7D9FE4FF482
:100CF0008063032248211348FFF7D2FE21461248A1
:100D000000F03EFA0021104800F0CAFA00210E4817
:100D100000F0B6FA00210C4800F0A2FA00210A48BF
:100D200000F08EFA0021084800F092FA08210648E7
:100D300000F0AEFA0421044800F09AFA024800F0EC
:100D40006BFA10BD000801400038014070B505463F
:100D5000012405E055F8241004A0FFF73FFD641CB2
:100D60000F2CF7DB02A0FFF739FD70BD25640900E9
:100D70000A0000002DE9F04700BFFFF705FA8246A0
:100D80006FF000418842F8D05046FFF783FB0646DB
:100D9000074A084BFFF706FB044600224FF080434A
:100DA000FFF78EFA8046FFF79FFBBDE8F087000053
:100DB0000000C0FFFFFFDF4170B5FFF7E5F9064611
:100DC000FFF768FB0446024A024BFFF7EBFA70BDDF
:100DD0000000C0FFFFFFDF412DE9F04700BFFFF734
:100DE000D3F982466FF000418842F8D05046FFF7B1
:100DF00051FB0646064A074BFFF7D4FA0446002289
:100E0000054BFFF75DFA8046FFF76EFBBDE8F08704
:100E10000000C0FFFFFFDF41004059402DE9F04FC7
:100E20008BB00746002009903EA090E8004CC068B7
:100E3000CDE905BECDF810A007900FF2EC0ADAE973
:100E4000000ACDE9020A0FF2E00ADAE9000ACDE968
:100E5000000A38484068C0F381000A900A9820B11F
:100E6000012804D0022829D103E0334928E032497F
:100E700026E03048406800F48038B8F5803F09D15A
:100E80002D4C2C48406800F40039B9F5003F02D1E0
:100E9000641000E0294C27484068C0F3834225488D
:100EA000406800F0006008B142F010020F2A01D241
:100EB000921C00E0521C04FB02F101E01E4900BF3D
:100EC00000BF1C484068C0F3031504A8465D21FA22
:100ED00006F318484068C0F3022502A8465D23FACD
:100EE00006FC14484068C0F3C2251DF8056023FACB
:100EF00006F0089037B1012F06D0022F06D0032F3D
:100F00000AD106E0099108E0099306E0CDF824C073
:100F100003E00898099000E000BF00BF09980BB0FB
:100F2000BDE8F08F00000000000000000102030493
:100F3000060708090010024000127A0000093D006F
:100F4000064A02EB9011096800F01F0301229A4043
:100F50001143024B03EB90121160704700100240E6
:100F60002DE9F04104468846FFF726FF06464FF07C
:100F700080420F4BFFF7D8FA08D2FFF7FBFE10B9FB
:100F80006000451C11E06000851C0EE06000401C04
:100F900058F820106000801C58F82000814202DDC3
:100FA0006000451C01E06000851C2846BDE8F0811A
:100FB0003333D33F002000212B4A126842F48032A1
:100FC000294B1A6000BF401C274A126802F4003106
:100FD00019B94FF6FF729042F5D1234A126802F414
:100FE00000320AB900BFFEE71F4A52681E4B5A6022
:100FF0001A4652685A601A46526842F480625A6031
:101000001A46526822F440325A601A46526842F434
:1010100080325A601A465268144B1A40124B5A607A
:101020001A46526842F420125A601A46126842F078
:1010300080721A6000BF0C4A126802F00072002A27
:10104000F9D0094A526822F00302074B5A601A4647
:10105000526842F002025A6000BF034A526802F02E
:101060000C02082AF9D1704700100240FFFFC3F7B5
:1010700010B5FFF79FFF10BD042808D14FF0E02105
:10108000096941F004014FF0E022116107E04FF0DF
:10109000E021096921F004014FF0E022116170475D
:1010A00010B504460420FFF7E7FF044804704FF42E
:1010B0007A7060430249086010BD000004000020FF
:1010C000080000202DE9FE4F04460D46062C1CDDCD
:1010D0000E2C17D155F82410C1F57A70FFF7D1F90D
:1010E00083462549FFF7BAF8814655F82400FFF7F3
:1010F000C8F982464946FFF759F88046FFF7DBF901
:10110000064636E055F8246033E06000401C55F890
:1011100020106000801C55F82000814204DD600032
:10112000401C55F8207003E06000801C55F82070CA
:1011300055F82400FFF7A5F901903846FFF7A1F90B
:101140000E490090FFF78AF883460199FFF780F86F
:1011500082460949FFF782F8814655F82400FFF7D7
:1011600090F949460290FFF721F88046FFF7A3F96E
:1011700006463046BDE8FE8FCDCCCC3D6666663F68
:101180002DE9F04704460D460027B846B94600262B
:101190001D49601A8C421CD006DC1C48204470B1EA
:1011A000B0F5806F1FD10FE0B0F5806F16D0B0F5AD
:1011B0006C4F18D10320FFF731FE074614E00220E0
:1011C000FFF72CFE07460FE00220FFF727FE074639
:1011D0000AE00220FFF722FE074605E00220FFF7A3
:1011E0001DFE074600E000BF00BF07EB5500B0FB47
:1011F000F5F64FF6F07006EA000806F00F0948EA27
:101200000900A060BDE8F087004C004000BCFFBFB3
:10121000C1F3080242607047C16841F40051C160E7
:10122000704710B5024602EB9110006801F01F04F0
:101230000123A340184008B1012010BD0020FCE7A5
:101240000A460021416921F4007111434161704750
:101250000A460021416921F48071114341617047C0
:10126000C26822F4C062C260C2680A43C2607047AA
:101270000A460021C16821F004011143C160704792
:10128000026922F44052026102690A430261704716
:101290000A460021C16821F008011143C16070476E
:1012A000C26822F48052C260C2680A43C2607047BA
:1012B000D01200080000002014000000FC07000805
:1012C000E4120008140000200C0400000C080008C0
:1012D000000000000000000000000000000000000E
:0412E000000000000A
:0400000508000131BD
:00000001FF
