:020000040800F2
:10000000801E002045010008C7010008BF0100084C
:10001000C3010008B9010008A102000800000000A7
:10002000000000000000000000000000CB010008FC
:10003000BD01000800000000C90100085D010008C2
:100040005F0100085F0100085F0100085F01000810
:100050005F0100085F0100085F0100085F01000800
:100060005F0100085F0100085F0100085F010008F0
:100070005F0100085F0100085F0100085F010008E0
:100080005F0100085F0100085F0100085F010008D0
:100090005F0100085F0100085F0100085F010008C0
:1000A0005F0100085F0100085F0100085F010008B0
:1000B0005F0100085F0100085F0100085F010008A0
:1000C0005F0100085F0100085F0100085F01000890
:1000D0005F0100085F0100085F0100085F01000880
:1000E0005F0100085F0100085F0100085F01000870
:1000F0005F0100085F0100085F0100085F01000860
:100100005F0100085F0100085F0100085F0100084F
:100110005F0100085F0100085F0100085F0100083F
:100120005F0100085F0100085F0100085F0100082F
:10013000DFF80CD000F02EF800480047C50B00088F
:10014000801E00200648804706480047FEE7FEE77D
:10015000FEE7FEE7FEE7FEE7FEE7FEE7FEE7FEE777
:10016000CD0100083101000830B50B4601460020E2
:100170002022012409E021FA02F59D4205D303FA69
:1001800002F5491B04FA02F52844151EA2F10102EA
:10019000F1DC30BD064C074D06E0E06840F001039D
:1001A00094E8070098471034AC42F6D3FFF7C4FF39
:1001B000981B0008B81B000800BFFEE7704700BF8F
:1001C000FEE700BFFEE770477047704708B530484C
:1001D000006840F001002E49086000BF2C4800680C
:1001E00000F002000028F9D000BF2948406840F024
:1001F0008000274948600020009002E00098401CE1
:10020000009000985028F9D32148406840F09000B1
:100210001F4948600020009002E00098401C0090B8
:1002200000985028F9D300BF1948406820F0030017
:100230001749486008460068164908401449086094
:10024000084640681449084011494860084600685B
:10025000104908400E4908600846006820F48020D4
:100260000860084640680D4908400949486008464A
:10027000006808490840064908604FF41F0088607C
:1002800000F048FE00214FF0006000F0F7FC08BDD0
:1002900000100240FFFFF6FE0C00FFE8FFFF00F732
:1002A00000BFFEE70FB4054B10B503A9044A02983E
:1002B00000F018F810BC5DF814FB00001D090008E0
:1002C0002C19002002E008C8121F08C1002AFAD128
:1002D00070477047002001E001C1121F002AFBD1C6
:1002E000704700002DE9FF4F89B09B46044600256A
:1002F00006E025280BD05A460B999047641C6D1CCC
:1003000020780028F5D10DB02846BDE8F08F0027F1
:10031000B8460122474900E0074314F8013F203B5B
:1003200002FA03F00842F7D120782E2819D114F8E8
:10033000010F47F004072A280ED06FF02F02207813
:10034000A0F1300109290CD808EB880102EB41012A
:1003500000EB0108641CF2E70A98641C50F8048B57
:100360000A9020780028CED0642808D0692806D0CA
:1003700075281ED05A460B9990476D1C58E00A9973
:100380004FF00A0901C90A91002802DA40422D21E2
:1003900002E0390504D52B218DF82010012103E05E
:1003A000F90704D02021F7E78A4608AE0DE00021C6
:1003B000FAE70A994FF00A0901C90A91F7E7494695
:1003C000FFF7D2FE303106F8011D0028F7D1ADEB62
:1003D000060000F12009780701D44FF00108C84554
:1003E00002DDA8EB090000E000208046002706E0BF
:1003F00008A85A46C05D0B9990476D1C7F1C574555
:10040000F6DB04E030205A460B9990476D1CB8F19A
:100410000001A8F10108F5DC05E016F8010B5A46C9
:100420000B9990476D1CB9F10001A9F10109F4DCA9
:10043000641C65E70928010010B5134604E030F894
:10044000024B21F8024B5B1E002BF8D110BD2DE9A9
:10045000FF4F87B01746DDE914640A984FEAA00CF5
:100460000899179A169BD6E013F9018B08FA06F93A
:100470004FF0010808FA04F809EB580A13F9018B48
:1004800008FA06F84FF0010909FA04F908EB5908CF
:10049000CDF8188013F9018B08FA06F84FF001091E
:1004A00009FA04F908EB5908CDF8148013F9018B07
:1004B00008FA06F84FF0010909FA04F908EB59089F
:1004C000CDF810807810079D58E035F9028B35F98A
:1004D000029B11F901BBCDF80CB011F901BBCDF8AD
:1004E00008B011F901BBCDF804B011F901BBCDF88A
:1004F00000B0DDF80CB008FB0BFEDDF804B009FB22
:100500000BEBDA44DDF808B008FB0BFBDDF800E08C
:1005100009FB0EBEDDF818B0F344CDF818B011F9A0
:1005200001BBCDF80CB011F901BBCDF808B011F941
:1005300001BBCDF804B011F901BBCDF800B0DDF876
:100540000CB008FB0BFBDDF804E009FB0EBEDDF888
:1005500014B0F344CDF814B0DDF808B008FB0BFE7E
:10056000DDF800B009FB0BEEDDF810B0F344CDF878
:1005700010B0A0F1010B1FFA8BF000BF0028A4D12E
:1005800007F0010022E035F9028B11F9019B08FB0D
:1005900009AA11F9019BDDF818B008FB09BBCDF8D9
:1005A00018B011F9019BDDF814B008FB09BBCDF8B8
:1005B00014B011F9019BDDF810B008FB09BBCDF8B0
:1005C00010B0A0F1010B1FFA8BF000BF0028DAD1A8
:1005D0004AFA04F808F30F0822F8028BDDF81880B5
:1005E00048FA04F808F30F0822F8028BDDF81480AB
:1005F00048FA04F808F30F0822F8028BDDF810809F
:1006000048FA04F808F30F0822F8028BACF101084D
:100610001FFA88FC00BFBCF1000F7FF425AF0A98D9
:1006200000F0030C22E013F9019B09FA06FA4FF0DF
:10063000010909FA04F90AEB5900079D4FF0000877
:1006400007E035F9029B11F901AB09FB0A0008F13B
:100650000108B845F5DB40FA04F909F30F0922F85F
:10066000029BACF101091FFA89FC00BFBCF1000F2D
:10067000D9D100200BB0BDE8F08FF0B51C4609E0E1
:1006800030F9025B31F9027B7D4325F3CF3522F847
:10069000025B641E002CF3D1F0BD00002DE9FF4F7A
:1006A00004460E461F46B4462146A046C2F10B053D
:1006B000ABB240F2FF7545FA02F909F10105039565
:1006C00017B1012F02D102E01F4802E000BF1F480E
:1006D00000BF00BF32E031F9025B05EA090B0FFAF7
:1006E0008BFA45FA03FB8BF3080B30F91BB0CDF8FE
:1006F00004B045FA03FB0BF1010B8BF3080B30F947
:100700001BB0CDF800B0DDF80CB0ABEB0A0BDDF898
:1007100004E00BFB0EFBDDF800E00EFB0ABB4BFA1E
:1007200003FB0FFA8BFBCDF808B0DDF808B028F812
:1007300002BBACF1010B1FFA8BFC00BFBCF1000F38
:10074000C9D1BDE8FF8F00009811000818170008F4
:1007500070B51C4607E030F9026B751805F30F05FC
:1007600022F8025B641E002CF5D170BDF0B51C466A
:1007700009E030F9026B31F9027BF51B05F30F0537
:1007800022F8025B641E002CF3D1F0BD70B5044664
:100790003C20B4FBF0F6B4FBF0F100FB114503E0A4
:1007A0003C2000F009F8761E002EF9D115B128463C
:1007B00000F002F870BD000001460020114A1268E6
:1007C0004A434FF0E0235A6100229A611A461269A7
:1007D00042F001021A6100BF4FF0E022106900F000
:1007E00001021AB100F48032002AF5D04FF0E02265
:1007F000126922F001024FF0E0231A6100229A618F
:10080000704700000800002030B585B021A0FFF738
:1008100049FD20252024254800EB44012A46244890
:10082000FFF70AFE214800EB440000EB4501224699
:100830002048FFF701FE20482049214A214BCDE9FD
:100840000132CDE903102048224629461F4B009073
:10085000164800F0E3F81EA0FFF724FD134800EB54
:1008600044012A462348FFF7E7FD13481349144A79
:10087000144BCDE90132CDE9031013482246294635
:10088000124B0090094800F0C9F81BA0FFF70AFDC1
:1008900005B030BD5374617274204752552065789D
:1008A00065637574696F6E0A000000003C190020D2
:1008B0006C180020EC1800204C1800202C18002088
:1008C0000C1800200C1000200C0800200C00002048
:1008D000436F6D706C65746520666972737420690E
:1008E0007465726174696F6E206F6E204752550A8D
:1008F00000000000AC180020436F6D706C657465DB
:10090000207365636F6E6420697465726174696FCA
:100910006E206F6E204752550A00000070B50446E5
:100920000D46E1B2054800F067FB00BF0721034810
:1009300000F06BFB0028F9D0204670BD0038014064
:100940000022034B1A68130C03800A8070470000D2
:10095000E0F7FF1F0549096801600449091F09689C
:10096000416002490839096881607047F0F7FF1F4C
:10097000F0B5044616460025002201F00F0501F0EF
:10098000100707B1354300201EE0012787401F40B4
:10099000C7B122684FEA800C0F2707FA0CF7BA4359
:1009A000870005FA07F73A43282904D10127874031
:1009B0001F40676105E0482903D1012787401F4098
:1009C00027612260471CB8B20828DED3082022E045
:1009D000012787401F40E7B16268A0F108074FEA8E
:1009E000870C0F2707FA0CF7BA43A0F10807BF00DE
:1009F00005FA07F73A43282904D1012787401F4009
:100A0000676105E0482903D1012787401F4027611E
:100A10006260471CB8B21028DAD3F0BD2DE9F04F60
:100A200087B006460F4614469A46354606EB440004
:100A3000069006EB440000EB470B06EB840000EB4E
:100A4000470804EB440006EB400000EB4709002197
:100A50000F221398CDE90351CDE900120290381905
:100A600082B2234610990698FFF7F1FC00231A463C
:100A700021462846FFF712FE23462A4629465846B5
:100A8000FFF7FBFD00210F221298CDE90381CDE98C
:100A900000120290381982B2234651460698FFF799
:100AA000D6FC00231A4621464046FFF7F7FD0021F9
:100AB0000F221498CDE90391CDE900120290381964
:100AC00082B2234628461199FFF7C1FC0123002278
:100AD00021464846FFF7E2FD23464A46494640463E
:100AE000FFF7CBFD2346424609494046FFF730FE5B
:100AF0002346424641465846FFF7BFFD23465A4625
:100B000041464846FFF732FE07B0BDE8F08F0000CF
:100B10000080FFFF10B540F2066000F08DF94FF441
:100B20008063012210211248FFF722FF4FF4006377
:100B3000012210210E48FFF71BFF4FF480530122C2
:100B400010210B48FFF714FF4FF40053012210212E
:100B50000748FFF70DFF0020064908600649C1F865
:100B6000AC010449083108600349C1F8B40110BD63
:100B700000180140A801234200002342002006493A
:100B800008600649C1F8AC0103490831086003490F
:100B9000C1F8B40170470000A801234200002342BD
:100BA0000120064908600649C1F8AC010349083133
:100BB00008600349C1F8B40170470000A80123424E
:100BC00000002342602000F0BDF9FFF7A3FF4FF4BF
:100BD000E13000F05FF81249881EFFF7B1FE1048BF
:100BE000801E028841880FA0FFF75CFB1A48FFF7C0
:100BF000B1FE194883684268016818A0FFF752FBEC
:100C0000FFF702FE0BE0FFF7CBFF4FF47A70FFF720
:100C1000BDFDFFF7B3FF4FF47A70FFF7B7FDF2E7C2
:100C2000020000204744333246313033564B5436AD
:100C300020466C6173682053697A653D25644B4298
:100C40002C5372616D2053697A653D25644B422EA9
:100C50002E2E0D0A000000003019002047443332C8
:100C600046313033564B5436205549443D25642592
:100C70006425642E2E2E0D0A00000000034A0A404F
:100C80000243034B1A60BFF34F8F704780FFFF1F73
:100C900008ED00E010B5044640F2026000F0CCF828
:100CA00040F20E6000F0C8F84FF4007303221821E0
:100CB0001648FFF75DFE4FF4806303224821134876
:100CC000FFF756FE2146124800F04EF90021104869
:100CD00000F0DAF900210E4800F0C6F900210C48B6
:100CE00000F0B2F900210A4800F09EF900210848FE
:100CF00000F0A2F90821064800F0BEF904210448DA
:100D000000F0AAF9024800F07BF910BD000801408C
:100D1000003801402DE9F04F8BB0074600200990C4
:100D20003EA090E8004CC068CDE905BECDF810A00B
:100D300007900FF2EC0ADAE9000ACDE9020A0FF295
:100D4000E00ADAE9000ACDE9000A38484068C0F351
:100D500081000A900A9820B1012804D0022829D1E4
:100D600003E0334928E0324926E03048406800F487
:100D70008038B8F5803F09D12D4C2C48406800F4EC
:100D80000039B9F5003F02D1641000E0294C274832
:100D90004068C0F383422548406800F0006008B115
:100DA00042F010020F2A01D2921C00E0521C04FBF8
:100DB00002F101E01E4900BF00BF1C484068C0F3BB
:100DC000031504A8465D21FA06F318484068C0F3ED
:100DD000022502A8465D23FA06FC14484068C0F3C9
:100DE000C2251DF8056023FA06F0089037B1012FDF
:100DF00006D0022F06D0032F0AD106E0099108E0A1
:100E0000099306E0CDF824C003E00898099000E0BB
:100E100000BF00BF09980BB0BDE8F08F00000000D4
:100E20000000000001020304060708090010024048
:100E300000127A0000093D00064A02EB9011096891
:100E400000F01F0301229A401143024B03EB901262
:100E50001160704700100240002000212B4A1268E8
:100E600042F48032294B1A6000BF401C274A1268A6
:100E700002F4003119B94FF6FF729042F5D1234ABE
:100E8000126802F400320AB900BFFEE71F4A526836
:100E90001E4B5A601A4652685A601A46526842F40B
:100EA00080625A601A46526822F440325A601A46EA
:100EB000526842F480325A601A465268144B1A4003
:100EC000124B5A601A46526842F420125A601A466F
:100ED000126842F080721A6000BF0C4A126802F079
:100EE0000072002AF9D0094A526822F00302074B27
:100EF0005A601A46526842F002025A6000BF034A22
:100F0000526802F00C02082AF9D170470010024022
:100F1000FFFFC3F710B5FFF79FFF10BD042808D1EE
:100F20004FF0E021096941F004014FF0E022116126
:100F300007E04FF0E021096921F004014FF0E022C1
:100F40001161704710B504460420FFF7E7FF04481D
:100F500004704FF47A7060430249086010BD0000CD
:100F600004000020080000202DE9F04704460D464B
:100F70000027B846B94600261D49601A8C421CD08D
:100F800006DC1C48204470B1B0F5806F1FD10FE023
:100F9000B0F5806F16D0B0F56C4F18D10320FFF775
:100FA000B9FE074614E00220FFF7B4FE07460FE043
:100FB0000220FFF7AFFE07460AE00220FFF7AAFE75
:100FC000074605E00220FFF7A5FE074600E000BF48
:100FD00000BF07EB5500B0FBF5F64FF6F07006EAE0
:100FE000000806F00F0948EA0900A060BDE8F08794
:100FF000004C004000BCFFBFC1F3080242607047D4
:10100000C16841F40051C160704710B5024602EB5F
:101010009110006801F01F040123A340184008B19B
:10102000012010BD0020FCE70A460021416921F49F
:1010300000711143416170470A460021416921F462
:101040008071114341617047C26822F4C062C2607E
:10105000C2680A43C26070470A460021C16821F095
:1010600004011143C1607047026922F440520261D9
:1010700002690A43026170470A460021C16821F0F3
:1010800008011143C1607047C26822F48052C260F7
:10109000C2680A43C260704740424446484A4C4EC8
:1010A0005052535557595A5C5E5F6162636566677B
:1010B000696A6B6C6D6E6F70717272737474757631
:1010C000767777787879797A7A7A7B7B7B7C7C7C87
:1010D0007C7C7D7D7D7D7D7E7E7E7E7E7E7E7E7F38
:1010E0007F7F7F7F7F7F7F7F7F7F7F7F7F7F7F7F10
:1010F0007F7F7F7F7F7F7F7F7F7F7F7F7F7F7F7F00
:101100007F7F7F7F7F7F7F7F7F7F7F7F7F7F7F7FEF
:101110007F7F7F7F7F7F7F7F0000000000000000D7
:1011200000000000000000000000000000000000BF
:1011300000000000000000000000000000000000AF
:10114000010101010101010101010101010101018F
:10115000010102020202020202020303030303046A
:10116000040404040505050606060707080809091E
:101170000A0A0B0C0C0D0E0E0F101112131415167B
:1011800017191A1B1D1E1F2122242627292B2D2E3D
:1011900030323436383A3C3E00400042FF43FC4592
:1011A000F547EB49DC4BC84DAD4F8A5160532C5588
:1011B000EF56A858575AFB5B935D205FA1601662FB
:1011C0007F63DB642B666F67A668D269F16A056C82
:1011D0000D6D096EFB6EE26FBE70907158721673E2
:1011E000CC7378741B75B7754A76D6765B77D877EB
:1011F0004F78C0782A798F79EE79487A9D7AED7A9E
:10120000397B807BC47B037C3F7C787CAD7CE07C3D
:101210000F7D3C7D667D8D7DB37DD67DF77D167E11
:10122000337E4F7E697E817E987EAE7EC27ED57E85
:10123000E77EF87E087F177F257F327F3E7F4A7FDB
:10124000557F5F7F697F727F7B7F837F8A7F917FFE
:10125000987F9E7FA47FAA7FAF7FB47FB87FBD7F3A
:10126000C17FC57FC87FCC7FCF7FD27FD57FD77F1F
:10127000DA7FDC7FDE7FE07FE27FE47FE67FE77F6F
:10128000E97FEA7FEB7FED7FEE7FEF7FF07FF17FFD
:10129000F27FF37FF47FF47F0B000C000C000D0055
:1012A0000E000F00100011001200130015001600B0
:1012B000170019001A001C001E0020002200240044
:1012C000260029002B002E003100340038003B009E
:1012D0003F00430048004C00510056005C00620093
:1012E00068006F0076007D0085008E009700A100E9
:1012F000AB00B600C200CE00DB00E900F800080138
:1013000019012B013E01520168017F019701B101D2
:10131000CD01EA0109022A024D0273029A02C402B7
:10132000F102200353038803C103FD033C0480043E
:10133000C70413056305B80512067106D6064007F3
:10134000B1072808A5082A09B609490AE50A880B41
:10135000340CEA0CA80D700E420F1E100511F71187
:10136000F312FB130F152E165A179118D519251BBA
:10137000811CEA1D5F1FE0206D220524A925582746
:101380001129D42AA02C762E533038322434153625
:101390000B38043A013C003E004000410042FF424D
:1013A000FF43FD44FC45F946F547F148EB49E54A62
:1013B000DC4BD34CC84DBB4EAD4F9C508A5176523E
:1013C000605347542C550F56EF56CD57A8588159A6
:1013D000575A2A5BFB5BC95C935D5B5E205FE25FF3
:1013E000A1605D611662CC627F632E64DB648465FC
:1013F0002B66CE666F670C68A6683D69D269636A22
:10140000F16A7C6B056C8A6C0D6D8D6D096E846E56
:10141000FB6E706FE26F5170420FAF0F1E10901095
:1014200005117C11F7117312F3127613FB13841458
:101430000F159D152E16C3165A17F4179118321949
:10144000D5197C1A251BD21B811C341DEA1DA31E35
:101450005F1F1E20E020A5216D2237230524D624FE
:10146000A9257F26582733281129F129D42AB92BF9
:10147000A02C8A2D762E642F5330453138322D33EF
:1014800024341B3515360F370B380739043A033B24
:10149000013C013D003E003FBE70907158721673D2
:1014A000CC7378741B75B7754A76D6765B77D87728
:1014B0004F78C0782A798F79EE79487A9D7AED7ADB
:1014C000397B807BC47B037C3F7C787CAD7CE07C7B
:1014D0000F7D3C7D667D8D7DB37DD67DF77D167E4F
:1014E000337E4F7E697E817E987EAE7EC27ED57EC3
:1014F000E77EF87E087F177F257F327F3E7F4A7F19
:10150000557F5F7F697F727F7B7F837F8A7F917F3B
:10151000987F9E7FA47FAA7FAF7FB47FB87FBD7F77
:10152000C17FC57FC87FCC7FCF7FD27FD57FD77F5C
:10153000DA7FDC7FDE7FE07FE27FE47FE67FE77FAC
:10154000E97FEA7FEB7FED7FEE7FEF7FF07FF17F3A
:10155000F27FF37FF47FF47F0B000C000C000D0092
:101560000E000F00100011001200130015001600ED
:10157000170019001A001C001E0020002200240081
:10158000260029002B002E003100340038003B00DB
:101590003F00430048004C00510056005C006200D0
:1015A00068006F0076007D0085008E009700A10026
:1015B000AB00B600C200CE00DB00E900F800080175
:1015C00019012B013E01520168017F019701B10110
:1015D000CD01EA0109022A024D0273029A02C402F5
:1015E000F102200353038803C103FD033C0480047C
:1015F000C70413056305B80512067106D606400731
:10160000B1072808A5082A09B609490AE50A880B7E
:10161000340CEA0CA80D700E000810181F272E3588
:101620003B41474C51565A5E6165686A6D6F7172F5
:101630007475767878797A7B7B7C7C7D7D7E7E7E06
:101640007E7E7F7F7F7F7F7F7F7F7F7F7F7F7F7FAC
:101650007F7F7F7F7F7F7F7F7F7F7F7F7F7F7F7F9A
:101660007F7F7F7F7F7F7F7F7F7F7F7F7F7F7F7F8A
:101670007F7F7F7F7F7F7F7F7F7F7F7F7F7F7F7F7A
:101680007F7F7F7F7F7F7F7F7F7F7F7F7F7F7F7F6A
:101690007F7F7F7F7F7F7F7F808080808080808052
:1016A000808080808080808080808080808080803A
:1016B000808080808080808080808080808080802A
:1016C000808080808080808080808080808080801A
:1016D000808080808080808080808080808080800A
:1016E00080808080808080818181818181818182F0
:1016F00082828282838384848585868788888A8B98
:101700008C8E8F919396989B9FA2A6AAAFB4B9BFD7
:10171000C5CBD2D9E1E8F0F80000FD07EB0FB9170F
:10172000591FBF26DF2DAE34273B4241FD46564CA4
:101730004D51E2551A5AF65D7C61B0649767376A7D
:10174000956CB56E9E705472DC733A7572768877BC
:101750007F785B791E7ACB7A657BEE7B667CD17C69
:10176000307D847DCE7D0F7E497E7D7EAA7ED27EB9
:10177000F57E147F307F487F5E7F717F827F917F0F
:101780009E7FA97FB37FBC7FC47FCB7FD17FD77F74
:10179000DC7FE07FE47FE77FEA7FED7FEF7FF17F13
:1017A000F37FF47FF67FF77FF87FF97FFA7FFA7F88
:1017B000FB7FFC7FFC7FFD7FFD7FFD7FFE7FFE7F4B
:1017C000FE7FFE7FFF7FFF7FFF7FFF7FFF7FFF7F2B
:1017D000FF7FFF7FFF7FFF7FFF7FFF7FFF7FFF7F19
:1017E000FF7FFF7FFF7FFF7FFF7FFF7FFF7FFF7F09
:1017F000FF7FFF7FFF7FFF7FFF7FFF7FFF7FFF7FF9
:10180000FF7FFF7FFF7FFF7FFF7FFF7FFF7FFF7FE8
:10181000FF7FFF7FFF7FFF7F0080008000800080D0
:1018200000800080008000800080008000800080B8
:1018300000800080008000800080008000800080A8
:101840000080008000800080008000800080008098
:101850000080008000800080008000800180018086
:10186000018001800180018001800180018002806F
:101870000280028002800380038003800480048051
:101880000580068006800780088009800A800C8019
:101890000D800F8011801380168019801C8020809D
:1018A000248029802F8035803C8044804D80578063
:1018B00062806F807E808F80A280B880D080EC8034
:1018C0000B812E8156818381B781F18132827C82A6
:1018D000D0822F839A8312849B843585E285A586E6
:1018E000818778888E89C68A248CAC8D628F4B91D3
:1018F0006B93C9956998509B849E0AA2E6A51EAA7F
:10190000B3AEAAB303B9BEBED9C452CB21D241D91A
:10191000A7E047E815F003F800000004FD07F70B07
:10192000EB0FD713B917901B591F1423BF26582A42
:10193000DF2D5131AE34F637273B403E42412C4437
:10194000FD46B649564CDD4E4D51A353E2550A585B
:101950001A5A135CF65DC45F7C612063B0642D6627
:101960009767F068376A6E6B956CAC6DB56EB06F4B
:101970009E707F7154721E73DC7390743A75DA75C1
:1019800072760177887707787F78F0785B79BF790E
:101990001E7A777ACB7A1B7B9B84E5843585898593
:1019A000E2854186A58610878187F9877888FF8838
:1019B0008E89268AC68A708B248CE28CAC8D818EAF
:1019C000628F50904B9154926B939294C99510975B
:1019D0006998D399509BE09C849E3CA00AA2EDA3F9
:1019E000E6A5F6A71EAA5DACB3AE23B1AAB34AB66C
:1019F00003B9D4BBBEBEC0C1D9C40AC852CBAFCE96
:101A000021D2A8D541D9ECDCA7E070E447E829EC65
:101A100015F009F403F800FC657BEE7B667CD17C55
:101A2000307D847DCE7D0F7E497E7D7EAA7ED27EF6
:101A3000F57E147F307F487F5E7F717F827F917F4C
:101A40009E7FA97FB37FBC7FC47FCB7FD17FD77FB1
:101A5000DC7FE07FE47FE77FEA7FED7FEF7FF17F50
:101A6000F37FF47FF67FF77FF87FF97FFA7FFA7FC5
:101A7000FB7FFC7FFC7FFD7FFD7FFD7FFE7FFE7F88
:101A8000FE7FFE7FFF7FFF7FFF7FFF7FFF7FFF7F68
:101A9000FF7FFF7FFF7FFF7FFF7FFF7FFF7FFF7F56
:101AA000FF7FFF7FFF7FFF7FFF7FFF7FFF7FFF7F46
:101AB000FF7FFF7FFF7FFF7FFF7FFF7FFF7FFF7F36
:101AC000FF7FFF7FFF7FFF7FFF7FFF7FFF7FFF7F26
:101AD000FF7FFF7FFF7FFF7F00800080008000800E
:101AE00000800080008000800080008000800080F6
:101AF00000800080008000800080008000800080E6
:101B000000800080008000800080008000800080D5
:101B100000800080008000800080008001800180C3
:101B200001800180018001800180018001800280AC
:101B3000028002800280038003800380048004808E
:101B40000580068006800780088009800A800C8056
:101B50000D800F8011801380168019801C802080DA
:101B6000248029802F8035803C8044804D805780A0
:101B700062806F807E808F80A280B880D080EC8071
:101B80000B812E8156818381B781F18132827C82E3
:101B9000D0822F839A831284B81B00080000002093
:101BA00030190000C4020008E83400083019002091
:101BB00050050000D40200080000000000000000F2
:101BC00000000000C24E5368BC1CDFC1C668A711EC
:101BD000BA53F0ABB08C01D8D665F728A3AD1F047B
:101BE00098176BD965585F92AF4AF09D7991AD9E79
:101BF0002A49B632471212A7C1ECFC7B9E78FBAC97
:101C000080A893F32C429CBB978237E7F0F8B7EAA1
:101C1000CD46BCF519A53EE3A81013E422D7EA6E21
:101C2000D97974E3F0372A84F91442BB09BD83677C
:101C30003468E3753CD8B29C3FD8A2FF0F01B4E7EB
:101C4000479FFEF4B4BCC1C2811F1F2047A7E7B560
:101C5000990F78E04EECBEB27C4D291F26658AA410
:101C6000F310E928B9CD889F7F6B3BCCB0CA1C3BF1
:101C7000EACC36A721B23329FEEF207C5222979A74
:101C8000A9A193361AF7D1CB5530E1D8263856673B
:101C9000FB25C5188EC92C0D86D29F2A5A519EB598
:101CA000F277A80569EC85DBED8A2BD3181D5F243C
:101CB000E2F6736AF46E0B542A530E3931B0DD81AB
:101CC0000AB679F6C8F8553288252CDE250FE7D4F8
:101CD000628E10A853A9E1069ECB1958CA126F084C
:101CE0007F735813B23DA0429107CFBD8E94BFBD04
:101CF000725D6F509CFA1C6BEFD0B6F5E1BC911988
:101D000028C3EE1F211942192326131D4AAED547B9
:101D10001FC530BA703E7779E9003519B0E1E6FCAD
:101D2000666A29F94A11AFFA59D4E53585C437EF07
:101D3000573ECA13827420BD87C08F6DBE2D6E754D
:101D400061467D99AAA68A0C7D8E9461EBBC0F1426
:101D50003A39EF7010791ABF081846BE0DD5934A6C
:101D6000BD81C91D2998F0D63B1D2AE158BB5123DE
:101D7000ABA94E83AE04C9EF1B36109EA7056D5F5D
:101D8000426543D9CCAE76123638B6A8D941392B44
:101D900021C1ED8FF0C7565948B74DA5BC01F6F8E3
:101DA0007E508670ED256ECDF9E593B5CE0AEF43F2
:101DB0003AD64EFBAC0467CEA84F0F3CFDEE5E5109
:101DC00002C91017C3F04244CC2CE98E33992791F5
:101DD00092A8225CA5E96085DD6F1F48C4B0C018D9
:101DE0003D2B583AFFEF4BF9942ADA833735941795
:101DF0001FF57560497226F3E67E26194B978FA86A
:101E0000C7604197F778A40D098000BAA4E7FDD810
:101E10003B557CAEE21D5DDA0EEFD967E5D59C033C
:101E2000A117A5DBC9027D876B4CDE3A3492483698
:101E3000556CAD106ED50C1EE18CBCD45442AD1C5B
:101E4000B216AA59413CB1AF15008A065CFA0BF8EC
:101E500038943C1B577E96B0FDDE8C582340DAD672
:101E600021833516E87EB14BA2D3558C0FBBF58C80
:101E70004D1C5BE393D7EA51A2BA64FD5F5E521F2B
:101E8000A7AF61B0FF8CFE05582A6F778FD274051B
:101E900024694AD8C0EB5D9792930769C24EF5EC6E
:101EA000B6405B0565DE2336904815E0A52E3384E9
:101EB00020A1C55AFA7815AD623C24061D2C19EFF5
:101EC0000AE3D728EDEE39416E04C8335957CE7076
:101ED000F46D6DCE2226858DA8DA5519E0E5EE2544
:101EE000E2F357CC14AC090112967657ED67AF5563
:101EF000174C152CD3CE88246A4E286588CF1489B8
:101F000073104E9A02441214B8EC996846774B8FBE
:101F10000B17536B642B40BD2CA875127E69F72CF0
:101F2000C1AB62773F04AED01EEB73CB7210C2D64A
:101F30007BACD9F96A53F5D919F80F8E686AF71F87
:101F4000541734CAF3DE58B42E4A4D50D8CD6544E8
:101F5000404D98D849526C917D13F3B5348C21983B
:101F600022D77D3C748ACA6D414D06528EE3D1FA68
:101F700039A0808755A50251FED573728B9AB0B4F3
:101F80000784BFFF64AEEC40B7B552206279B51B41
:101F90004822938BAD9EE8E863152B4083A8A524C7
:101FA000A2A9969C9F735F3BD9E3FCDCD2AC0F8760
:101FB00081D33AD2A204EB1D7B918004352DE549F3
:101FC0001DD4B0A28B9364B2ACEE3565E7F9E5544D
:101FD0002C651C6C693C5FA182E8C5C30F0F58B922
:101FE000F5A65EC51970DA7E3AD0C08EA8477A246D
:101FF000700152F23E27C2D67F6A3A34E4AB5F8268
:10200000326D05D3AABC7D69FA9C9A4AADEEF78180
:102010005ADFEEBC9C3065D7AAA268BC843916A3EF
:1020200011EA6C9D150DA5E7C01FEAAA32B99C42C2
:1020300049559AE5E5D5A4E9EFBAE145737A560426
:10204000F57F975C55BA217BD87DCFA19073D57C65
:102050005475AEA93DC372E068F839B93E12E1EE9D
:102060001E12705EAC31F97B89A6A467059BE6253C
:102070004EE1A4FFF6CEEB9123CE5AC4A7B73C7C29
:10208000D3FEF360A0EE3036B51F83FFDEC0585D8F
:10209000ED9EAD4BB0BBA510B5681DFA5C700C157C
:1020A0000FDADFE876C8FE387F7FF25EDA7F5371A1
:1020B0001DD0B061CED093C73DA0290491FCE65558
:1020C0004394F26A4C8FE1F4FEE2E3B4F950D71A7C
:1020D0003F5EFB743AD9F3B45F2CB193B89BAF98D1
:1020E0001A86D6268CFAE830A5709399D3262EAEA0
:1020F000ED636B89ECCC72A59A313E2361DAF27004
:102100006F6BDD6C7D6E0B73502F2436164C1A45A9
:10211000370BBFCE1B64FE8C1AB74C25A86DE403A9
:10212000AAC81A47B4DD7710A8838C6C325E3418C5
:102130006ED1540F426E4156C28DF3BF7819D6FB53
:1021400078A6E1F3D554C502D1E5E0F0C83EE43904
:1021500054A29E48D687A9E43A9B4AB6EE94D11D74
:1021600012C6EA1BAB7F4AE70579ADA57759611026
:10217000FD6E0B9BFAAA810F352D72CAAABC1E6197
:1021800020698AF8128DD5B710A8A5BE3092B7F392
:10219000B6B9BD801629FB10BCDD4ECB22D17AB674
:1021A000DECE66CD094B73B958ABB071E0CCC1EC53
:1021B000FB603F10F3E33D03DDB816B077DE124459
:1021C000A9CA9F4E2FF44B2BA87357A5AEEB8D6376
:1021D0004D10AEB1CBC028A8834CEE94D9403664E4
:1021E0004BF80AACD5C217F59621336FDDE02B17FB
:1021F000C59E780251A67D44ABFA1608F89A33744E
:10220000D300BCB331EBA5B2D401DA347A017B6CD4
:10221000401226FB9AFEBF74B5B3BBD2B2861372CE
:102220007AB058EC0E3533DF35C312E2BC663C4160
:1022300029AF94B72B21DC4930F92631695C2CB1E8
:10224000819522E79CCD24CEAB9F248359BFD83102
:102250008C45A0A77B4C1F77381F698469CD1A0F66
:1022600026944C4C80EB3F5F5C60D73ACF938D5007
:1022700063589B18301160079C31704FA573B7737A
:102280004A0B39D5638B25B33CC4556402D9038D01
:10229000F26C5F3ECCED99AD0015B7B8F5DD0A865E
:1022A000D2910C511F38965EA32EF2948901BDF392
:1022B000B295FF1D7653B908FE5AF6F3BDACCC4873
:1022C00022376FE9C1CAF6998A03899980C784A128
:1022D000C8A4015656B858C493AF2A440318D9F27B
:1022E000A25A3382D9D7621B36830666C709E81320
:1022F000E2AD38DC9FB684F40C53176155BFACF9DE
:10230000F6D979D4B211047A8FF2B6F20BAB3B7BDB
:10231000094F0CF7B710788100E1A3774216154BEF
:102320004372331DB7AB14E492E52CE3A1CE5B7D81
:10233000BB37D8B8CB9A4CE4B8FD31366218E37895
:10234000F031E1D831CBB480F01609DBB694BDBFD3
:10235000D5360744B0DBE33C5A47604296CB6FF674
:10236000C1BEE8E93C1C20DAB631E64581F5A94753
:1023700023B7F05368D31E156DF29BBA5FB3EB948D
:10238000260957755D8DE9E8F3C10B6F9F671AE366
:10239000EE41CA42D2793FE9215C253A0C0BE49A1E
:1023A0006AC8540F7B8D0C944F1450341EB266C90A
:1023B00017B8B4FC8D5424EFB022D3A24AC6CAF891
:1023C000967738A1411CE41EA66A1850DC9F46F39C
:1023D00050EDDE6743DF37D06A0430E0564BCB77F1
:1023E000A58AF5B61712191F160CA00DEDAD3BC549
:1023F000AE824BEC438E2BEB1AFBD673A47F3022BC
:102400003BB6D3E25EE58FE6177B4EB63CD1C656AF
:102410004FBEB40B18AD4CCF069D14F0F108ED1D66
:102420003F9A8A9C0FD024E183AFD6ECB6A273C545
:102430006FE8B05CC5CF03DCB1B1C5E12200D51CAB
:10244000872CB1E815C0837153AB3185D3417FF838
:10245000A105CFCC5C2FFBC951910F49BFCF99701B
:10246000F51DCA1CADD833D9D3ED40122A9C6DD6C8
:10247000E217CF90CD20D95251E0C7CC9F1BC0B2FC
:1024800047DA5B63FC97390371C5D2CC4F13D6583A
:10249000C1E1FC57580FFC87A07CA11C948853070E
:1024A000E5D605D9FCF71495CC5123A956E9526815
:1024B00043E87010A9725F423A2FC2140C71BB9AA4
:1024C00030247001BA36791BFE9AF5A97CAF0DF85D
:1024D000BED04CB301131E3125ED04AE705E5776AD
:1024E0005CC90177AA870B8CA7A14AD52478EEB9DD
:1024F0005561847E4AA99824E7D028CE9CBFF290EB
:102500006A9F9AE70008E8C52A9AEDCB1C96CBD8BB
:10251000E22F006F35F04244BA4252AEC157939356
:1025200054F06ADAF635CE0CAC4C30F1F1F93F09D3
:10253000101725142206524321588EEDC54E55081A
:10254000267DE3A6D4D669858B6B33E1F64FE5A3F0
:1025500065661A6B639A05D8381E7F91970CBBBECF
:10256000AF47B426B593022F261A842BD10FBEF89D
:1025700067ABE75247FBE233361DEB9D49C2F56F6F
:10258000907E2893D3085DBE661503D62FAEDB9AE6
:102590003F95248DDE78F844CA85101E5ABD9609F1
:1025A000EED2722767B770BB270405ED41B19C38A6
:1025B00069D453BBE7DCF3F67556A42926BB4A9DC4
:1025C000FB04F22139D792F2F144ECBF5F08EAF044
:1025D0006A25D36E7B63471EEA952CC20193770769
:1025E0006942373D4D345A6EC3BBA7CC698851EF61
:1025F000891B1FC3BC214A355D469FC8DA01936A17
:10260000DD8C099B069DAEF28F99567FECA38DD28F
:102610008F9E16B198C42607BC19E38B1BCAD464DD
:10262000DC288521525B955D626F4F0A6359D7ACF8
:1026300022FDE3BFE476C93A47012C5464AC0A2674
:1026400031D73805D63907E85DA304AB5BE7381608
:102650003FA0FD4EA5CC71772D360C2BA5AB46B512
:102660003646A04DBEB1D03C1BCBC9B9EE9F6D0123
:10267000B8DA5430E5F32A3645671BA8A7D5EC62D3
:10268000E473915EC1A4D741C714D7FB4D25F392E3
:102690005C8396F949400A15A6C3371EB6EECD9164
:1026A00069E7C4C758F71C565ED6229C325AFB2AEB
:1026B0005E3FFF8E07B95CE37028AACB12569EF6E8
:1026C000C97BC632F99979EED2DD59C64B1D43F369
:1026D000BF03DAFB4B49036AFFE09F5BDAA49B6B05
:1026E0007F31BD59D48DD2055458EE25364126533D
:1026F00056267377EAB104F93C83B2D0126266D6EB
:102700009325C33582DF2C52A355BDB756C0F64B77
:10271000A943B074FFE076647C8C1A8162BD668642
:10272000F7676F7F83544A2B738DA85C20911272D8
:10273000B9DDAAAD4A9D492EB9D3BF19480C4063F3
:10274000F1A06CF32F2B6932E7A66F29B8E805A832
:1027500009E5566949C4626F8D77C9550944274018
:10276000E91B39FD12360A971BC0675DBC8851779B
:102770006C11E4CB8044A705416856BA1B33CD3FAA
:1027800044D57241335910C73E2D7EA677B5B9E7BF
:10279000FC3D21E1CBDD33E4DECF859DAC2A6BC06F
:1027A0005754B42E8C650799985D82DB49DD6A9D8C
:1027B0001A54F3B114A034EE2C0D6CC5ABC0B6A204
:1027C00069B40C3E138DF5A575BD3C2EA05598FB44
:1027D00087F82083FDD3F86E545408CDB2995CDE9F
:1027E000A85EFF0062BB32325BC4D27FF9F1D9ED43
:1027F000B463512BAE9225D42C3C4F1082F97F90BC
:10280000693797F08FA3431D528714C35E3273ACB0
:102810003B8D8D26F7C9DFD760191511C70B1A1329
:102820008F231317BDE109D15C447A091CC2F8F467
:102830004C9524D451979ED190764E77F64454848B
:10284000102B266322D16F8F49A14528A1C97F1E75
:10285000362A61BA4B1926372936CF13F9F2FE55BD
:102860004E5CB9DCB9BEC2FBBB525FDDB897633EBC
:10287000AB7A75A0B6E519A70A369EE37B8472ACE5
:1028800019CE48643370E4227EB12FB967349219AF
:10289000EF9D04C42B687120D4FEE09C07E23A54FB
:1028A000F029F4614BD2A1DA69A34CC6CC3C13FEEB
:1028B0000485AE7E909565A1A59AEB511AAA41E7D1
:1028C0008BFB1E536EDACE8439E1F00D3A2FAAFB52
:1028D00072479E3F298F82516582516B2B47CFE211
:1028E0002273AD9C62D2C5EEF81B03275ECCA5987F
:1028F000E50A054B73D810316E80E83AFD9BC66A35
:10290000B0670998E2269306557E94C56E7D8EBA0F
:10291000601FA3597C1916A8DEBD4C61A8CEB1B3C7
:1029200095A047BBE3F49C3554579E13366EDFAC3D
:10293000F663A2311717FF93476F4709B3CB347083
:10294000DA5BA09E8202725890FC648A4665CEC90A
:102950007F6734C15AF652B8E0A481B6F37BE7DD55
:10296000666A3DCB832A10F18934D27A306265AB36
:10297000890C7D18A330139C6D7BE98299CA437B37
:10298000B097F568FF34E097BC26546B1C07B8E499
:10299000CB76230AE65649838D4A69DA2D55EA0C2F
:1029A000A80E48F55356BCDE6E4C6D90C36759F8BF
:1029B0001190871E39BFDBE850D1A95F5A5810D556
:1029C000B8708541A2347802F01AFF45154A557057
:1029D000F3D376DD218134304C2E2227371BCA3BBE
:1029E0009C5F534EC7DBB3C6F6EA4851F01234552C
:1029F0001AFBF3EA58FBAFD7325A5CD1B3A534E0E7
:102A000045DC0C3A00C85AFBDF41BE5882D8428BE5
:102A10004CA73E2558A7AFD0D151F67353F832E0FA
:102A2000E1FD3C94512BE4B5CC343407C88ADC93E7
:102A30004AE04D50F8A432861EA03BE80443735888
:102A40009EEAB2683A6BE24F84A16BFDCBA6B21E40
:102A50002675873B8EBFF09A6169D9429C9C219074
:102A6000F48FFF1CB098FA393F3790B560DF6C994E
:102A7000472EBF2D0445E5E6098ABE4FA60F08F490
:102A8000E1FD328F306A8AEF27774D8E903216EC57
:102A900038FDAFC0C821723383389322BE0E046262
:102AA000DC76C243F58AD0AEB6200C19763F3DBF26
:102AB0001FF8800168D876A740C03E5BE5F80DB5E9
:102AC0005670F71FA8F65B546F7B6248CB4D732E90
:102AD0004DF526B22104FDF3EEABF9230EE1D5ADA1
:102AE000D03845925254D6B216EE4A76C79F80C669
:102AF0008109C255844C7FB9D19CECBFBBFA9002CE
:102B0000F87E0918621BD8B7D0EEFE32F751DD64AB
:102B1000CBE0C6621D82A9F9DB283372B6751BF6BD
:102B20001B3BA5C478FA4D7639FA45B8BA345DFC3A
:102B3000E5BCA51027195F384C1581F6762BD9E630
:102B40004EFA4C7152D553C094E9FFE8E6173CD4D5
:102B50000DE5B98C6A948CCBD78226772B2D088B08
:102B60002E063CB28E5B42A8FB76B70F1CD305A99C
:102B70009ECB7B07A13F6F786A712303F5524446D1
:102B8000DA539A3418492C94022C7DD44159A3F479
:102B900019CBC1AB1A2332AF924E09940D9E6484B7
:102BA00019AD9680DF8EA382EB3F8FF66356061534
:102BB000918661A400DD4DE0DF18211C6297057A43
:102BC000531537A9FD45DF664C3C50133BFE15FC01
:102BD000C5C50BCC75E74679EE2CB6F200FF2CE4A8
:102BE0000F4D9A5C6CD06C9C63BBED79D100B080CA
:102BF000758563E58A3C22B74177CEAC582AA5E0BB
:102C0000944F8757857694A8F7189855088F339076
:102C100021765E011A8F5246A1CD6EA0B09E6B76D2
:102C2000D03C9F669C5FBB4D4CFA240F61CCA67BC9
:102C30000160C678119D134856938D063F1A6F9A0E
:102C40002D23A80BD8E08378268933936E7118164C
:102C50007BEEE9103A06BBBCEC90D55B1A54E1DF81
:102C6000DB820F47BF67DB425BE3AB79D16FD73CB9
:102C7000A8EB068893B46A21A0253A399C0A6C19FE
:102C80004E8B0DD99DD56C5D175D0138742968B1E7
:102C9000D5B73E98566ECE0DBA4D9495D3430A6B78
:102CA0002CCC1E6FCB8F705A4AC35AFC223A60401C
:102CB0004F2CB089F683D94FEC434748E0ABE7EEA1
:102CC000EBBE002481A08F78314C8BDF848F7B5743
:102CD000CF6A82B415D2624411A09E145440566645
:102CE000258B5C3F4CAA17C437DF8CFB4E0D07B910
:102CF000BA0BCE878138FC974DCD783F015AD2F779
:102D00002FC87C3B95DD3B1B4EF072DFEB673578BF
:102D10004372D04ABF279D17067CD649F1D99EFF42
:102D20008D6355CE35ABE1A174338EB907FA407788
:102D3000D276CE6A07D769FEF31E46A433BBB566CA
:102D40009B1A6ED83266CC89C977148730FD65F539
:102D5000CD027DD382838891ED09F7000528228D6D
:102D6000F1FB2EFE03D7518B1EA7E558D9D446F9A7
:102D700085F572AB2953707BCEC4E21319EB1E1795
:102D8000B8514CA04F63FA95AD4B47526B2BF5648D
:102D90002FD8D37C9F9D5CFD4A5966DCAC59430318
:102DA0002C8B6C9C318F6B67E6FE6CDE3C2F65A232
:102DB0008F70D565DBBB1BDA6E27A59BA5E4C3DB53
:102DC0002596BB3C3B7982B99F2F2004E0A7601079
:102DD000A70E77E544F5CBCC6F4084465748148E58
:102DE0009D2F4EA536E0E8C4CFBA80012EF7A1C7CB
:102DF0004CD4EE5E41FC900AF4D2933516AF3CEA17
:102E000060045A177A44EA4AB78498A4964C84BC62
:102E10003BA1C5536181DB60A4CF7BAFAAAC5F450A
:102E2000372836B092FDF8E68830B0002C963AFD8F
:102E3000D027F001F4A988BFA18F6020D369AA6DC3
:102E4000242876EBE07AAA9989FFC692A21FF29411
:102E50005D662D010FAA1DFBD5B6B5CDF8D98E55EF
:102E60004028266C47584643FEDDB8DCA3AEBB00C5
:102E70009159165464E7855DA77BB5D0EE3DD1C26C
:102E8000888DD68DF4057FCA2D536CC3688E9ACD7C
:102E90003B7297815DF7F58E28C31B72B7147931A9
:102EA0002064BEAE57E6B12679D3EA3CA4132E27A0
:102EB000B957F73C5C99942176137C5695884F2539
:102EC0003C61A0BC28CDBE58F6C377594B5B560871
:102ED000D43213E2E0D1806C2AF24B7458B0C71997
:102EE000AA2C12E1E5C64D6F9510596003C5E5ADFA
:102EF000AE1888CD2BB5D95C4C072827C262426E2C
:102F000054A986BB0536AE6A1DC3219E2D4198D1BA
:102F1000D13D11D2B28822FBCE71F355395A60856A
:102F200017A1BE675965A6C3D243556342ABF6A34A
:102F3000E3BE92D3256D92582AD6BCBAE20052085D
:102F400008606368C63B0D56A305E3915E380C7EAE
:102F5000654510E7731123E63463F38A753A009BE5
:102F60007F17006D50E73D23560B8B04F9006B85EE
:102F7000A4D7BAA298FDEBC8E049E5641570BA8001
:102F80007F608506A308A211015A22B5CDCCC35893
:102F9000F3E75C4F271FC2FD72F3F5D54069AEC859
:102FA0001DFA99F493444CFF8733CA0C54A23A603B
:102FB0001428497CD1ED9C0A10C84A5134EA2EA845
:102FC0006CF8103BC49BE68B81DC4E37CA7021FB4A
:102FD000C007306F7A7655D012D50F6D35C49D8EEF
:102FE0007E6583587D2613B9917ABBEBE6025E338A
:102FF00091E00AA92972FB50D23B6F102E73D0FBCF
:10300000B5867B93BA74F614D48ABD11291066D1A3
:10301000E1EAA0D9FFED9E1EBD35CB97F7180FBC96
:10302000CB4D965A1D072EE243E89BBFBEFD8AC0DA
:10303000172B3EE5CBF92DDE1E71091E77F4812C8E
:103040008E8BF4E25E2235A5C76ADA25C69F5A74D4
:10305000B2375F3B7C70059DF636FDBA926C9EB52B
:103060006E635863B011B31A7BB7E6784DF21DC397
:103070004E6183D91350691672A835CA87F95C224C
:103080000A65C733092F84A31AB42646322D896AEC
:10309000CD8749BC3B79284E5C1784B7432B689F8A
:1030A0004FE10F4BF4270D9D4BF8C2C167BC65B8CB
:1030B0006D858FA32FF9CD40BD6001AF22CFBEAE8D
:1030C000236334A11C1BDC1BA3F134BC37AF987500
:1030D00043FD356620FBC079E1F6138529B89F7161
:1030E0002DF691B95F1FA7F3249127567E0AE61BA0
:1030F000A530B3D3E7967ECD686547510251E6A06F
:10310000078ED4A2CAEA6E13B44D0381AAB26E062A
:10311000C2A0799C4A47FDDE2B56256D927B3876FE
:10312000F9DFA00FC44BCFE9FADE393C75B8AE9F8A
:1031300098581EAAC96F998782C1A29990004650DB
:1031400076D2D465AB1C55345B811DA8C15F523B60
:103150007C5AAADB078C4B48F3523783C3505AB5CD
:1031600029E4D7FA20C223585B3D90988D17489ADE
:10317000E74D6700490D870651CCBA3B3F71ACABB8
:1031800090F771AECC62E32DE73BB7B2C5A0FCE08F
:10319000AE4F10501D5E40F943B3FB83770C7FF7B1
:1031A00068A138103A568B12421A8DC9303B7EF115
:1031B000A6F0820F784B8D0D6AB450F7F1BAF63253
:1031C000B238CD6E55E39A140FC8B7C0E9BEF4B05B
:1031D00080FA8799FA869F282EDC1EFEDEFE207478
:1031E000A3C59322B17EA188F1D8AAC047D07E7C26
:1031F000FED94BC07F391E9501B6E09790688D507F
:10320000E532AAAA4BF3F851F3BEDAF27D766721D4
:1032100030B90A238A584177DC8C95ECD5926B2122
:10322000E50FD0892EDD60B558F4F95AD7FAA959BF
:10323000A88B62E3C0D7EE63AD0D3DF87E2E527FC2
:10324000AFB514390ADC51368543127C2DC95F3283
:10325000D7DA81423D180933C971BEB01C318FB92C
:1032600018719569B9252F8B492D1EB675721A06EE
:10327000D6B0B66CAF6E49587CE8D5FD3154C9E282
:103280008324663E82D3DFCE62F8066D3E71ACF4D5
:1032900020D8189BA9C7C83B856A200CB9EE6131BC
:1032A00071D1698F31638484AF8A75F4B42EF7D0FD
:1032B000D7FDCAAA615877AE8FCC82A3E9877F9FDA
:1032C000E4E81FC28934A34B07219BBD43D3274A9F
:1032D000AD7F8DBE04FAEEE31DE94485991F187594
:1032E0003108BA2901144763D8EB8CE25D425F1BB9
:1032F0003F75CF148FA4F97F73AB61D922BDF6CB94
:103300007BA97702B344B6BE1660F3F460E6562399
:103310002F80FC533472FEACF243A2CBD3B6B9A2D9
:103320005E9B8603D0F27CD538FD3AEA9F9601E099
:1033300039F0813317BDC5E5C47DD2838B1CB61D22
:103340001DB45E193AE0E19B972A31658DC472C9BC
:10335000B8655E23F2FA8D9B14DCF8674DD6523DBA
:10336000685523B9646F436BA6E8130675A9F0BDD1
:10337000E61A1869C06669DCF93C6D70ED773BAF01
:103380000AA5F7457CCA7C34500D97158C8EDF0555
:10339000000A7EA316E68D735E1669911EF9662CEF
:1033A0003F0055DA5BE262EB2B04C1DE84BD2621CF
:1033B000FE2DE0AA0CA4DA1D277989D6E9E296034E
:1033C000F4CA9407AB4E71462126087246DDBD4112
:1033D0001FE8BA84A7687C866F3DA94BC39E53BB88
:1033E000C12DF567B343A3FD623B87213132295BD1
:1033F0008DDF472FBA2D598D486AEA64619CA16C14
:10340000DF030E1EAB4E71462126087246DDBD411C
:103410001FE8BA84A7687C866F3DA94BC39E53BB47
:10342000C12DF56791FEAEFE0000A7FFC50163FE4A
:10343000A9FEF0FF2A00A201C9001201A0FEDD01D1
:10344000DEFEA4FF0A01CFFF5601C50172FEF700A0
:1034500067FF4801D900560155004500DAFF5F01BA
:103460004900800018012900BEFE3D003B015E01BD
:10347000F8011DFF23FF1DFE6001FC00C70114FFC2
:1034800058016C0186FEE50045FF0EFE270165012F
:1034900001FE3A00A3FE36FE5CFEBEFF70FE85FE16
:1034A000DD01C4FFDAFF35006900B1FF31FE3300F2
:1034B000A9FE1EFF4DFEE6FEDA00B901D5FE29FF8A
:1034C00093FF4F01540129FE93FF110121000BFFCF
:1034D0002BFEAA00E6FFC5FFC00089FF4C00FAFFE3
:0834E000EC006FFF000000008A
:0400000508000131BD
:00000001FF
