:020000040800F2
:1000000050150020450100085D0500085505000851
:10001000590500084F0500083906000800000000D7
:100020000000000000000000000000006105000862
:1000300053050008000000005F0500085D0100088E
:100040005F0100085F0100085F0100085F01000810
:100050005F0100085F0100085F0100085F01000800
:100060005F0100085F0100085F0100085F010008F0
:100070005F0100085F0100085F0100085F010008E0
:100080005F0100085F0100085F0100085F010008D0
:100090005F0100085F0100085F0100085F010008C0
:1000A0005F0100085F0100085F0100085F010008B0
:1000B0005F0100085F0100085F0100085F010008A0
:1000C0005F0100085F0100085F0100085F01000890
:1000D0005F0100085F0100085F0100085F01000880
:1000E0005F0100085F0100085F0100085F01000870
:1000F0005F0100085F0100085F0100085F01000860
:100100005F0100085F0100085F0100085F0100084F
:100110005F0100085F0100085F0100085F0100083F
:100120005F0100085F0100085F0100085F0100082F
:10013000DFF80CD000F0CEF900480047110D0008A0
:10014000501500200648804706480047FEE7FEE7B6
:10015000FEE7FEE7FEE7FEE7FEE7FEE7FEE7FEE777
:100160006505000831010008202A04DB203A00FA66
:1001700002F1002070479140C2F1200320FA03F3FE
:1001800019439040704700000649074A08685043E9
:1001900043F2390210440860400870470149086082
:1001A000704700003C1100206D4EC6412DE9FE4F06
:1001B00081EA030404F0004421F0004100944FF070
:1001C000000B23F0004350EA01045ED052EA03041E
:1001D0005BD0C3F30A54C1F30A552C44A4F2F334A0
:1001E0000194A0FB0254C1F3130141F48011C3F345
:1001F000130343F4801301FB024400FB034E840A03
:10020000970A44EA815447EA8357A4FB076802959A
:100210008D0A05FB07854FEA932C04FB0C54270538
:10022000029D4FEA065847EA1637B5EB08056EEB14
:10023000070C870E920E47EA811742EA8312A7FB4A
:100240000201B6EB0B0164EB00042B0D43EA0C3307
:100250005E1844EB1C50DA465146E7FB0201C5F339
:1002600013044FEA0B3343EA14534FEA0432019C60
:1002700043EA0603A4F10C040294009CCDE900B407
:1002800000F0DAF803B0BDE8F08F00200146F9E78E
:100290002DE9F04D81EA030404F0004B21F0004504
:1002A00014464FF0000A23F0004150EA050220D026
:1002B00054EA01021DD0C5F30A570246C5F31303E1
:1002C000C1F31300C1F30A5640F4801543F48013C0
:1002D000A7EB0608101BD64608F2FD3873EB0500A5
:1002E00002D308F1010801E092185B41B8F1000F58
:1002F00003DA00200146BDE8F08D00204FF48011A4
:10030000064684460EE0171B73EB050705D3121B48
:1003100063EB050306434CEA010C49084FEA300041
:1003200092185B4150EA0107EDD152EA030012D066
:1003300082EA040083EA0501084305D0101BAB41A3
:1003400006D20122002306E000224FF0004302E023
:100350006FF0010253101AEB06004CEB085110EB42
:100360000A0041EB0B01BDE8F04D00F056B80EB5A8
:10037000C10F80EAE0700844CA07002140F233430D
:100380008DE80E000A460B4600F056F803B000BD9B
:1003900070B5C1F30A5201F000450024C1F3130106
:1003A00040F2FF3341F480119A4201DA002070BD1F
:1003B00040F233439A42A2F2334203DC524200F04D
:1003C0001CF800E090402C43F1D0404270BD30B5A5
:1003D0000B46014600202022012409E021FA02F503
:1003E0009D4205D303FA02F5491B04FA02F528449D
:1003F000151EA2F10102F1DC30BD202A04DB203AF7
:1004000021FA02F00021704721FA02F3D040C2F134
:100410002002914008431946704710B5141E73F12D
:10042000000408DA401C41F1000192185B411A43B4
:1004300001D120F0010010BD2DE9F04D92469B4600
:1004400011B1B1FA81F202E0B0FA80F220329046A6
:10045000FFF78AFE04460F4640EA0A0041EA0B0114
:1004600053465A46084313D0114653EA010019D0A7
:10047000C8F140025046FFF7C0FF05460E46504601
:1004800059464246FFF770FE084305D0012004E0BC
:1004900020463946BDE8F08D0020054346EAE07667
:1004A0002C4337430A986305E40AA0EB08000022B6
:1004B000FD0A44EA47540A3002D500200146E9E724
:1004C000010510196941DDE9084500196941BDE8D8
:1004D000F04DA2E7064C074D06E0E06840F001034E
:1004E00094E8070098471034AC42F6D3FFF724FE97
:1004F000281200084812000870B58C1810F8015B2B
:1005000015F0070301D110F8013B2A1106D110F8AC
:10051000012B03E010F8016B01F8016B5B1EF9D1B0
:100520002B0705D40023521E0DD401F8013BFAE736
:1005300010F8013BCB1A921C03E013F8015B01F8A1
:10054000015B521EF9D5A142D8D3002070BD00BF77
:10055000FEE7704700BFFEE700BFFEE77047704749
:100560007047000008B53048006840F001002E498F
:10057000086000BF2C48006800F002000028F9D095
:1005800000BF2948406840F08000274948600020AB
:10059000009002E00098401C009000985028F9D389
:1005A0002148406840F090001F49486000200090BA
:1005B00002E00098401C009000985028F9D300BF3A
:1005C0001948406820F00300174948600846006851
:1005D0001649084014490860084640681449084014
:1005E0001149486008460068104908400E490860F3
:1005F0000846006820F480200860084640680D49DD
:10060000084009494860084600680849084006490A
:1006100008604FF41F00886000F044FD00214FF097
:10062000006000F0D1FB08BD00100240FFFFF6FEA5
:100630000C00FFE8FFFF00F700BFFEE70FB4054B1B
:1006400010B503A9044A029800F018F810BC5DF830
:1006500014FB0000610B00084011002002E008C8F4
:10066000121F08C1002AFAD170477047002001E02C
:1006700001C1121F002AFBD1704700002DE9FF4F76
:100680008BB088460546002606E025280BD0DDE91C
:100690000D1290476D1C761C28780028F5D10FB0FC
:1006A0003046BDE8F08F0024A146A2460122AE49A3
:1006B00000E0044315F8013F203B02FA03F0084232
:1006C000F7D128782A2810D06FF02F022878A0F1CF
:1006D0003001092915D809EB890102EB410144F0E9
:1006E000020400EB01096D1CF0E758F8041B5FEAF7
:1006F000010903D544F40054C9F1000944F002048F
:100700006D1C28782E2817D115F8010F44F0040429
:100710002A280ED06FF02F022878A0F13001092985
:100720000AD80AEB8A0102EB410100EB010A6D1CB9
:10073000F2E758F804AB6D1C28786C280FD006DC63
:100740004C2817D068280DD06A2814D104E07428EA
:1007500010D07A280FD10DE044F400140AE044F4DC
:10076000801401E044F440146978814202D104F518
:1007700080146D1C6D1C2878692865D006DC002863
:100780008DD0632827D0642806D15DE06E2808D07C
:1007900073282AD0752877D0DDE90D129047761C92
:1007A000E0E0C4F30250022809D003280DD0D8F8A5
:1007B000001004280DD00E6008F10408D2E0D8F82B
:1007C0000010F217C1E90062F6E7D8F800100E80B9
:1007D000F2E70E70F0E718F8041B8DF80010002007
:1007E0008DF80100EB46012003E058F804BB4FF000
:1007F000FF3061074FF0000701D40AE07F1C574526
:100800000DDA8742FADB1BF807100029F6D106E063
:100810007F1C8742FCDB1BF807100029F8D1DDE9BB
:100820000D23A9EB07008146214600F0B1F83044C2
:10083000C61904E0DDE90D121BF8010B90477F1E7D
:10084000F8D22146484688E058F8040BC4F3025118
:100850004FF00A0B032900D100B2042900D140B2A5
:10086000002802DA40422D2102E0210505D52B2186
:100870008DF82410012104E006E0E10710D02021CA
:10088000F6E708AF089113E058F8040BC4F30251DF
:100890004FF00A0B032900D180B2042900D1C0B265
:1008A0000021EEE75946FFF792FD303107F8011DB0
:1008B0000028F7D1ADEB070000F1200B600702D54F
:1008C00024F4803401E04FF0010ADA4502DDAAEB9E
:1008D0000B0000E00020824600EB0B010898014469
:1008E000A9EB01000A90E00306D4DDE90D232146BF
:1008F0000A9800F04DF806444FF0000908E009A9F5
:1009000011F80900DDE90D12904709F10109761C83
:1009100008998945F3DBE0030CD5DDE90D23214679
:100920000A9800F035F8064404E0DDE90D123020A5
:100930009047761CBAF10001AAF1010AF5DC05E046
:10094000DDE90D1217F8010B9047761CBBF1000191
:10095000ABF1010BF4DC0A982146DDE90D2300F030
:1009600005F806446D1C97E6092801002DE9F041C1
:10097000044600251E461746880404D405E039467F
:100980002020B0476D1C641EF9D52846BDE8F081D3
:100990002DE9F041044600251E469046C80301D5C6
:1009A000302700E02027880404D505E0414638467A
:1009B000B0476D1C641EF9D52846BDE8F081F0B53E
:1009C00006460C4615460020002125E000230022A3
:1009D00011E055F82270022F01D15B1C0AE001EBF7
:1009E000810706EBC70757F8227055F822C0674504
:1009F00000D15B1C521C0A2AEBDB0A2B05D154F8F0
:100A00002170012F01D1401C05E00A2B03D054F8BE
:100A1000217007B9401C491C6429D7DBF0BD70B5B3
:100A200004463C20B4FBF0F6B4FBF0F100FB1145AA
:100A300003E03C2000F008F8761E002EF9D115B135
:100A4000284600F001F870BD01460020114A1268E6
:100A50004A434FF0E0235A6100229A611A46126914
:100A600042F001021A6100BF4FF0E022106900F06D
:100A700001021AB100F48032002AF5D04FF0E022D2
:100A8000126922F001024FF0E0231A6100229A61FC
:100A90007047000008000020F0B595B00026002740
:100AA00047F6FF70FFF77AFB00252DE0002405E0F4
:100AB00000F0D6F90BA941F82400641C0A2CF7DBDE
:100AC0000BAA1D491D48FFF77AFF0646BE421ADDF4
:100AD000002406E00BA850F8240001A941F82400E6
:100AE000641C0A2CF6DB3746002406E001A850F807
:100AF000241013A0FFF7A2FD641C0A2CF6DB394674
:100B000011A0FFF79BFD6D1C42F210708542CDDBFA
:100B100010A0FFF793FD002406E001A850F8241070
:100B200007A0FFF78BFD641C0A2CF6DB394606A0F4
:100B3000FFF784FD15B0F0BDAC0F00200C000020C5
:100B400025316420000000003A73636F72653D2513
:100B5000640A00000AD7EED3C5BDE20A0000000017
:100B600070B504460D46E1B2054800F00DFB00BF2C
:100B70000721034800F011FB0028F9D0204670BD82
:100B8000003801400022034B1A68130C03800A80CE
:100B900070470000E0F7FF1F05490968016004493C
:100BA000091F096841600249083909688160704776
:100BB000F0F7FF1FF0B5044616460025002201F0AD
:100BC0000F0501F0100707B1354300201EE0012793
:100BD00087401F40C7B122684FEA800C0F2707FAF1
:100BE0000CF7BA43870005FA07F73A43282904D1DE
:100BF000012787401F40676105E0482903D101278D
:100C000087401F4027612260471CB8B20828DED306
:100C1000082022E0012787401F40E7B16268A0F169
:100C200008074FEA870C0F2707FA0CF7BA43A0F121
:100C30000807BF0005FA07F73A43282904D101271E
:100C400087401F40676105E0482903D1012787409D
:100C50001F4027616260471CB8B21028DAD3F0BD8C
:100C600010B540F2066000F0AFF94FF48063012246
:100C700010211248FFF79EFF4FF40063012210215C
:100C80000E48FFF797FF4FF48053012210210B48C5
:100C9000FFF790FF4FF40053012210210748FFF7A0
:100CA00089FF0020064908600649C1F8AC010449E3
:100CB000083108600349C1F8B40110BD00180140B3
:100CC000A80123420000234200200649086006498B
:100CD000C1F8AC010349083108600349C1F8B40107
:100CE00070470000A801234200002342012006496A
:100CF00008600649C1F8AC0103490831086003499E
:100D0000C1F8B40170470000A8012342000023424B
:100D1000602000F0DFF9FFF7A3FF4FF4165000F05A
:100D20005FF81249881EFFF72DFF1048801E0288C9
:100D300041880FA0FFF782FC1A48FFF72DFF1948E2
:100D400083684268016818A0FFF778FCFFF7A4FEEB
:100D50000BE0FFF7CBFF4FF47A70FFF760FEFFF771
:100D6000B3FF4FF47A70FFF75AFEF2E7020000205B
:100D70004744333246313033564B543620466C614B
:100D800073682053697A653D25644B422C53726128
:100D90006D2053697A653D25644B422E2E2E0D0A37
:100DA0000000000044110020474433324631303304
:100DB000564B5436205549443D2564256425642E00
:100DC0002E2E0D0A00000000034A0A400243034B86
:100DD0001A60BFF34F8F704780FFFF1F08ED00E0E0
:100DE00010B5044640F2026000F0EEF840F20E60EA
:100DF00000F0EAF84FF40073032218211648FFF7B9
:100E0000D9FE4FF48063032248211348FFF7D2FE36
:100E10002146124800F070F90021104800F0FCF95A
:100E200000210E4800F0E8F900210C4800F0D4F948
:100E300000210A4800F0C0F90021084800F0C4F978
:100E40000821064800F0E0F90421044800F0CCF93C
:100E5000024800F09DF910BD000801400038014033
:100E60002DE9F04700BFFFF78FF982466FF0004190
:100E70008842F8D05046FFF77AFA0646064A074BF2
:100E8000FFF706FA04460022054BFFF78FF980466C
:100E9000FFF77EFABDE8F0870000C0FFFFFFDF41EB
:100EA000000008402DE9F04F8BB007460020099064
:100EB0003EA090E8004CC068CDE905BECDF810A07A
:100EC00007900FF2EC0ADAE9000ACDE9020A0FF204
:100ED000E00ADAE9000ACDE9000A38484068C0F3C0
:100EE00081000A900A9820B1012804D0022829D153
:100EF00003E0334928E0324926E03048406800F4F6
:100F00008038B8F5803F09D12D4C2C48406800F45A
:100F10000039B9F5003F02D1641000E0294C2748A0
:100F20004068C0F383422548406800F0006008B183
:100F300042F010020F2A01D2921C00E0521C04FB66
:100F400002F101E01E4900BF00BF1C484068C0F329
:100F5000031504A8465D21FA06F318484068C0F35B
:100F6000022502A8465D23FA06FC14484068C0F337
:100F7000C2251DF8056023FA06F0089037B1012F4D
:100F800006D0022F06D0032F0AD106E0099108E00F
:100F9000099306E0CDF824C003E00898099000E02A
:100FA00000BF00BF09980BB0BDE8F08F0000000043
:100FB00000000000010203040607080900100240B7
:100FC00000127A0000093D00064A02EB9011096800
:100FD00000F01F0301229A401143024B03EB9012D1
:100FE0001160704700100240002000212B4A126857
:100FF00042F48032294B1A6000BF401C274A126815
:1010000002F4003119B94FF6FF729042F5D1234A2C
:10101000126802F400320AB900BFFEE71F4A5268A4
:101020001E4B5A601A4652685A601A46526842F479
:1010300080625A601A46526822F440325A601A4658
:10104000526842F480325A601A465268144B1A4071
:10105000124B5A601A46526842F420125A601A46DD
:10106000126842F080721A6000BF0C4A126802F0E7
:101070000072002AF9D0094A526822F00302074B95
:101080005A601A46526842F002025A6000BF034A90
:10109000526802F00C02082AF9D170470010024091
:1010A000FFFFC3F710B5FFF79FFF10BD042808D15D
:1010B0004FF0E021096941F004014FF0E022116195
:1010C00007E04FF0E021096921F004014FF0E02230
:1010D0001161704710B504460420FFF7E7FF04488C
:1010E00004704FF47A7060430249086010BD00003C
:1010F00004000020080000202DE9F04704460D46BA
:101100000027B846B94600261D49601A8C421CD0FB
:1011100006DC1C48204470B1B0F5806F1FD10FE091
:10112000B0F5806F16D0B0F56C4F18D10320FFF7E3
:10113000B9FE074614E00220FFF7B4FE07460FE0B1
:101140000220FFF7AFFE07460AE00220FFF7AAFEE3
:10115000074605E00220FFF7A5FE074600E000BFB6
:1011600000BF07EB5500B0FBF5F64FF6F07006EA4E
:10117000000806F00F0948EA0900A060BDE8F08702
:10118000004C004000BCFFBFC1F308024260704742
:10119000C16841F40051C160704710B5024602EBCE
:1011A0009110006801F01F040123A340184008B10A
:1011B000012010BD0020FCE70A460021416921F40E
:1011C00000711143416170470A460021416921F4D1
:1011D0008071114341617047C26822F4C062C260ED
:1011E000C2680A43C26070470A460021C16821F004
:1011F00004011143C1607047026922F44052026148
:1012000002690A43026170470A460021C16821F061
:1012100008011143C1607047C26822F48052C26065
:10122000C2680A43C26070474812000800000020EC
:1012300044110000F8040008401400084411002084
:101240000C0400006C060008C1021701A918690C03
:101250000912086904091220A940091A2409122058
:10126000E918091228E9800916C8091244091E5C08
:101270000916E00922AC091A600912AC0912180912
:10128000163009127C091218091AA809167C091EC1
:10129000DC09124809160809165CE94C09125809BC
:1012A0001A70091A94E920091E2C091A7C091610D3
:1012B0000916CC09263CE9780916EC091A5C0916CE
:1012C000280916A4091E90011809169C091208097C
:1012D0001A34091AAC09160C091690091ACCE964DB
:1012E0000916840916AC091240091E6C091E9809DA
:1012F00012700916D4092258E9500922E00118E9B0
:101300006809124C09161C091244091EA4091A384E
:10131000091678092EC4091A3C0912AC0926780965
:1013200022F4091A8C091644E9CC09128409165CC6
:10133000091ECCE95C0114E950091A8C091A6009EC
:10134000166C091A0C0916040916A0E99009160C66
:10135000011C09166409124409129409121C09227D
:1013600020091E240916BC0922D00916E4E97409D3
:1013700012E0091238E91C0912CCE9C4091EF4096B
:1013800016B8091250091224091608091ACC091AAC
:101390007CE9A009261409161C09120C091204097B
:1013A0001EDCE94C091A2C09229809129C091230FA
:1013B000E9580912B8091698091AF4091A500118BF
:1013C0000922300922FC0926B8091654091AFC0919
:1013D0001690091EE4E9700912640912240922BC5E
:1013E000E9040912C4091208091AF0091AA4091615
:1013F00024091678E96C0912F409124C09123C0907
:101400001624091AFC091234091A6CE9D00912CC05
:10141000091A3C0922C809160CE904091A84011C9E
:10142000091E84091A980936BC092A3C091AB4090C
:1014300016BC092240E90809369009161C00000074
:0400000508000131BD
:00000001FF
