Component: ARM Compiler 5.06 update 6 (build 750) Tool: armlink [4d35ed]

==============================================================================

Section Cross References

    main.o(i.main) refers to systick.o(i.systick_set) for systick_set
    main.o(i.main) refers to led.o(i.led_init) for led_init
    main.o(i.main) refers to print.o(i.print_config) for print_config
    main.o(i.main) refers to bitband.o(i.get_mem_infor) for get_mem_infor
    main.o(i.main) refers to printf1.o(i.__0printf$1) for __2printf
    main.o(i.main) refers to bitband.o(i.get_uid) for get_uid
    main.o(i.main) refers to dsp_test.o(i.dsp_test) for dsp_test
    main.o(i.main) refers to led.o(i.led_on) for led_on
    main.o(i.main) refers to systick.o(i.delay_ms) for delay_ms
    main.o(i.main) refers to led.o(i.led_off) for led_off
    main.o(i.main) refers to main.o(.data) for mem_infor
    main.o(i.main) refers to main.o(.bss) for uid
    system_gd32f10x.o(i.SystemInit) refers to system_gd32f10x.o(i.system_clock_config) for system_clock_config
    system_gd32f10x.o(i.SystemInit) refers to gd32f10x_misc.o(i.nvic_vector_table_set) for nvic_vector_table_set
    system_gd32f10x.o(i.system_clock_config) refers to system_gd32f10x.o(i.system_clock_96m_hxtal) for system_clock_96m_hxtal
    startup_gd32f10x_xd.o(RESET) refers to startup_gd32f10x_xd.o(STACK) for __initial_sp
    startup_gd32f10x_xd.o(RESET) refers to startup_gd32f10x_xd.o(.text) for Reset_Handler
    startup_gd32f10x_xd.o(RESET) refers to gd32f10x_it.o(i.NMI_Handler) for NMI_Handler
==============================================================================

Removing Unused input sections from the image.

    Removing gd32f10x_it.o(.rev16_text), (4 bytes).
    Removing gd32f10x_it.o(.revsh_text), (4 bytes).
    Removing gd32f10x_it.o(.rrx_text), (6 bytes).
    Removing main.o(.rev16_text), (4 bytes).
    Removing main.o(.revsh_text), (4 bytes).
    Removing main.o(.rrx_text), (6 bytes).
    Removing system_gd32f10x.o(.rev16_text), (4 bytes).
    Removing system_gd32f10x.o(.revsh_text), (4 bytes).
    Removing system_gd32f10x.o(.rrx_text), (6 bytes).
    Removing system_gd32f10x.o(.data), (4 bytes).
    Removing startup_gd32f10x_xd.o(HEAP), (512 bytes).
    Removing gd32f10x_adc.o(.rev16_text), (4 bytes).
    Removing gd32f10x_adc.o(.revsh_text), (4 bytes).
    Removing gd32f10x_adc.o(.rrx_text), (6 bytes).
    Removing gd32f10x_adc.o(i.adc_calibration_enable), (42 bytes).
    Removing gd32f10x_adc.o(i.adc_channel_length_config), (70 bytes).
    Removing gd32f10x_adc.o(i.adc_data_alignment_config), (22 bytes).
    Removing gd32f10x_adc.o(i.adc_deinit), (88 bytes).
==============================================================================

Image Symbol Table

    Local Symbols

    Symbol Name                              Value     Ov Type        Size  Object(Section)

    ../clib/microlib/division.c              0x00000000   Number         0  uldiv.o ABSOLUTE
    ../clib/microlib/division.c              0x00000000   Number         0  ldiv.o ABSOLUTE
    ../clib/microlib/division.c              0x00000000   Number         0  uidiv.o ABSOLUTE
    ../clib/microlib/errno.c                 0x00000000   Number         0  errno.o ABSOLUTE
    ../clib/microlib/init/entry.s            0x00000000   Number         0  entry2.o ABSOLUTE
    ../clib/microlib/init/entry.s            0x00000000   Number         0  entry.o ABSOLUTE
    ../clib/microlib/init/entry.s            0x00000000   Number         0  entry5.o ABSOLUTE
    ../clib/microlib/init/entry.s            0x00000000   Number         0  entry7a.o ABSOLUTE
    ../clib/microlib/init/entry.s            0x00000000   Number         0  entry10b.o ABSOLUTE
    ../clib/microlib/init/entry.s            0x00000000   Number         0  entry7b.o ABSOLUTE
    ../clib/microlib/init/entry.s            0x00000000   Number         0  entry8a.o ABSOLUTE
    ../clib/microlib/init/entry.s            0x00000000   Number         0  entry8b.o ABSOLUTE
    ../clib/microlib/init/entry.s            0x00000000   Number         0  entry9a.o ABSOLUTE
    ../clib/microlib/init/entry.s            0x00000000   Number         0  entry9b.o ABSOLUTE
    ../clib/microlib/init/entry.s            0x00000000   Number         0  entry10a.o ABSOLUTE
    ../clib/microlib/init/entry.s            0x00000000   Number         0  entry11b.o ABSOLUTE
    ../clib/microlib/init/entry.s            0x00000000   Number         0  entry11a.o ABSOLUTE
    ../clib/microlib/longlong.c              0x00000000   Number         0  llsshr.o ABSOLUTE
    ../clib/microlib/longlong.c              0x00000000   Number         0  llushr.o ABSOLUTE
    ../clib/microlib/longlong.c              0x00000000   Number         0  llshl.o ABSOLUTE
    ../clib/microlib/printf/printf.c         0x00000000   Number         0  printf0.o ABSOLUTE
    ../clib/microlib/printf/printf.c         0x00000000   Number         0  printf5.o ABSOLUTE
    ../clib/microlib/printf/printf.c         0x00000000   Number         0  printf1.o ABSOLUTE
    ../clib/microlib/printf/printf.c         0x00000000   Number         0  printf2.o ABSOLUTE
    ../clib/microlib/printf/printf.c         0x00000000   Number         0  printfb.o ABSOLUTE
    ../clib/microlib/printf/printf.c         0x00000000   Number         0  printf3.o ABSOLUTE
    ../clib/microlib/printf/printf.c         0x00000000   Number         0  printfa.o ABSOLUTE
    ../clib/microlib/printf/printf.c         0x00000000   Number         0  printf8.o ABSOLUTE
    ../clib/microlib/printf/printf.c         0x00000000   Number         0  printf4.o ABSOLUTE
    ../clib/microlib/printf/printf.c         0x00000000   Number         0  printf7.o ABSOLUTE
    ../clib/microlib/printf/printf.c         0x00000000   Number         0  printf6.o ABSOLUTE
    ../clib/microlib/printf/stubs.s          0x00000000   Number         0  stubs.o ABSOLUTE
    ../clib/microlib/stdio/streams.c         0x00000000   Number         0  stdout.o ABSOLUTE
    ../clib/microlib/string/memcpy.c         0x00000000   Number         0  memcpya.o ABSOLUTE
    ../clib/microlib/string/memcpy.c         0x00000000   Number         0  memcpyb.o ABSOLUTE
    ../clib/microlib/string/memset.c         0x00000000   Number         0  memseta.o ABSOLUTE
    ../clib/microlib/stubs.s                 0x00000000   Number         0  iusefp.o ABSOLUTE
    ../fplib/microlib/d2f.c                  0x00000000   Number         0  d2f.o ABSOLUTE
    ../fplib/microlib/f2d.c                  0x00000000   Number         0  f2d.o ABSOLUTE
    ../fplib/microlib/fpadd.c                0x00000000   Number         0  fadd.o ABSOLUTE
    ../fplib/microlib/fpadd.c                0x00000000   Number         0  dadd.o ABSOLUTE
    ../fplib/microlib/fpdiv.c                0x00000000   Number         0  fdiv.o ABSOLUTE
    ../fplib/microlib/fpdiv.c                0x00000000   Number         0  ddiv.o ABSOLUTE
    ../fplib/microlib/fpepilogue.c           0x00000000   Number         0  fepilogue.o ABSOLUTE
    ../fplib/microlib/fpepilogue.c           0x00000000   Number         0  depilogue.o ABSOLUTE
    ../fplib/microlib/fpfix.c                0x00000000   Number         0  ffixir.o ABSOLUTE
    ../fplib/microlib/fpfix.c                0x00000000   Number         0  dfixul.o ABSOLUTE
    ../fplib/microlib/fpfix.c                0x00000000   Number         0  ffixi.o ABSOLUTE
    ../fplib/microlib/fpfix.c                0x00000000   Number         0  ffixl.o ABSOLUTE
    ../fplib/microlib/fpfix.c                0x00000000   Number         0  ffixui.o ABSOLUTE
    ../fplib/microlib/fpflt.c                0x00000000   Number         0  dflti.o ABSOLUTE
    ../fplib/microlib/fpflt.c                0x00000000   Number         0  fflti.o ABSOLUTE
    ../fplib/microlib/fpflt.c                0x00000000   Number         0  ffltui.o ABSOLUTE
    ../fplib/microlib/fpflt.c                0x00000000   Number         0  dfltui.o ABSOLUTE
    ../fplib/microlib/fpmul.c                0x00000000   Number         0  fmul.o ABSOLUTE
    ../fplib/microlib/fpmul.c                0x00000000   Number         0  dmul.o ABSOLUTE
    ../fplib/microlib/fprnd.c                0x00000000   Number         0  frnd.o ABSOLUTE
    ../fplib/microlib/fpscalb.c              0x00000000   Number         0  fscalb.o ABSOLUTE
    ../fplib/microlib/fpscalb.c              0x00000000   Number         0  dscalb.o ABSOLUTE
    ../fplib/microlib/fpsqrt.c               0x00000000   Number         0  fsqrt.o ABSOLUTE
    ../fplib/microlib/fpstat.c               0x00000000   Number         0  fpstat.o ABSOLUTE
    ../mathlib/dunder.c                      0x00000000   Number         0  dunder.o ABSOLUTE
    ../mathlib/expf.c                        0x00000000   Number         0  expf_x.o ABSOLUTE
    ../mathlib/expf.c                        0x00000000   Number         0  expf.o ABSOLUTE
    ../mathlib/fpclassifyf.c                 0x00000000   Number         0  fpclassifyf.o ABSOLUTE
    ../mathlib/funder.c                      0x00000000   Number         0  funder.o ABSOLUTE
    ../mathlib/log.c                         0x00000000   Number         0  log_x.o ABSOLUTE
    ../mathlib/log.c                         0x00000000   Number         0  log.o ABSOLUTE
    ../mathlib/logf.c                        0x00000000   Number         0  logf.o ABSOLUTE
    ../mathlib/logf.c                        0x00000000   Number         0  logf_x.o ABSOLUTE
    ../mathlib/poly.c                        0x00000000   Number         0  poly.o ABSOLUTE
    ../mathlib/powf.c                        0x00000000   Number         0  powf.o ABSOLUTE
    ../mathlib/powf.c                        0x00000000   Number         0  powf_x.o ABSOLUTE
    ../mathlib/qnan.c                        0x00000000   Number         0  qnan.o ABSOLUTE
    ../mathlib/sqrtf.c                       0x00000000   Number         0  sqrtf_x.o ABSOLUTE
    ../mathlib/sqrtf.c                       0x00000000   Number         0  sqrtf.o ABSOLUTE
    ../mathlib/tanhf.c                       0x00000000   Number         0  tanhf.o ABSOLUTE
    ../mathlib/tanhf.c                       0x00000000   Number         0  tanhf_x.o ABSOLUTE
    F:\Keil_MDK\pack\ARM\CMSIS\5.7.0\CMSIS\DSP\Source\BasicMathFunctions\BasicMathFunctions.c 0x00000000   Number         0  basicmathfunctions.o ABSOLUTE
    F:\Keil_MDK\pack\ARM\CMSIS\5.7.0\CMSIS\DSP\Source\BayesFunctions\BayesFunctions.c 0x00000000   Number         0  bayesfunctions.o ABSOLUTE
    F:\Keil_MDK\pack\ARM\CMSIS\5.7.0\CMSIS\DSP\Source\CommonTables\CommonTables.c 0x00000000   Number         0  commontables.o ABSOLUTE
    F:\Keil_MDK\pack\ARM\CMSIS\5.7.0\CMSIS\DSP\Source\ComplexMathFunctions\ComplexMathFunctions.c 0x00000000   Number         0  complexmathfunctions.o ABSOLUTE
    F:\Keil_MDK\pack\ARM\CMSIS\5.7.0\CMSIS\DSP\Source\ControllerFunctions\ControllerFunctions.c 0x00000000   Number         0  controllerfunctions.o ABSOLUTE
    F:\Keil_MDK\pack\ARM\CMSIS\5.7.0\CMSIS\DSP\Source\DistanceFunctions\DistanceFunctions.c 0x00000000   Number         0  distancefunctions.o ABSOLUTE
    F:\Keil_MDK\pack\ARM\CMSIS\5.7.0\CMSIS\DSP\Source\FastMathFunctions\FastMathFunctions.c 0x00000000   Number         0  fastmathfunctions.o ABSOLUTE
    F:\Keil_MDK\pack\ARM\CMSIS\5.7.0\CMSIS\DSP\Source\FilteringFunctions\FilteringFunctions.c 0x00000000   Number         0  filteringfunctions.o ABSOLUTE
    F:\Keil_MDK\pack\ARM\CMSIS\5.7.0\CMSIS\DSP\Source\MatrixFunctions\MatrixFunctions.c 0x00000000   Number         0  matrixfunctions.o ABSOLUTE
    F:\Keil_MDK\pack\ARM\CMSIS\5.7.0\CMSIS\DSP\Source\SVMFunctions\SVMFunctions.c 0x00000000   Number         0  svmfunctions.o ABSOLUTE
    F:\Keil_MDK\pack\ARM\CMSIS\5.7.0\CMSIS\DSP\Source\StatisticsFunctions\StatisticsFunctions.c 0x00000000   Number         0  statisticsfunctions.o ABSOLUTE
    F:\Keil_MDK\pack\ARM\CMSIS\5.7.0\CMSIS\DSP\Source\SupportFunctions\SupportFunctions.c 0x00000000   Number         0  supportfunctions.o ABSOLUTE
    F:\Keil_MDK\pack\ARM\CMSIS\5.7.0\CMSIS\DSP\Source\TransformFunctions\TransformFunctions.c 0x00000000   Number         0  transformfunctions.o ABSOLUTE
    F:\Keil_MDK\pack\ARM\CMSIS\5.7.0\CMSIS\NN\Source\ActivationFunctions\arm_nn_activations_q15.c 0x00000000   Number         0  arm_nn_activations_q15.o ABSOLUTE
    F:\Keil_MDK\pack\ARM\CMSIS\5.7.0\CMSIS\NN\Source\ActivationFunctions\arm_nn_activations_q7.c 0x00000000   Number         0  arm_nn_activations_q7.o ABSOLUTE
    F:\Keil_MDK\pack\ARM\CMSIS\5.7.0\CMSIS\NN\Source\ActivationFunctions\arm_relu6_s8.c 0x00000000   Number         0  arm_relu6_s8.o ABSOLUTE
    F:\Keil_MDK\pack\ARM\CMSIS\5.7.0\CMSIS\NN\Source\ActivationFunctions\arm_relu_q15.c 0x00000000   Number         0  arm_relu_q15.o ABSOLUTE
    F:\Keil_MDK\pack\ARM\CMSIS\5.7.0\CMSIS\NN\Source\ActivationFunctions\arm_relu_q7.c 0x00000000   Number         0  arm_relu_q7.o ABSOLUTE
    F:\Keil_MDK\pack\ARM\CMSIS\5.7.0\CMSIS\NN\Source\BasicMathFunctions\arm_elementwise_add_s8.c 0x00000000   Number         0  arm_elementwise_add_s8.o ABSOLUTE
    F:\Keil_MDK\pack\ARM\CMSIS\5.7.0\CMSIS\NN\Source\BasicMathFunctions\arm_elementwise_mul_s8.c 0x00000000   Number         0  arm_elementwise_mul_s8.o ABSOLUTE
    F:\Keil_MDK\pack\ARM\CMSIS\5.7.0\CMSIS\NN\Source\ConcatenationFunctions\arm_concatenation_s8_w.c 0x00000000   Number         0  arm_concatenation_s8_w.o ABSOLUTE
    F:\Keil_MDK\pack\ARM\CMSIS\5.7.0\CMSIS\NN\Source\ConcatenationFunctions\arm_concatenation_s8_x.c 0x00000000   Number         0  arm_concatenation_s8_x.o ABSOLUTE
    F:\Keil_MDK\pack\ARM\CMSIS\5.7.0\CMSIS\NN\Source\ConcatenationFunctions\arm_concatenation_s8_y.c 0x00000000   Number         0  arm_concatenation_s8_y.o ABSOLUTE
    F:\Keil_MDK\pack\ARM\CMSIS\5.7.0\CMSIS\NN\Source\ConcatenationFunctions\arm_concatenation_s8_z.c 0x00000000   Number         0  arm_concatenation_s8_z.o ABSOLUTE
    F:\Keil_MDK\pack\ARM\CMSIS\5.7.0\CMSIS\NN\Source\ConvolutionFunctions\arm_convolve_1_x_n_s8.c 0x00000000   Number         0  arm_convolve_1_x_n_s8.o ABSOLUTE
    F:\Keil_MDK\pack\ARM\CMSIS\5.7.0\CMSIS\NN\Source\ConvolutionFunctions\arm_convolve_1x1_HWC_q7_fast_nonsquare.c 0x00000000   Number         0  arm_convolve_1x1_hwc_q7_fast_nonsquare.o ABSOLUTE
    F:\Keil_MDK\pack\ARM\CMSIS\5.7.0\CMSIS\NN\Source\ConvolutionFunctions\arm_convolve_1x1_s8_fast.c 0x00000000   Number         0  arm_convolve_1x1_s8_fast.o ABSOLUTE
    F:\Keil_MDK\pack\ARM\CMSIS\5.7.0\CMSIS\NN\Source\ConvolutionFunctions\arm_convolve_HWC_q15_basic.c 0x00000000   Number         0  arm_convolve_hwc_q15_basic.o ABSOLUTE
    F:\Keil_MDK\pack\ARM\CMSIS\5.7.0\CMSIS\NN\Source\ConvolutionFunctions\arm_convolve_HWC_q15_fast.c 0x00000000   Number         0  arm_convolve_hwc_q15_fast.o ABSOLUTE
    F:\Keil_MDK\pack\ARM\CMSIS\5.7.0\CMSIS\NN\Source\ConvolutionFunctions\arm_convolve_HWC_q15_fast_nonsquare.c 0x00000000   Number         0  arm_convolve_hwc_q15_fast_nonsquare.o ABSOLUTE
    F:\Keil_MDK\pack\ARM\CMSIS\5.7.0\CMSIS\NN\Source\ConvolutionFunctions\arm_convolve_HWC_q7_RGB.c 0x00000000   Number         0  arm_convolve_hwc_q7_rgb.o ABSOLUTE
    F:\Keil_MDK\pack\ARM\CMSIS\5.7.0\CMSIS\NN\Source\ConvolutionFunctions\arm_convolve_HWC_q7_basic.c 0x00000000   Number         0  arm_convolve_hwc_q7_basic.o ABSOLUTE
    F:\Keil_MDK\pack\ARM\CMSIS\5.7.0\CMSIS\NN\Source\ConvolutionFunctions\arm_convolve_HWC_q7_basic_nonsquare.c 0x00000000   Number         0  arm_convolve_hwc_q7_basic_nonsquare.o ABSOLUTE
    F:\Keil_MDK\pack\ARM\CMSIS\5.7.0\CMSIS\NN\Source\ConvolutionFunctions\arm_convolve_HWC_q7_fast.c 0x00000000   Number         0  arm_convolve_hwc_q7_fast.o ABSOLUTE
    F:\Keil_MDK\pack\ARM\CMSIS\5.7.0\CMSIS\NN\Source\ConvolutionFunctions\arm_convolve_HWC_q7_fast_nonsquare.c 0x00000000   Number         0  arm_convolve_hwc_q7_fast_nonsquare.o ABSOLUTE
    F:\Keil_MDK\pack\ARM\CMSIS\5.7.0\CMSIS\NN\Source\ConvolutionFunctions\arm_convolve_s8.c 0x00000000   Number         0  arm_convolve_s8.o ABSOLUTE
    F:\Keil_MDK\pack\ARM\CMSIS\5.7.0\CMSIS\NN\Source\ConvolutionFunctions\arm_depthwise_conv_3x3_s8.c 0x00000000   Number         0  arm_depthwise_conv_3x3_s8.o ABSOLUTE
    F:\Keil_MDK\pack\ARM\CMSIS\5.7.0\CMSIS\NN\Source\ConvolutionFunctions\arm_depthwise_conv_s8.c 0x00000000   Number         0  arm_depthwise_conv_s8.o ABSOLUTE
    F:\Keil_MDK\pack\ARM\CMSIS\5.7.0\CMSIS\NN\Source\ConvolutionFunctions\arm_depthwise_conv_s8_opt.c 0x00000000   Number         0  arm_depthwise_conv_s8_opt.o ABSOLUTE
    F:\Keil_MDK\pack\ARM\CMSIS\5.7.0\CMSIS\NN\Source\ConvolutionFunctions\arm_depthwise_conv_u8_basic_ver1.c 0x00000000   Number         0  arm_depthwise_conv_u8_basic_ver1.o ABSOLUTE
    F:\Keil_MDK\pack\ARM\CMSIS\5.7.0\CMSIS\NN\Source\ConvolutionFunctions\arm_depthwise_separable_conv_HWC_q7.c 0x00000000   Number         0  arm_depthwise_separable_conv_hwc_q7.o ABSOLUTE
    F:\Keil_MDK\pack\ARM\CMSIS\5.7.0\CMSIS\NN\Source\ConvolutionFunctions\arm_depthwise_separable_conv_HWC_q7_nonsquare.c 0x00000000   Number         0  arm_depthwise_separable_conv_hwc_q7_nonsquare.o ABSOLUTE
    F:\Keil_MDK\pack\ARM\CMSIS\5.7.0\CMSIS\NN\Source\ConvolutionFunctions\arm_nn_depthwise_conv_s8_core.c 0x00000000   Number         0  arm_nn_depthwise_conv_s8_core.o ABSOLUTE
    F:\Keil_MDK\pack\ARM\CMSIS\5.7.0\CMSIS\NN\Source\ConvolutionFunctions\arm_nn_mat_mult_kernel_q7_q15.c 0x00000000   Number         0  arm_nn_mat_mult_kernel_q7_q15.o ABSOLUTE
    F:\Keil_MDK\pack\ARM\CMSIS\5.7.0\CMSIS\NN\Source\ConvolutionFunctions\arm_nn_mat_mult_kernel_q7_q15_reordered.c 0x00000000   Number         0  arm_nn_mat_mult_kernel_q7_q15_reordered.o ABSOLUTE
    F:\Keil_MDK\pack\ARM\CMSIS\5.7.0\CMSIS\NN\Source\ConvolutionFunctions\arm_nn_mat_mult_kernel_s8_s16.c 0x00000000   Number         0  arm_nn_mat_mult_kernel_s8_s16.o ABSOLUTE
    F:\Keil_MDK\pack\ARM\CMSIS\5.7.0\CMSIS\NN\Source\ConvolutionFunctions\arm_nn_mat_mult_kernel_s8_s16_reordered.c 0x00000000   Number         0  arm_nn_mat_mult_kernel_s8_s16_reordered.o ABSOLUTE
    F:\Keil_MDK\pack\ARM\CMSIS\5.7.0\CMSIS\NN\Source\ConvolutionFunctions\arm_nn_mat_mult_s8.c 0x00000000   Number         0  arm_nn_mat_mult_s8.o ABSOLUTE
    F:\Keil_MDK\pack\ARM\CMSIS\5.7.0\CMSIS\NN\Source\FullyConnectedFunctions\arm_fully_connected_mat_q7_vec_q15.c 0x00000000   Number         0  arm_fully_connected_mat_q7_vec_q15.o ABSOLUTE
    F:\Keil_MDK\pack\ARM\CMSIS\5.7.0\CMSIS\NN\Source\FullyConnectedFunctions\arm_fully_connected_mat_q7_vec_q15_opt.c 0x00000000   Number         0  arm_fully_connected_mat_q7_vec_q15_opt.o ABSOLUTE
    F:\Keil_MDK\pack\ARM\CMSIS\5.7.0\CMSIS\NN\Source\FullyConnectedFunctions\arm_fully_connected_q15.c 0x00000000   Number         0  arm_fully_connected_q15.o ABSOLUTE
    F:\Keil_MDK\pack\ARM\CMSIS\5.7.0\CMSIS\NN\Source\FullyConnectedFunctions\arm_fully_connected_q15_opt.c 0x00000000   Number         0  arm_fully_connected_q15_opt.o ABSOLUTE
    F:\Keil_MDK\pack\ARM\CMSIS\5.7.0\CMSIS\NN\Source\FullyConnectedFunctions\arm_fully_connected_q7.c 0x00000000   Number         0  arm_fully_connected_q7.o ABSOLUTE
    F:\Keil_MDK\pack\ARM\CMSIS\5.7.0\CMSIS\NN\Source\FullyConnectedFunctions\arm_fully_connected_q7_opt.c 0x00000000   Number         0  arm_fully_connected_q7_opt.o ABSOLUTE
    F:\Keil_MDK\pack\ARM\CMSIS\5.7.0\CMSIS\NN\Source\FullyConnectedFunctions\arm_fully_connected_s8.c 0x00000000   Number         0  arm_fully_connected_s8.o ABSOLUTE
    F:\Keil_MDK\pack\ARM\CMSIS\5.7.0\CMSIS\NN\Source\NNSupportFunctions\arm_nn_accumulate_q7_to_q15.c 0x00000000   Number         0  arm_nn_accumulate_q7_to_q15.o ABSOLUTE
    F:\Keil_MDK\pack\ARM\CMSIS\5.7.0\CMSIS\NN\Source\NNSupportFunctions\arm_nn_add_q7.c 0x00000000   Number         0  arm_nn_add_q7.o ABSOLUTE
    F:\Keil_MDK\pack\ARM\CMSIS\5.7.0\CMSIS\NN\Source\NNSupportFunctions\arm_nn_mat_mul_core_1x_s8.c 0x00000000   Number         0  arm_nn_mat_mul_core_1x_s8.o ABSOLUTE
    F:\Keil_MDK\pack\ARM\CMSIS\5.7.0\CMSIS\NN\Source\NNSupportFunctions\arm_nn_mat_mul_core_4x_s8.c 0x00000000   Number         0  arm_nn_mat_mul_core_4x_s8.o ABSOLUTE
    F:\Keil_MDK\pack\ARM\CMSIS\5.7.0\CMSIS\NN\Source\NNSupportFunctions\arm_nn_mat_mult_nt_t_s8.c 0x00000000   Number         0  arm_nn_mat_mult_nt_t_s8.o ABSOLUTE
    F:\Keil_MDK\pack\ARM\CMSIS\5.7.0\CMSIS\NN\Source\NNSupportFunctions\arm_nn_mult_q15.c 0x00000000   Number         0  arm_nn_mult_q15.o ABSOLUTE
    F:\Keil_MDK\pack\ARM\CMSIS\5.7.0\CMSIS\NN\Source\NNSupportFunctions\arm_nn_mult_q7.c 0x00000000   Number         0  arm_nn_mult_q7.o ABSOLUTE
    F:\Keil_MDK\pack\ARM\CMSIS\5.7.0\CMSIS\NN\Source\NNSupportFunctions\arm_nn_vec_mat_mult_t_s8.c 0x00000000   Number         0  arm_nn_vec_mat_mult_t_s8.o ABSOLUTE
    F:\Keil_MDK\pack\ARM\CMSIS\5.7.0\CMSIS\NN\Source\NNSupportFunctions\arm_nntables.c 0x00000000   Number         0  arm_nntables.o ABSOLUTE
    F:\Keil_MDK\pack\ARM\CMSIS\5.7.0\CMSIS\NN\Source\NNSupportFunctions\arm_q7_to_q15_no_shift.c 0x00000000   Number         0  arm_q7_to_q15_no_shift.o ABSOLUTE
    F:\Keil_MDK\pack\ARM\CMSIS\5.7.0\CMSIS\NN\Source\NNSupportFunctions\arm_q7_to_q15_reordered_no_shift.c 0x00000000   Number         0  arm_q7_to_q15_reordered_no_shift.o ABSOLUTE
    F:\Keil_MDK\pack\ARM\CMSIS\5.7.0\CMSIS\NN\Source\NNSupportFunctions\arm_q7_to_q15_reordered_with_offset.c 0x00000000   Number         0  arm_q7_to_q15_reordered_with_offset.o ABSOLUTE
    F:\Keil_MDK\pack\ARM\CMSIS\5.7.0\CMSIS\NN\Source\NNSupportFunctions\arm_q7_to_q15_with_offset.c 0x00000000   Number         0  arm_q7_to_q15_with_offset.o ABSOLUTE
    F:\Keil_MDK\pack\ARM\CMSIS\5.7.0\CMSIS\NN\Source\PoolingFunctions\arm_avgpool_s8.c 0x00000000   Number         0  arm_avgpool_s8.o ABSOLUTE
    F:\Keil_MDK\pack\ARM\CMSIS\5.7.0\CMSIS\NN\Source\PoolingFunctions\arm_max_pool_s8.c 0x00000000   Number         0  arm_max_pool_s8.o ABSOLUTE
    F:\Keil_MDK\pack\ARM\CMSIS\5.7.0\CMSIS\NN\Source\PoolingFunctions\arm_max_pool_s8_opt.c 0x00000000   Number         0  arm_max_pool_s8_opt.o ABSOLUTE
    F:\Keil_MDK\pack\ARM\CMSIS\5.7.0\CMSIS\NN\Source\PoolingFunctions\arm_pool_q7_HWC.c 0x00000000   Number         0  arm_pool_q7_hwc.o ABSOLUTE
    F:\Keil_MDK\pack\ARM\CMSIS\5.7.0\CMSIS\NN\Source\ReshapeFunctions\arm_reshape_s8.c 0x00000000   Number         0  arm_reshape_s8.o ABSOLUTE
    F:\Keil_MDK\pack\ARM\CMSIS\5.7.0\CMSIS\NN\Source\SoftmaxFunctions\arm_softmax_q15.c 0x00000000   Number         0  arm_softmax_q15.o ABSOLUTE
    F:\Keil_MDK\pack\ARM\CMSIS\5.7.0\CMSIS\NN\Source\SoftmaxFunctions\arm_softmax_q7.c 0x00000000   Number         0  arm_softmax_q7.o ABSOLUTE
    F:\Keil_MDK\pack\ARM\CMSIS\5.7.0\CMSIS\NN\Source\SoftmaxFunctions\arm_softmax_s8.c 0x00000000   Number         0  arm_softmax_s8.o ABSOLUTE
    F:\Keil_MDK\pack\ARM\CMSIS\5.7.0\CMSIS\NN\Source\SoftmaxFunctions\arm_softmax_u8.c 0x00000000   Number         0  arm_softmax_u8.o ABSOLUTE
    F:\Keil_MDK\pack\ARM\CMSIS\5.7.0\CMSIS\NN\Source\SoftmaxFunctions\arm_softmax_with_batch_q7.c 0x00000000   Number         0  arm_softmax_with_batch_q7.o ABSOLUTE
    F:\\Keil_MDK\\pack\\ARM\\CMSIS\\5.7.0\\CMSIS\\DSP\\Source\\BasicMathFunctions\\BasicMathFunctions.c 0x00000000   Number         0  basicmathfunctions.o ABSOLUTE
    F:\\Keil_MDK\\pack\\ARM\\CMSIS\\5.7.0\\CMSIS\\DSP\\Source\\BayesFunctions\\BayesFunctions.c 0x00000000   Number         0  bayesfunctions.o ABSOLUTE
    F:\\Keil_MDK\\pack\\ARM\\CMSIS\\5.7.0\\CMSIS\\DSP\\Source\\CommonTables\\CommonTables.c 0x00000000   Number         0  commontables.o ABSOLUTE
    F:\\Keil_MDK\\pack\\ARM\\CMSIS\\5.7.0\\CMSIS\\DSP\\Source\\ComplexMathFunctions\\ComplexMathFunctions.c 0x00000000   Number         0  complexmathfunctions.o ABSOLUTE
    F:\\Keil_MDK\\pack\\ARM\\CMSIS\\5.7.0\\CMSIS\\DSP\\Source\\ControllerFunctions\\ControllerFunctions.c 0x00000000   Number         0  controllerfunctions.o ABSOLUTE
    F:\\Keil_MDK\\pack\\ARM\\CMSIS\\5.7.0\\CMSIS\\DSP\\Source\\DistanceFunctions\\DistanceFunctions.c 0x00000000   Number         0  distancefunctions.o ABSOLUTE
    F:\\Keil_MDK\\pack\\ARM\\CMSIS\\5.7.0\\CMSIS\\DSP\\Source\\FastMathFunctions\\FastMathFunctions.c 0x00000000   Number         0  fastmathfunctions.o ABSOLUTE
    F:\\Keil_MDK\\pack\\ARM\\CMSIS\\5.7.0\\CMSIS\\DSP\\Source\\FilteringFunctions\\FilteringFunctions.c 0x00000000   Number         0  filteringfunctions.o ABSOLUTE
    F:\\Keil_MDK\\pack\\ARM\\CMSIS\\5.7.0\\CMSIS\\DSP\\Source\\MatrixFunctions\\MatrixFunctions.c 0x00000000   Number         0  matrixfunctions.o ABSOLUTE
    F:\\Keil_MDK\\pack\\ARM\\CMSIS\\5.7.0\\CMSIS\\DSP\\Source\\SVMFunctions\\SVMFunctions.c 0x00000000   Number         0  svmfunctions.o ABSOLUTE
    F:\\Keil_MDK\\pack\\ARM\\CMSIS\\5.7.0\\CMSIS\\DSP\\Source\\StatisticsFunctions\\StatisticsFunctions.c 0x00000000   Number         0  statisticsfunctions.o ABSOLUTE
    F:\\Keil_MDK\\pack\\ARM\\CMSIS\\5.7.0\\CMSIS\\DSP\\Source\\SupportFunctions\\SupportFunctions.c 0x00000000   Number         0  supportfunctions.o ABSOLUTE
    F:\\Keil_MDK\\pack\\ARM\\CMSIS\\5.7.0\\CMSIS\\DSP\\Source\\TransformFunctions\\TransformFunctions.c 0x00000000   Number         0  transformfunctions.o ABSOLUTE
    F:\\Keil_MDK\\pack\\ARM\\CMSIS\\5.7.0\\CMSIS\\NN\\Source\\ActivationFunctions\\arm_nn_activations_q15.c 0x00000000   Number         0  arm_nn_activations_q15.o ABSOLUTE
    F:\\Keil_MDK\\pack\\ARM\\CMSIS\\5.7.0\\CMSIS\\NN\\Source\\ActivationFunctions\\arm_nn_activations_q7.c 0x00000000   Number         0  arm_nn_activations_q7.o ABSOLUTE
    F:\\Keil_MDK\\pack\\ARM\\CMSIS\\5.7.0\\CMSIS\\NN\\Source\\ActivationFunctions\\arm_relu6_s8.c 0x00000000   Number         0  arm_relu6_s8.o ABSOLUTE
    F:\\Keil_MDK\\pack\\ARM\\CMSIS\\5.7.0\\CMSIS\\NN\\Source\\ActivationFunctions\\arm_relu_q15.c 0x00000000   Number         0  arm_relu_q15.o ABSOLUTE
    F:\\Keil_MDK\\pack\\ARM\\CMSIS\\5.7.0\\CMSIS\\NN\\Source\\ActivationFunctions\\arm_relu_q7.c 0x00000000   Number         0  arm_relu_q7.o ABSOLUTE
    F:\\Keil_MDK\\pack\\ARM\\CMSIS\\5.7.0\\CMSIS\\NN\\Source\\BasicMathFunctions\\arm_elementwise_add_s8.c 0x00000000   Number         0  arm_elementwise_add_s8.o ABSOLUTE
    F:\\Keil_MDK\\pack\\ARM\\CMSIS\\5.7.0\\CMSIS\\NN\\Source\\BasicMathFunctions\\arm_elementwise_mul_s8.c 0x00000000   Number         0  arm_elementwise_mul_s8.o ABSOLUTE
    F:\\Keil_MDK\\pack\\ARM\\CMSIS\\5.7.0\\CMSIS\\NN\\Source\\ConcatenationFunctions\\arm_concatenation_s8_w.c 0x00000000   Number         0  arm_concatenation_s8_w.o ABSOLUTE
    F:\\Keil_MDK\\pack\\ARM\\CMSIS\\5.7.0\\CMSIS\\NN\\Source\\ConcatenationFunctions\\arm_concatenation_s8_x.c 0x00000000   Number         0  arm_concatenation_s8_x.o ABSOLUTE
    F:\\Keil_MDK\\pack\\ARM\\CMSIS\\5.7.0\\CMSIS\\NN\\Source\\ConcatenationFunctions\\arm_concatenation_s8_y.c 0x00000000   Number         0  arm_concatenation_s8_y.o ABSOLUTE
    F:\\Keil_MDK\\pack\\ARM\\CMSIS\\5.7.0\\CMSIS\\NN\\Source\\ConcatenationFunctions\\arm_concatenation_s8_z.c 0x00000000   Number         0  arm_concatenation_s8_z.o ABSOLUTE
    F:\\Keil_MDK\\pack\\ARM\\CMSIS\\5.7.0\\CMSIS\\NN\\Source\\ConvolutionFunctions\\arm_convolve_1_x_n_s8.c 0x00000000   Number         0  arm_convolve_1_x_n_s8.o ABSOLUTE
    F:\\Keil_MDK\\pack\\ARM\\CMSIS\\5.7.0\\CMSIS\\NN\\Source\\ConvolutionFunctions\\arm_convolve_1x1_HWC_q7_fast_nonsquare.c 0x00000000   Number         0  arm_convolve_1x1_hwc_q7_fast_nonsquare.o ABSOLUTE
    F:\\Keil_MDK\\pack\\ARM\\CMSIS\\5.7.0\\CMSIS\\NN\\Source\\ConvolutionFunctions\\arm_convolve_1x1_s8_fast.c 0x00000000   Number         0  arm_convolve_1x1_s8_fast.o ABSOLUTE
    F:\\Keil_MDK\\pack\\ARM\\CMSIS\\5.7.0\\CMSIS\\NN\\Source\\ConvolutionFunctions\\arm_convolve_HWC_q15_basic.c 0x00000000   Number         0  arm_convolve_hwc_q15_basic.o ABSOLUTE
    F:\\Keil_MDK\\pack\\ARM\\CMSIS\\5.7.0\\CMSIS\\NN\\Source\\ConvolutionFunctions\\arm_convolve_HWC_q15_fast.c 0x00000000   Number         0  arm_convolve_hwc_q15_fast.o ABSOLUTE
    F:\\Keil_MDK\\pack\\ARM\\CMSIS\\5.7.0\\CMSIS\\NN\\Source\\ConvolutionFunctions\\arm_convolve_HWC_q15_fast_nonsquare.c 0x00000000   Number         0  arm_convolve_hwc_q15_fast_nonsquare.o ABSOLUTE
    F:\\Keil_MDK\\pack\\ARM\\CMSIS\\5.7.0\\CMSIS\\NN\\Source\\ConvolutionFunctions\\arm_convolve_HWC_q7_RGB.c 0x00000000   Number         0  arm_convolve_hwc_q7_rgb.o ABSOLUTE
    F:\\Keil_MDK\\pack\\ARM\\CMSIS\\5.7.0\\CMSIS\\NN\\Source\\ConvolutionFunctions\\arm_convolve_HWC_q7_basic.c 0x00000000   Number         0  arm_convolve_hwc_q7_basic.o ABSOLUTE
    F:\\Keil_MDK\\pack\\ARM\\CMSIS\\5.7.0\\CMSIS\\NN\\Source\\ConvolutionFunctions\\arm_convolve_HWC_q7_basic_nonsquare.c 0x00000000   Number         0  arm_convolve_hwc_q7_basic_nonsquare.o ABSOLUTE
    F:\\Keil_MDK\\pack\\ARM\\CMSIS\\5.7.0\\CMSIS\\NN\\Source\\ConvolutionFunctions\\arm_convolve_HWC_q7_fast.c 0x00000000   Number         0  arm_convolve_hwc_q7_fast.o ABSOLUTE
    F:\\Keil_MDK\\pack\\ARM\\CMSIS\\5.7.0\\CMSIS\\NN\\Source\\ConvolutionFunctions\\arm_convolve_HWC_q7_fast_nonsquare.c 0x00000000   Number         0  arm_convolve_hwc_q7_fast_nonsquare.o ABSOLUTE
    F:\\Keil_MDK\\pack\\ARM\\CMSIS\\5.7.0\\CMSIS\\NN\\Source\\ConvolutionFunctions\\arm_convolve_s8.c 0x00000000   Number         0  arm_convolve_s8.o ABSOLUTE
    F:\\Keil_MDK\\pack\\ARM\\CMSIS\\5.7.0\\CMSIS\\NN\\Source\\ConvolutionFunctions\\arm_depthwise_conv_3x3_s8.c 0x00000000   Number         0  arm_depthwise_conv_3x3_s8.o ABSOLUTE
    F:\\Keil_MDK\\pack\\ARM\\CMSIS\\5.7.0\\CMSIS\\NN\\Source\\ConvolutionFunctions\\arm_depthwise_conv_s8.c 0x00000000   Number         0  arm_depthwise_conv_s8.o ABSOLUTE
    F:\\Keil_MDK\\pack\\ARM\\CMSIS\\5.7.0\\CMSIS\\NN\\Source\\ConvolutionFunctions\\arm_depthwise_conv_s8_opt.c 0x00000000   Number         0  arm_depthwise_conv_s8_opt.o ABSOLUTE
    F:\\Keil_MDK\\pack\\ARM\\CMSIS\\5.7.0\\CMSIS\\NN\\Source\\ConvolutionFunctions\\arm_depthwise_conv_u8_basic_ver1.c 0x00000000   Number         0  arm_depthwise_conv_u8_basic_ver1.o ABSOLUTE
    F:\\Keil_MDK\\pack\\ARM\\CMSIS\\5.7.0\\CMSIS\\NN\\Source\\ConvolutionFunctions\\arm_depthwise_separable_conv_HWC_q7.c 0x00000000   Number         0  arm_depthwise_separable_conv_hwc_q7.o ABSOLUTE
    F:\\Keil_MDK\\pack\\ARM\\CMSIS\\5.7.0\\CMSIS\\NN\\Source\\ConvolutionFunctions\\arm_depthwise_separable_conv_HWC_q7_nonsquare.c 0x00000000   Number         0  arm_depthwise_separable_conv_hwc_q7_nonsquare.o ABSOLUTE
    F:\\Keil_MDK\\pack\\ARM\\CMSIS\\5.7.0\\CMSIS\\NN\\Source\\ConvolutionFunctions\\arm_nn_depthwise_conv_s8_core.c 0x00000000   Number         0  arm_nn_depthwise_conv_s8_core.o ABSOLUTE
    F:\\Keil_MDK\\pack\\ARM\\CMSIS\\5.7.0\\CMSIS\\NN\\Source\\ConvolutionFunctions\\arm_nn_mat_mult_kernel_q7_q15.c 0x00000000   Number         0  arm_nn_mat_mult_kernel_q7_q15.o ABSOLUTE
    F:\\Keil_MDK\\pack\\ARM\\CMSIS\\5.7.0\\CMSIS\\NN\\Source\\ConvolutionFunctions\\arm_nn_mat_mult_kernel_q7_q15_reordered.c 0x00000000   Number         0  arm_nn_mat_mult_kernel_q7_q15_reordered.o ABSOLUTE
    F:\\Keil_MDK\\pack\\ARM\\CMSIS\\5.7.0\\CMSIS\\NN\\Source\\ConvolutionFunctions\\arm_nn_mat_mult_kernel_s8_s16.c 0x00000000   Number         0  arm_nn_mat_mult_kernel_s8_s16.o ABSOLUTE
    F:\\Keil_MDK\\pack\\ARM\\CMSIS\\5.7.0\\CMSIS\\NN\\Source\\ConvolutionFunctions\\arm_nn_mat_mult_kernel_s8_s16_reordered.c 0x00000000   Number         0  arm_nn_mat_mult_kernel_s8_s16_reordered.o ABSOLUTE
    F:\\Keil_MDK\\pack\\ARM\\CMSIS\\5.7.0\\CMSIS\\NN\\Source\\ConvolutionFunctions\\arm_nn_mat_mult_s8.c 0x00000000   Number         0  arm_nn_mat_mult_s8.o ABSOLUTE
    F:\\Keil_MDK\\pack\\ARM\\CMSIS\\5.7.0\\CMSIS\\NN\\Source\\FullyConnectedFunctions\\arm_fully_connected_mat_q7_vec_q15.c 0x00000000   Number         0  arm_fully_connected_mat_q7_vec_q15.o ABSOLUTE
    F:\\Keil_MDK\\pack\\ARM\\CMSIS\\5.7.0\\CMSIS\\NN\\Source\\FullyConnectedFunctions\\arm_fully_connected_mat_q7_vec_q15_opt.c 0x00000000   Number         0  arm_fully_connected_mat_q7_vec_q15_opt.o ABSOLUTE
    F:\\Keil_MDK\\pack\\ARM\\CMSIS\\5.7.0\\CMSIS\\NN\\Source\\FullyConnectedFunctions\\arm_fully_connected_q15.c 0x00000000   Number         0  arm_fully_connected_q15.o ABSOLUTE
    F:\\Keil_MDK\\pack\\ARM\\CMSIS\\5.7.0\\CMSIS\\NN\\Source\\FullyConnectedFunctions\\arm_fully_connected_q15_opt.c 0x00000000   Number         0  arm_fully_connected_q15_opt.o ABSOLUTE
    F:\\Keil_MDK\\pack\\ARM\\CMSIS\\5.7.0\\CMSIS\\NN\\Source\\FullyConnectedFunctions\\arm_fully_connected_q7.c 0x00000000   Number         0  arm_fully_connected_q7.o ABSOLUTE
    F:\\Keil_MDK\\pack\\ARM\\CMSIS\\5.7.0\\CMSIS\\NN\\Source\\FullyConnectedFunctions\\arm_fully_connected_q7_opt.c 0x00000000   Number         0  arm_fully_connected_q7_opt.o ABSOLUTE
    F:\\Keil_MDK\\pack\\ARM\\CMSIS\\5.7.0\\CMSIS\\NN\\Source\\FullyConnectedFunctions\\arm_fully_connected_s8.c 0x00000000   Number         0  arm_fully_connected_s8.o ABSOLUTE
    F:\\Keil_MDK\\pack\\ARM\\CMSIS\\5.7.0\\CMSIS\\NN\\Source\\NNSupportFunctions\\arm_nn_accumulate_q7_to_q15.c 0x00000000   Number         0  arm_nn_accumulate_q7_to_q15.o ABSOLUTE
    F:\\Keil_MDK\\pack\\ARM\\CMSIS\\5.7.0\\CMSIS\\NN\\Source\\NNSupportFunctions\\arm_nn_add_q7.c 0x00000000   Number         0  arm_nn_add_q7.o ABSOLUTE
    F:\\Keil_MDK\\pack\\ARM\\CMSIS\\5.7.0\\CMSIS\\NN\\Source\\NNSupportFunctions\\arm_nn_mat_mul_core_1x_s8.c 0x00000000   Number         0  arm_nn_mat_mul_core_1x_s8.o ABSOLUTE
    F:\\Keil_MDK\\pack\\ARM\\CMSIS\\5.7.0\\CMSIS\\NN\\Source\\NNSupportFunctions\\arm_nn_mat_mul_core_4x_s8.c 0x00000000   Number         0  arm_nn_mat_mul_core_4x_s8.o ABSOLUTE
    F:\\Keil_MDK\\pack\\ARM\\CMSIS\\5.7.0\\CMSIS\\NN\\Source\\NNSupportFunctions\\arm_nn_mat_mult_nt_t_s8.c 0x00000000   Number         0  arm_nn_mat_mult_nt_t_s8.o ABSOLUTE
    F:\\Keil_MDK\\pack\\ARM\\CMSIS\\5.7.0\\CMSIS\\NN\\Source\\NNSupportFunctions\\arm_nn_mult_q15.c 0x00000000   Number         0  arm_nn_mult_q15.o ABSOLUTE
    F:\\Keil_MDK\\pack\\ARM\\CMSIS\\5.7.0\\CMSIS\\NN\\Source\\NNSupportFunctions\\arm_nn_mult_q7.c 0x00000000   Number         0  arm_nn_mult_q7.o ABSOLUTE
    F:\\Keil_MDK\\pack\\ARM\\CMSIS\\5.7.0\\CMSIS\\NN\\Source\\NNSupportFunctions\\arm_nn_vec_mat_mult_t_s8.c 0x00000000   Number         0  arm_nn_vec_mat_mult_t_s8.o ABSOLUTE
    F:\\Keil_MDK\\pack\\ARM\\CMSIS\\5.7.0\\CMSIS\\NN\\Source\\NNSupportFunctions\\arm_nntables.c 0x00000000   Number         0  arm_nntables.o ABSOLUTE
    F:\\Keil_MDK\\pack\\ARM\\CMSIS\\5.7.0\\CMSIS\\NN\\Source\\NNSupportFunctions\\arm_q7_to_q15_no_shift.c 0x00000000   Number         0  arm_q7_to_q15_no_shift.o ABSOLUTE
    F:\\Keil_MDK\\pack\\ARM\\CMSIS\\5.7.0\\CMSIS\\NN\\Source\\NNSupportFunctions\\arm_q7_to_q15_reordered_no_shift.c 0x00000000   Number         0  arm_q7_to_q15_reordered_no_shift.o ABSOLUTE
    F:\\Keil_MDK\\pack\\ARM\\CMSIS\\5.7.0\\CMSIS\\NN\\Source\\NNSupportFunctions\\arm_q7_to_q15_reordered_with_offset.c 0x00000000   Number         0  arm_q7_to_q15_reordered_with_offset.o ABSOLUTE
    F:\\Keil_MDK\\pack\\ARM\\CMSIS\\5.7.0\\CMSIS\\NN\\Source\\NNSupportFunctions\\arm_q7_to_q15_with_offset.c 0x00000000   Number         0  arm_q7_to_q15_with_offset.o ABSOLUTE
    F:\\Keil_MDK\\pack\\ARM\\CMSIS\\5.7.0\\CMSIS\\NN\\Source\\PoolingFunctions\\arm_avgpool_s8.c 0x00000000   Number         0  arm_avgpool_s8.o ABSOLUTE
    F:\\Keil_MDK\\pack\\ARM\\CMSIS\\5.7.0\\CMSIS\\NN\\Source\\PoolingFunctions\\arm_max_pool_s8.c 0x00000000   Number         0  arm_max_pool_s8.o ABSOLUTE
    F:\\Keil_MDK\\pack\\ARM\\CMSIS\\5.7.0\\CMSIS\\NN\\Source\\PoolingFunctions\\arm_max_pool_s8_opt.c 0x00000000   Number         0  arm_max_pool_s8_opt.o ABSOLUTE
    F:\\Keil_MDK\\pack\\ARM\\CMSIS\\5.7.0\\CMSIS\\NN\\Source\\PoolingFunctions\\arm_pool_q7_HWC.c 0x00000000   Number         0  arm_pool_q7_hwc.o ABSOLUTE
    F:\\Keil_MDK\\pack\\ARM\\CMSIS\\5.7.0\\CMSIS\\NN\\Source\\ReshapeFunctions\\arm_reshape_s8.c 0x00000000   Number         0  arm_reshape_s8.o ABSOLUTE
    F:\\Keil_MDK\\pack\\ARM\\CMSIS\\5.7.0\\CMSIS\\NN\\Source\\SoftmaxFunctions\\arm_softmax_q15.c 0x00000000   Number         0  arm_softmax_q15.o ABSOLUTE
    F:\\Keil_MDK\\pack\\ARM\\CMSIS\\5.7.0\\CMSIS\\NN\\Source\\SoftmaxFunctions\\arm_softmax_q7.c 0x00000000   Number         0  arm_softmax_q7.o ABSOLUTE
    F:\\Keil_MDK\\pack\\ARM\\CMSIS\\5.7.0\\CMSIS\\NN\\Source\\SoftmaxFunctions\\arm_softmax_s8.c 0x00000000   Number         0  arm_softmax_s8.o ABSOLUTE
    F:\\Keil_MDK\\pack\\ARM\\CMSIS\\5.7.0\\CMSIS\\NN\\Source\\SoftmaxFunctions\\arm_softmax_u8.c 0x00000000   Number         0  arm_softmax_u8.o ABSOLUTE
    F:\\Keil_MDK\\pack\\ARM\\CMSIS\\5.7.0\\CMSIS\\NN\\Source\\SoftmaxFunctions\\arm_softmax_with_batch_q7.c 0x00000000   Number         0  arm_softmax_with_batch_q7.o ABSOLUTE
    cdcmple.s                                0x00000000   Number         0  cdcmple.o ABSOLUTE
    cdrcmple.s                               0x00000000   Number         0  cdrcmple.o ABSOLUTE
    cfcmple.s                                0x00000000   Number         0  cfcmple.o ABSOLUTE
    cfrcmple.s                               0x00000000   Number         0  cfrcmple.o ABSOLUTE
    dc.s                                     0x00000000   Number         0  dc.o ABSOLUTE
    driver\\bitband.c                        0x00000000   Number         0  bitband.o ABSOLUTE
    driver\\dsp_test.c                       0x00000000   Number         0  dsp_test.o ABSOLUTE
    driver\\led.c                            0x00000000   Number         0  led.o ABSOLUTE
    driver\\print.c                          0x00000000   Number         0  print.o ABSOLUTE
    driver\\systick.c                        0x00000000   Number         0  systick.o ABSOLUTE
    driver\bitband.c                         0x00000000   Number         0  bitband.o ABSOLUTE
    driver\dsp_test.c                        0x00000000   Number         0  dsp_test.o ABSOLUTE
    driver\led.c                             0x00000000   Number         0  led.o ABSOLUTE
    driver\print.c                           0x00000000   Number         0  print.o ABSOLUTE
    driver\systick.c                         0x00000000   Number         0  systick.o ABSOLUTE
    handlers.s                               0x00000000   Number         0  handlers.o ABSOLUTE
    init.s                                   0x00000000   Number         0  init.o ABSOLUTE
    std\Source\gd32f10x_adc.c                0x00000000   Number         0  gd32f10x_adc.o ABSOLUTE
    std\Source\gd32f10x_bkp.c                0x00000000   Number         0  gd32f10x_bkp.o ABSOLUTE
    std\Source\gd32f10x_can.c                0x00000000   Number         0  gd32f10x_can.o ABSOLUTE
    std\Source\gd32f10x_crc.c                0x00000000   Number         0  gd32f10x_crc.o ABSOLUTE
    std\Source\gd32f10x_dac.c                0x00000000   Number         0  gd32f10x_dac.o ABSOLUTE
    std\Source\gd32f10x_dbg.c                0x00000000   Number         0  gd32f10x_dbg.o ABSOLUTE
    std\Source\gd32f10x_dma.c                0x00000000   Number         0  gd32f10x_dma.o ABSOLUTE
    std\Source\gd32f10x_enet.c               0x00000000   Number         0  gd32f10x_enet.o ABSOLUTE
    std\Source\gd32f10x_exmc.c               0x00000000   Number         0  gd32f10x_exmc.o ABSOLUTE
    std\Source\gd32f10x_exti.c               0x00000000   Number         0  gd32f10x_exti.o ABSOLUTE
    std\Source\gd32f10x_fmc.c                0x00000000   Number         0  gd32f10x_fmc.o ABSOLUTE
    std\Source\gd32f10x_fwdgt.c              0x00000000   Number         0  gd32f10x_fwdgt.o ABSOLUTE
    std\Source\gd32f10x_gpio.c               0x00000000   Number         0  gd32f10x_gpio.o ABSOLUTE
    std\Source\gd32f10x_i2c.c                0x00000000   Number         0  gd32f10x_i2c.o ABSOLUTE
    std\Source\gd32f10x_misc.c               0x00000000   Number         0  gd32f10x_misc.o ABSOLUTE
    std\Source\gd32f10x_pmu.c                0x00000000   Number         0  gd32f10x_pmu.o ABSOLUTE
    std\Source\gd32f10x_rcu.c                0x00000000   Number         0  gd32f10x_rcu.o ABSOLUTE
    std\Source\gd32f10x_rtc.c                0x00000000   Number         0  gd32f10x_rtc.o ABSOLUTE
    std\Source\gd32f10x_sdio.c               0x00000000   Number         0  gd32f10x_sdio.o ABSOLUTE
    std\Source\gd32f10x_spi.c                0x00000000   Number         0  gd32f10x_spi.o ABSOLUTE
    std\Source\gd32f10x_timer.c              0x00000000   Number         0  gd32f10x_timer.o ABSOLUTE
    std\Source\gd32f10x_usart.c              0x00000000   Number         0  gd32f10x_usart.o ABSOLUTE
    std\Source\gd32f10x_wwdgt.c              0x00000000   Number         0  gd32f10x_wwdgt.o ABSOLUTE
    std\\Source\\gd32f10x_adc.c              0x00000000   Number         0  gd32f10x_adc.o ABSOLUTE
    std\\Source\\gd32f10x_bkp.c              0x00000000   Number         0  gd32f10x_bkp.o ABSOLUTE
    std\\Source\\gd32f10x_can.c              0x00000000   Number         0  gd32f10x_can.o ABSOLUTE
    std\\Source\\gd32f10x_crc.c              0x00000000   Number         0  gd32f10x_crc.o ABSOLUTE
    std\\Source\\gd32f10x_dac.c              0x00000000   Number         0  gd32f10x_dac.o ABSOLUTE
    std\\Source\\gd32f10x_dbg.c              0x00000000   Number         0  gd32f10x_dbg.o ABSOLUTE
    std\\Source\\gd32f10x_dma.c              0x00000000   Number         0  gd32f10x_dma.o ABSOLUTE
    std\\Source\\gd32f10x_enet.c             0x00000000   Number         0  gd32f10x_enet.o ABSOLUTE
    std\\Source\\gd32f10x_exmc.c             0x00000000   Number         0  gd32f10x_exmc.o ABSOLUTE
    std\\Source\\gd32f10x_exti.c             0x00000000   Number         0  gd32f10x_exti.o ABSOLUTE
    std\\Source\\gd32f10x_fmc.c              0x00000000   Number         0  gd32f10x_fmc.o ABSOLUTE
    std\\Source\\gd32f10x_fwdgt.c            0x00000000   Number         0  gd32f10x_fwdgt.o ABSOLUTE
    std\\Source\\gd32f10x_gpio.c             0x00000000   Number         0  gd32f10x_gpio.o ABSOLUTE
    std\\Source\\gd32f10x_i2c.c              0x00000000   Number         0  gd32f10x_i2c.o ABSOLUTE
    std\\Source\\gd32f10x_misc.c             0x00000000   Number         0  gd32f10x_misc.o ABSOLUTE
    std\\Source\\gd32f10x_pmu.c              0x00000000   Number         0  gd32f10x_pmu.o ABSOLUTE
    std\\Source\\gd32f10x_rcu.c              0x00000000   Number         0  gd32f10x_rcu.o ABSOLUTE
    std\\Source\\gd32f10x_rtc.c              0x00000000   Number         0  gd32f10x_rtc.o ABSOLUTE
    std\\Source\\gd32f10x_sdio.c             0x00000000   Number         0  gd32f10x_sdio.o ABSOLUTE
    std\\Source\\gd32f10x_spi.c              0x00000000   Number         0  gd32f10x_spi.o ABSOLUTE
    std\\Source\\gd32f10x_timer.c            0x00000000   Number         0  gd32f10x_timer.o ABSOLUTE
    std\\Source\\gd32f10x_usart.c            0x00000000   Number         0  gd32f10x_usart.o ABSOLUTE
    std\\Source\\gd32f10x_wwdgt.c            0x00000000   Number         0  gd32f10x_wwdgt.o ABSOLUTE
    user\\gd32f10x_it.c                      0x00000000   Number         0  gd32f10x_it.o ABSOLUTE
    user\\main.c                             0x00000000   Number         0  main.o ABSOLUTE
    user\\system_gd32f10x.c                  0x00000000   Number         0  system_gd32f10x.o ABSOLUTE
    user\gd32f10x_it.c                       0x00000000   Number         0  gd32f10x_it.o ABSOLUTE
    user\main.c                              0x00000000   Number         0  main.o ABSOLUTE
    user\startup_gd32f10x_xd.s               0x00000000   Number         0  startup_gd32f10x_xd.o ABSOLUTE
    user\system_gd32f10x.c                   0x00000000   Number         0  system_gd32f10x.o ABSOLUTE
    RESET                                    0x08000000   Section      304  startup_gd32f10x_xd.o(RESET)
    .ARM.Collect$$$$00000000                 0x08000130   Section        0  entry.o(.ARM.Collect$$$$00000000)
    .ARM.Collect$$$$00000001                 0x08000130   Section        4  entry2.o(.ARM.Collect$$$$00000001)
    .ARM.Collect$$$$00000004                 0x08000134   Section        4  entry5.o(.ARM.Collect$$$$00000004)
    .ARM.Collect$$$$00000008                 0x08000138   Section        0  entry7b.o(.ARM.Collect$$$$00000008)
    .ARM.Collect$$$$0000000A                 0x08000138   Section        0  entry8b.o(.ARM.Collect$$$$0000000A)
    .ARM.Collect$$$$0000000B                 0x08000138   Section        8  entry9a.o(.ARM.Collect$$$$0000000B)
    .ARM.Collect$$$$0000000D                 0x08000140   Section        0  entry10a.o(.ARM.Collect$$$$0000000D)
    .ARM.Collect$$$$0000000F                 0x08000140   Section        0  entry11a.o(.ARM.Collect$$$$0000000F)
    .ARM.Collect$$$$00002712                 0x08000140   Section        4  entry2.o(.ARM.Collect$$$$00002712)
    __lit__00000000                          0x08000140   Data           4  entry2.o(.ARM.Collect$$$$00002712)
    .text                                    0x08000144   Section       36  startup_gd32f10x_xd.o(.text)
    .text                                    0x08000168   Section        0  uidiv.o(.text)
    .text                                    0x08000194   Section       36  init.o(.text)
    i.BusFault_Handler                       0x080001b8   Section        0  gd32f10x_it.o(i.BusFault_Handler)
    i.DebugMon_Handler                       0x080001bc   Section        0  gd32f10x_it.o(i.DebugMon_Handler)
    i.HardFault_Handler                      0x080001be   Section        0  gd32f10x_it.o(i.HardFault_Handler)
    i.MemManage_Handler                      0x080001c2   Section        0  gd32f10x_it.o(i.MemManage_Handler)
    i.NMI_Handler                            0x080001c6   Section        0  gd32f10x_it.o(i.NMI_Handler)
    i.PendSV_Handler                         0x080001c8   Section        0  gd32f10x_it.o(i.PendSV_Handler)
    i.SVC_Handler                            0x080001ca   Section        0  gd32f10x_it.o(i.SVC_Handler)
    i.SystemInit                             0x080001cc   Section        0  system_gd32f10x.o(i.SystemInit)
    i.UsageFault_Handler                     0x080002a0   Section        0  gd32f10x_it.o(i.UsageFault_Handler)
    i.__0printf$1                            0x080002a4   Section        0  printf1.o(i.__0printf$1)
    i.__scatterload_copy                     0x080002c4   Section       14  handlers.o(i.__scatterload_copy)
    i.__scatterload_null                     0x080002d2   Section        2  handlers.o(i.__scatterload_null)
    i.__scatterload_zeroinit                 0x080002d4   Section       14  handlers.o(i.__scatterload_zeroinit)
    i._printf_core                           0x080002e4   Section        0  printf1.o(i._printf_core)
    _printf_core                             0x080002e5   Thumb Code   336  printf1.o(i._printf_core)
    i.arm_copy_q15                           0x08000438   Section        0  supportfunctions.o(i.arm_copy_q15)
    i.arm_fully_connected_mat_q7_vec_q15_opt 0x0800044e   Section        0  arm_fully_connected_mat_q7_vec_q15_opt.o(i.arm_fully_connected_mat_q7_vec_q15_opt)
    i.arm_mult_q15                           0x0800067a   Section        0  basicmathfunctions.o(i.arm_mult_q15)
    i.arm_nn_activations_direct_q15          0x0800069c   Section        0  arm_nn_activations_q15.o(i.arm_nn_activations_direct_q15)
    i.arm_offset_q15                         0x08000750   Section        0  basicmathfunctions.o(i.arm_offset_q15)
    i.arm_sub_q15                            0x0800076c   Section        0  basicmathfunctions.o(i.arm_sub_q15)
    i.delay_ms                               0x0800078c   Section        0  systick.o(i.delay_ms)
    i.delay_nms                              0x080007b8   Section        0  systick.o(i.delay_nms)
    delay_nms                                0x080007b9   Thumb Code    74  systick.o(i.delay_nms)
    i.dsp_test                               0x08000808   Section        0  dsp_test.o(i.dsp_test)
    i.fputc                                  0x0800091c   Section        0  print.o(i.fputc)
    i.get_mem_infor                          0x08000940   Section        0  bitband.o(i.get_mem_infor)
    i.get_uid                                0x08000954   Section        0  bitband.o(i.get_uid)
    i.gpio_init                              0x08000970   Section        0  gd32f10x_gpio.o(i.gpio_init)
    i.gru_example                            0x08000a1c   Section        0  dsp_test.o(i.gru_example)
    i.led_init                               0x08000b14   Section        0  led.o(i.led_init)
    i.led_off                                0x08000b7c   Section        0  led.o(i.led_off)
    i.led_on                                 0x08000ba0   Section        0  led.o(i.led_on)
    i.main                                   0x08000bc4   Section        0  main.o(i.main)
    i.nvic_vector_table_set                  0x08000c7c   Section        0  gd32f10x_misc.o(i.nvic_vector_table_set)
    i.print_config                           0x08000c94   Section        0  print.o(i.print_config)
    i.rcu_clock_freq_get                     0x08000d14   Section        0  gd32f10x_rcu.o(i.rcu_clock_freq_get)
    i.rcu_periph_clock_enable                0x08000e38   Section        0  gd32f10x_rcu.o(i.rcu_periph_clock_enable)
    i.system_clock_96m_hxtal                 0x08000e58   Section        0  system_gd32f10x.o(i.system_clock_96m_hxtal)
    system_clock_96m_hxtal                   0x08000e59   Thumb Code   180  system_gd32f10x.o(i.system_clock_96m_hxtal)
    i.system_clock_config                    0x08000f14   Section        0  system_gd32f10x.o(i.system_clock_config)
    system_clock_config                      0x08000f15   Thumb Code     8  system_gd32f10x.o(i.system_clock_config)
    i.systick_clksource_set                  0x08000f1c   Section        0  gd32f10x_misc.o(i.systick_clksource_set)
    i.systick_set                            0x08000f44   Section        0  systick.o(i.systick_set)
    i.usart_baudrate_set                     0x08000f68   Section        0  gd32f10x_usart.o(i.usart_baudrate_set)
    i.usart_data_transmit                    0x08000ff8   Section        0  gd32f10x_usart.o(i.usart_data_transmit)
    i.usart_enable                           0x08001000   Section        0  gd32f10x_usart.o(i.usart_enable)
    i.usart_flag_get                         0x0800100a   Section        0  gd32f10x_usart.o(i.usart_flag_get)
    i.usart_hardware_flow_cts_config         0x08001028   Section        0  gd32f10x_usart.o(i.usart_hardware_flow_cts_config)
    i.usart_hardware_flow_rts_config         0x08001038   Section        0  gd32f10x_usart.o(i.usart_hardware_flow_rts_config)
    i.usart_parity_config                    0x08001048   Section        0  gd32f10x_usart.o(i.usart_parity_config)
    i.usart_receive_config                   0x08001058   Section        0  gd32f10x_usart.o(i.usart_receive_config)
    i.usart_stop_bit_set                     0x08001068   Section        0  gd32f10x_usart.o(i.usart_stop_bit_set)
    i.usart_transmit_config                  0x08001078   Section        0  gd32f10x_usart.o(i.usart_transmit_config)
    i.usart_word_length_set                  0x08001088   Section        0  gd32f10x_usart.o(i.usart_word_length_set)
    .constdata                               0x08001098   Section     2816  arm_nntables.o(.constdata)
    .data                                    0x20000000   Section        4  main.o(.data)
    .data                                    0x20000004   Section        8  systick.o(.data)
    .data                                    0x2000000c   Section     6432  dsp_test.o(.data)
    update_gate_weights                      0x2000000c   Data        2048  dsp_test.o(.data)
    reset_gate_weights                       0x2000080c   Data        2048  dsp_test.o(.data)
    hidden_state_weights                     0x2000100c   Data        2048  dsp_test.o(.data)
    update_gate_bias                         0x2000180c   Data          32  dsp_test.o(.data)
    reset_gate_bias                          0x2000182c   Data          32  dsp_test.o(.data)
    hidden_state_bias                        0x2000184c   Data          32  dsp_test.o(.data)
    test_input1                              0x2000186c   Data          64  dsp_test.o(.data)
    test_input2                              0x200018ac   Data          64  dsp_test.o(.data)
    test_history                             0x200018ec   Data          64  dsp_test.o(.data)
    .data                                    0x2000192c   Section        4  stdout.o(.data)
    .bss                                     0x20001930   Section       12  main.o(.bss)
    .bss                                     0x2000193c   Section      320  dsp_test.o(.bss)
    STACK                                    0x20001a80   Section     1024  startup_gd32f10x_xd.o(STACK)

    Global Symbols

    Symbol Name                              Value     Ov Type        Size  Object(Section)

    BuildAttributes$$THM_ISAv4$P$D$K$B$S$PE$A:L22UL41UL21$X:L11$S22US41US21$IEEE1$IW$USESV6$~STKCKD$USESV7$~SHL$OTIME$ROPI$IEEEX$EBA8$MICROLIB$REQ8$PRES8$EABIv2 0x00000000   Number         0  anon$$obj.o ABSOLUTE
    __ARM_use_no_argv                        0x00000000   Number         0  main.o ABSOLUTE
    _printf_a                                0x00000000   Number         0  stubs.o ABSOLUTE
    _printf_c                                0x00000000   Number         0  stubs.o ABSOLUTE
    _printf_charcount                        0x00000000   Number         0  stubs.o ABSOLUTE
    _printf_d                                0x00000000   Number         0  stubs.o ABSOLUTE
    _printf_e                                0x00000000   Number         0  stubs.o ABSOLUTE
    _printf_f                                0x00000000   Number         0  stubs.o ABSOLUTE
    _printf_flags                            0x00000000   Number         0  stubs.o ABSOLUTE
    _printf_fp_dec                           0x00000000   Number         0  stubs.o ABSOLUTE
    _printf_fp_hex                           0x00000000   Number         0  stubs.o ABSOLUTE
    _printf_g                                0x00000000   Number         0  stubs.o ABSOLUTE
    _printf_i                                0x00000000   Number         0  stubs.o ABSOLUTE
    _printf_int_dec                          0x00000000   Number         0  stubs.o ABSOLUTE
    _printf_l                                0x00000000   Number         0  stubs.o ABSOLUTE
    _printf_lc                               0x00000000   Number         0  stubs.o ABSOLUTE
    _printf_ll                               0x00000000   Number         0  stubs.o ABSOLUTE
    _printf_lld                              0x00000000   Number         0  stubs.o ABSOLUTE
    _printf_lli                              0x00000000   Number         0  stubs.o ABSOLUTE
    _printf_llo                              0x00000000   Number         0  stubs.o ABSOLUTE
    _printf_llu                              0x00000000   Number         0  stubs.o ABSOLUTE
    _printf_llx                              0x00000000   Number         0  stubs.o ABSOLUTE
    _printf_longlong_dec                     0x00000000   Number         0  stubs.o ABSOLUTE
    _printf_longlong_hex                     0x00000000   Number         0  stubs.o ABSOLUTE
    _printf_longlong_oct                     0x00000000   Number         0  stubs.o ABSOLUTE
    _printf_ls                               0x00000000   Number         0  stubs.o ABSOLUTE
    _printf_mbtowc                           0x00000000   Number         0  stubs.o ABSOLUTE
    _printf_n                                0x00000000   Number         0  stubs.o ABSOLUTE
    _printf_o                                0x00000000   Number         0  stubs.o ABSOLUTE
    _printf_p                                0x00000000   Number         0  stubs.o ABSOLUTE
    _printf_percent                          0x00000000   Number         0  stubs.o ABSOLUTE
    _printf_pre_padding                      0x00000000   Number         0  stubs.o ABSOLUTE
    _printf_return_value                     0x00000000   Number         0  stubs.o ABSOLUTE
    _printf_s                                0x00000000   Number         0  stubs.o ABSOLUTE
    _printf_sizespec                         0x00000000   Number         0  stubs.o ABSOLUTE
    _printf_str                              0x00000000   Number         0  stubs.o ABSOLUTE
    _printf_truncate_signed                  0x00000000   Number         0  stubs.o ABSOLUTE
    _printf_truncate_unsigned                0x00000000   Number         0  stubs.o ABSOLUTE
    _printf_u                                0x00000000   Number         0  stubs.o ABSOLUTE
    _printf_wc                               0x00000000   Number         0  stubs.o ABSOLUTE
    _printf_wctomb                           0x00000000   Number         0  stubs.o ABSOLUTE
    _printf_widthprec                        0x00000000   Number         0  stubs.o ABSOLUTE
    _printf_x                                0x00000000   Number         0  stubs.o ABSOLUTE
    __cpp_initialize__aeabi_                  - Undefined Weak Reference
    __cxa_finalize                            - Undefined Weak Reference
    __decompress                              - Undefined Weak Reference
    _clock_init                               - Undefined Weak Reference
    _microlib_exit                            - Undefined Weak Reference
    __Vectors_Size                           0x00000130   Number         0  startup_gd32f10x_xd.o ABSOLUTE
    __Vectors                                0x08000000   Data           4  startup_gd32f10x_xd.o(RESET)
    __Vectors_End                            0x08000130   Data           0  startup_gd32f10x_xd.o(RESET)
    __main                                   0x08000131   Thumb Code     0  entry.o(.ARM.Collect$$$$00000000)
    _main_stk                                0x08000131   Thumb Code     0  entry2.o(.ARM.Collect$$$$00000001)
    _main_scatterload                        0x08000135   Thumb Code     0  entry5.o(.ARM.Collect$$$$00000004)
    __main_after_scatterload                 0x08000139   Thumb Code     0  entry5.o(.ARM.Collect$$$$00000004)
    _main_clock                              0x08000139   Thumb Code     0  entry7b.o(.ARM.Collect$$$$00000008)
    _main_cpp_init                           0x08000139   Thumb Code     0  entry8b.o(.ARM.Collect$$$$0000000A)
    _main_init                               0x08000139   Thumb Code     0  entry9a.o(.ARM.Collect$$$$0000000B)
    __rt_final_cpp                           0x08000141   Thumb Code     0  entry10a.o(.ARM.Collect$$$$0000000D)
    __rt_final_exit                          0x08000141   Thumb Code     0  entry11a.o(.ARM.Collect$$$$0000000F)
    Reset_Handler                            0x08000145   Thumb Code     8  startup_gd32f10x_xd.o(.text)
    SysTick_Handler                          0x0800015d   Thumb Code     2  startup_gd32f10x_xd.o(.text)
    ADC0_1_IRQHandler                        0x0800015f   Thumb Code     0  startup_gd32f10x_xd.o(.text)
    ADC2_IRQHandler                          0x0800015f   Thumb Code     0  startup_gd32f10x_xd.o(.text)
    CAN0_EWMC_IRQHandler                     0x0800015f   Thumb Code     0  startup_gd32f10x_xd.o(.text)
    CAN0_RX1_IRQHandler                      0x0800015f   Thumb Code     0  startup_gd32f10x_xd.o(.text)
    DMA0_Channel0_IRQHandler                 0x0800015f   Thumb Code     0  startup_gd32f10x_xd.o(.text)
    DMA0_Channel1_IRQHandler                 0x0800015f   Thumb Code     0  startup_gd32f10x_xd.o(.text)
    DMA0_Channel2_IRQHandler                 0x0800015f   Thumb Code     0  startup_gd32f10x_xd.o(.text)
    DMA0_Channel3_IRQHandler                 0x0800015f   Thumb Code     0  startup_gd32f10x_xd.o(.text)
    DMA0_Channel4_IRQHandler                 0x0800015f   Thumb Code     0  startup_gd32f10x_xd.o(.text)
    DMA0_Channel5_IRQHandler                 0x0800015f   Thumb Code     0  startup_gd32f10x_xd.o(.text)
    DMA0_Channel6_IRQHandler                 0x0800015f   Thumb Code     0  startup_gd32f10x_xd.o(.text)
    DMA1_Channel0_IRQHandler                 0x0800015f   Thumb Code     0  startup_gd32f10x_xd.o(.text)
    DMA1_Channel1_IRQHandler                 0x0800015f   Thumb Code     0  startup_gd32f10x_xd.o(.text)
    DMA1_Channel2_IRQHandler                 0x0800015f   Thumb Code     0  startup_gd32f10x_xd.o(.text)
    DMA1_Channel3_4_IRQHandler               0x0800015f   Thumb Code     0  startup_gd32f10x_xd.o(.text)
    EXMC_IRQHandler                          0x0800015f   Thumb Code     0  startup_gd32f10x_xd.o(.text)
    EXTI0_IRQHandler                         0x0800015f   Thumb Code     0  startup_gd32f10x_xd.o(.text)
    EXTI10_15_IRQHandler                     0x0800015f   Thumb Code     0  startup_gd32f10x_xd.o(.text)
    EXTI1_IRQHandler                         0x0800015f   Thumb Code     0  startup_gd32f10x_xd.o(.text)
    EXTI2_IRQHandler                         0x0800015f   Thumb Code     0  startup_gd32f10x_xd.o(.text)
    EXTI3_IRQHandler                         0x0800015f   Thumb Code     0  startup_gd32f10x_xd.o(.text)
    EXTI4_IRQHandler                         0x0800015f   Thumb Code     0  startup_gd32f10x_xd.o(.text)
    EXTI5_9_IRQHandler                       0x0800015f   Thumb Code     0  startup_gd32f10x_xd.o(.text)
    FMC_IRQHandler                           0x0800015f   Thumb Code     0  startup_gd32f10x_xd.o(.text)
    I2C0_ER_IRQHandler                       0x0800015f   Thumb Code     0  startup_gd32f10x_xd.o(.text)
    I2C0_EV_IRQHandler                       0x0800015f   Thumb Code     0  startup_gd32f10x_xd.o(.text)
    I2C1_ER_IRQHandler                       0x0800015f   Thumb Code     0  startup_gd32f10x_xd.o(.text)
    I2C1_EV_IRQHandler                       0x0800015f   Thumb Code     0  startup_gd32f10x_xd.o(.text)
    LVD_IRQHandler                           0x0800015f   Thumb Code     0  startup_gd32f10x_xd.o(.text)
    RCU_IRQHandler                           0x0800015f   Thumb Code     0  startup_gd32f10x_xd.o(.text)
    RTC_Alarm_IRQHandler                     0x0800015f   Thumb Code     0  startup_gd32f10x_xd.o(.text)
    RTC_IRQHandler                           0x0800015f   Thumb Code     0  startup_gd32f10x_xd.o(.text)
    SDIO_IRQHandler                          0x0800015f   Thumb Code     0  startup_gd32f10x_xd.o(.text)
    SPI0_IRQHandler                          0x0800015f   Thumb Code     0  startup_gd32f10x_xd.o(.text)
    SPI1_IRQHandler                          0x0800015f   Thumb Code     0  startup_gd32f10x_xd.o(.text)
    SPI2_IRQHandler                          0x0800015f   Thumb Code     0  startup_gd32f10x_xd.o(.text)
    TAMPER_IRQHandler                        0x0800015f   Thumb Code     0  startup_gd32f10x_xd.o(.text)
    TIMER0_BRK_TIMER8_IRQHandler             0x0800015f   Thumb Code     0  startup_gd32f10x_xd.o(.text)
    TIMER0_Channel_IRQHandler                0x0800015f   Thumb Code     0  startup_gd32f10x_xd.o(.text)
    TIMER0_TRG_CMT_TIMER10_IRQHandler        0x0800015f   Thumb Code     0  startup_gd32f10x_xd.o(.text)
    TIMER0_UP_TIMER9_IRQHandler              0x0800015f   Thumb Code     0  startup_gd32f10x_xd.o(.text)
    TIMER1_IRQHandler                        0x0800015f   Thumb Code     0  startup_gd32f10x_xd.o(.text)
    TIMER2_IRQHandler                        0x0800015f   Thumb Code     0  startup_gd32f10x_xd.o(.text)
    TIMER3_IRQHandler                        0x0800015f   Thumb Code     0  startup_gd32f10x_xd.o(.text)
    TIMER4_IRQHandler                        0x0800015f   Thumb Code     0  startup_gd32f10x_xd.o(.text)
    TIMER5_IRQHandler                        0x0800015f   Thumb Code     0  startup_gd32f10x_xd.o(.text)
    TIMER6_IRQHandler                        0x0800015f   Thumb Code     0  startup_gd32f10x_xd.o(.text)
    TIMER7_BRK_TIMER11_IRQHandler            0x0800015f   Thumb Code     0  startup_gd32f10x_xd.o(.text)
    TIMER7_Channel_IRQHandler                0x0800015f   Thumb Code     0  startup_gd32f10x_xd.o(.text)
    TIMER7_TRG_CMT_TIMER13_IRQHandler        0x0800015f   Thumb Code     0  startup_gd32f10x_xd.o(.text)
    TIMER7_UP_TIMER12_IRQHandler             0x0800015f   Thumb Code     0  startup_gd32f10x_xd.o(.text)
    UART3_IRQHandler                         0x0800015f   Thumb Code     0  startup_gd32f10x_xd.o(.text)
    UART4_IRQHandler                         0x0800015f   Thumb Code     0  startup_gd32f10x_xd.o(.text)
    USART0_IRQHandler                        0x0800015f   Thumb Code     0  startup_gd32f10x_xd.o(.text)
    USART1_IRQHandler                        0x0800015f   Thumb Code     0  startup_gd32f10x_xd.o(.text)
    USART2_IRQHandler                        0x0800015f   Thumb Code     0  startup_gd32f10x_xd.o(.text)
    USBD_HP_CAN0_TX_IRQHandler               0x0800015f   Thumb Code     0  startup_gd32f10x_xd.o(.text)
    USBD_LP_CAN0_RX0_IRQHandler              0x0800015f   Thumb Code     0  startup_gd32f10x_xd.o(.text)
    USBD_WKUP_IRQHandler                     0x0800015f   Thumb Code     0  startup_gd32f10x_xd.o(.text)
    WWDGT_IRQHandler                         0x0800015f   Thumb Code     0  startup_gd32f10x_xd.o(.text)
    __aeabi_uidiv                            0x08000169   Thumb Code     0  uidiv.o(.text)
    __aeabi_uidivmod                         0x08000169   Thumb Code    44  uidiv.o(.text)
    __scatterload                            0x08000195   Thumb Code    28  init.o(.text)
    __scatterload_rt2                        0x08000195   Thumb Code     0  init.o(.text)
    BusFault_Handler                         0x080001b9   Thumb Code     4  gd32f10x_it.o(i.BusFault_Handler)
    DebugMon_Handler                         0x080001bd   Thumb Code     2  gd32f10x_it.o(i.DebugMon_Handler)
    HardFault_Handler                        0x080001bf   Thumb Code     4  gd32f10x_it.o(i.HardFault_Handler)
    MemManage_Handler                        0x080001c3   Thumb Code     4  gd32f10x_it.o(i.MemManage_Handler)
    NMI_Handler                              0x080001c7   Thumb Code     2  gd32f10x_it.o(i.NMI_Handler)
    PendSV_Handler                           0x080001c9   Thumb Code     2  gd32f10x_it.o(i.PendSV_Handler)
    SVC_Handler                              0x080001cb   Thumb Code     2  gd32f10x_it.o(i.SVC_Handler)
    SystemInit                               0x080001cd   Thumb Code   196  system_gd32f10x.o(i.SystemInit)
    UsageFault_Handler                       0x080002a1   Thumb Code     4  gd32f10x_it.o(i.UsageFault_Handler)
    __0printf$1                              0x080002a5   Thumb Code    22  printf1.o(i.__0printf$1)
    __1printf$1                              0x080002a5   Thumb Code     0  printf1.o(i.__0printf$1)
    __2printf                                0x080002a5   Thumb Code     0  printf1.o(i.__0printf$1)
    __scatterload_copy                       0x080002c5   Thumb Code    14  handlers.o(i.__scatterload_copy)
    __scatterload_null                       0x080002d3   Thumb Code     2  handlers.o(i.__scatterload_null)
    __scatterload_zeroinit                   0x080002d5   Thumb Code    14  handlers.o(i.__scatterload_zeroinit)
    arm_copy_q15                             0x08000439   Thumb Code    22  supportfunctions.o(i.arm_copy_q15)
    arm_fully_connected_mat_q7_vec_q15_opt   0x0800044f   Thumb Code   556  arm_fully_connected_mat_q7_vec_q15_opt.o(i.arm_fully_connected_mat_q7_vec_q15_opt)
    arm_mult_q15                             0x0800067b   Thumb Code    32  basicmathfunctions.o(i.arm_mult_q15)
    arm_nn_activations_direct_q15            0x0800069d   Thumb Code   170  arm_nn_activations_q15.o(i.arm_nn_activations_direct_q15)
    arm_offset_q15                           0x08000751   Thumb Code    28  basicmathfunctions.o(i.arm_offset_q15)
    arm_sub_q15                              0x0800076d   Thumb Code    32  basicmathfunctions.o(i.arm_sub_q15)
    delay_ms                                 0x0800078d   Thumb Code    42  systick.o(i.delay_ms)
    dsp_test                                 0x08000809   Thumb Code   140  dsp_test.o(i.dsp_test)
    fputc                                    0x0800091d   Thumb Code    32  print.o(i.fputc)
    get_mem_infor                            0x08000941   Thumb Code    14  bitband.o(i.get_mem_infor)
    get_uid                                  0x08000955   Thumb Code    24  bitband.o(i.get_uid)
    gpio_init                                0x08000971   Thumb Code   172  gd32f10x_gpio.o(i.gpio_init)
    gru_example                              0x08000a1d   Thumb Code   242  dsp_test.o(i.gru_example)
    led_init                                 0x08000b15   Thumb Code    92  led.o(i.led_init)
    led_off                                  0x08000b7d   Thumb Code    26  led.o(i.led_off)
    led_on                                   0x08000ba1   Thumb Code    26  led.o(i.led_on)
    main                                     0x08000bc5   Thumb Code    92  main.o(i.main)
    nvic_vector_table_set                    0x08000c7d   Thumb Code    16  gd32f10x_misc.o(i.nvic_vector_table_set)
    print_config                             0x08000c95   Thumb Code   120  print.o(i.print_config)
    rcu_clock_freq_get                       0x08000d15   Thumb Code   264  gd32f10x_rcu.o(i.rcu_clock_freq_get)
    rcu_periph_clock_enable                  0x08000e39   Thumb Code    28  gd32f10x_rcu.o(i.rcu_periph_clock_enable)
    systick_clksource_set                    0x08000f1d   Thumb Code    40  gd32f10x_misc.o(i.systick_clksource_set)
    systick_set                              0x08000f45   Thumb Code    26  systick.o(i.systick_set)
    usart_baudrate_set                       0x08000f69   Thumb Code   136  gd32f10x_usart.o(i.usart_baudrate_set)
    usart_data_transmit                      0x08000ff9   Thumb Code     8  gd32f10x_usart.o(i.usart_data_transmit)
    usart_enable                             0x08001001   Thumb Code    10  gd32f10x_usart.o(i.usart_enable)
    usart_flag_get                           0x0800100b   Thumb Code    30  gd32f10x_usart.o(i.usart_flag_get)
    usart_hardware_flow_cts_config           0x08001029   Thumb Code    16  gd32f10x_usart.o(i.usart_hardware_flow_cts_config)
    usart_hardware_flow_rts_config           0x08001039   Thumb Code    16  gd32f10x_usart.o(i.usart_hardware_flow_rts_config)
    usart_parity_config                      0x08001049   Thumb Code    16  gd32f10x_usart.o(i.usart_parity_config)
    usart_receive_config                     0x08001059   Thumb Code    16  gd32f10x_usart.o(i.usart_receive_config)
    usart_stop_bit_set                       0x08001069   Thumb Code    16  gd32f10x_usart.o(i.usart_stop_bit_set)
    usart_transmit_config                    0x08001079   Thumb Code    16  gd32f10x_usart.o(i.usart_transmit_config)
    usart_word_length_set                    0x08001089   Thumb Code    16  gd32f10x_usart.o(i.usart_word_length_set)
    sigmoidTable_q7                          0x08001098   Data         256  arm_nntables.o(.constdata)
    sigmoidTable_q15                         0x08001198   Data         512  arm_nntables.o(.constdata)
    sigmoidLTable_q15                        0x08001398   Data         256  arm_nntables.o(.constdata)
    sigmoidHTable_q15                        0x08001498   Data         384  arm_nntables.o(.constdata)
    tanhTable_q7                             0x08001618   Data         256  arm_nntables.o(.constdata)
    tanhTable_q15                            0x08001718   Data         512  arm_nntables.o(.constdata)
    tanhLTable_q15                           0x08001918   Data         256  arm_nntables.o(.constdata)
    tanhHTable_q15                           0x08001a18   Data         384  arm_nntables.o(.constdata)
    Region$$Table$$Base                      0x08001b98   Number         0  anon$$obj.o(Region$$Table)
    Region$$Table$$Limit                     0x08001bb8   Number         0  anon$$obj.o(Region$$Table)
    mem_infor                                0x20000000   Data           4  main.o(.data)
    fac_us                                   0x20000004   Data           1  systick.o(.data)
    fac_ms                                   0x20000008   Data           4  systick.o(.data)
    __stdout                                 0x2000192c   Data           4  stdout.o(.data)
    uid                                      0x20001930   Data          12  main.o(.bss)
    scratch_buffer                           0x2000193c   Data         320  dsp_test.o(.bss)
    __initial_sp                             0x20001e80   Data           0  startup_gd32f10x_xd.o(STACK)



==============================================================================

Memory Map of the image

  Image Entry point : 0x08000131

  Load Region LR_IROM1 (Base: 0x08000000, Size: 0x000034e8, Max: 0x00300000, ABSOLUTE)

    Execution Region ER_IROM1 (Exec base: 0x08000000, Load base: 0x08000000, Size: 0x00001bb8, Max: 0x00300000, ABSOLUTE)

    Exec Addr    Load Addr    Size         Type   Attr      Idx    E Section Name        Object

    0x08000000   0x08000000   0x00000130   Data   RO          296    RESET               startup_gd32f10x_xd.o
    0x08000130   0x08000130   0x00000000   Code   RO         9564  * .ARM.Collect$$$$00000000  mc_w.l(entry.o)
    0x08000130   0x08000130   0x00000004   Code   RO         9909    .ARM.Collect$$$$00000001  mc_w.l(entry2.o)
    0x08000134   0x08000134   0x00000004   Code   RO         9912    .ARM.Collect$$$$00000004  mc_w.l(entry5.o)
    0x08000138   0x08000138   0x00000000   Code   RO         9914    .ARM.Collect$$$$00000008  mc_w.l(entry7b.o)
    0x08000138   0x08000138   0x00000000   Code   RO         9916    .ARM.Collect$$$$0000000A  mc_w.l(entry8b.o)
    0x08000138   0x08000138   0x00000008   Code   RO         9917    .ARM.Collect$$$$0000000B  mc_w.l(entry9a.o)
    0x08000140   0x08000140   0x00000000   Code   RO         9919    .ARM.Collect$$$$0000000D  mc_w.l(entry10a.o)
    0x08000140   0x08000140   0x00000000   Code   RO         9921    .ARM.Collect$$$$0000000F  mc_w.l(entry11a.o)
    0x08000140   0x08000140   0x00000004   Code   RO         9910    .ARM.Collect$$$$00002712  mc_w.l(entry2.o)
    0x08000144   0x08000144   0x00000024   Code   RO          297    .text               startup_gd32f10x_xd.o
    0x08000168   0x08000168   0x0000002c   Code   RO         9924    .text               mc_w.l(uidiv.o)
    0x08000194   0x08000194   0x00000024   Code   RO         9958    .text               mc_w.l(init.o)
    0x080001b8   0x080001b8   0x00000004   Code   RO            4    i.BusFault_Handler  gd32f10x_it.o
    0x080001bc   0x080001bc   0x00000002   Code   RO            5    i.DebugMon_Handler  gd32f10x_it.o
    0x080001be   0x080001be   0x00000004   Code   RO            6    i.HardFault_Handler  gd32f10x_it.o
    0x080001c2   0x080001c2   0x00000004   Code   RO            7    i.MemManage_Handler  gd32f10x_it.o
    0x080001c6   0x080001c6   0x00000002   Code   RO            8    i.NMI_Handler       gd32f10x_it.o
    0x080001c8   0x080001c8   0x00000002   Code   RO            9    i.PendSV_Handler    gd32f10x_it.o
    0x080001ca   0x080001ca   0x00000002   Code   RO           10    i.SVC_Handler       gd32f10x_it.o
    0x080001cc   0x080001cc   0x000000d4   Code   RO          257    i.SystemInit        system_gd32f10x.o
    0x080002a0   0x080002a0   0x00000004   Code   RO           11    i.UsageFault_Handler  gd32f10x_it.o
    0x080002a4   0x080002a4   0x00000020   Code   RO         9626    i.__0printf$1       mc_w.l(printf1.o)
    0x080002c4   0x080002c4   0x0000000e   Code   RO         9962    i.__scatterload_copy  mc_w.l(handlers.o)
    0x080002d2   0x080002d2   0x00000002   Code   RO         9963    i.__scatterload_null  mc_w.l(handlers.o)
    0x080002d4   0x080002d4   0x0000000e   Code   RO         9964    i.__scatterload_zeroinit  mc_w.l(handlers.o)
    0x080002e2   0x080002e2   0x00000002   PAD
    0x080002e4   0x080002e4   0x00000154   Code   RO         9633    i._printf_core      mc_w.l(printf1.o)
    0x08000438   0x08000438   0x00000016   Code   RO         6857    i.arm_copy_q15      supportfunctions.o
    0x0800044e   0x0800044e   0x0000022c   Code   RO         8773    i.arm_fully_connected_mat_q7_vec_q15_opt  arm_fully_connected_mat_q7_vec_q15_opt.o
    0x0800067a   0x0800067a   0x00000020   Code   RO         4187    i.arm_mult_q15      basicmathfunctions.o
    0x0800069a   0x0800069a   0x00000002   PAD
    0x0800069c   0x0800069c   0x000000b4   Code   RO         7866    i.arm_nn_activations_direct_q15  arm_nn_activations_q15.o
    0x08000750   0x08000750   0x0000001c   Code   RO         4198    i.arm_offset_q15    basicmathfunctions.o
    0x0800076c   0x0800076c   0x00000020   Code   RO         4212    i.arm_sub_q15       basicmathfunctions.o
    0x0800078c   0x0800078c   0x0000002a   Code   RO         4006    i.delay_ms          systick.o
    0x080007b6   0x080007b6   0x00000002   PAD
    0x080007b8   0x080007b8   0x00000050   Code   RO         4007    i.delay_nms         systick.o
    0x08000808   0x08000808   0x00000114   Code   RO         4104    i.dsp_test          dsp_test.o
    0x0800091c   0x0800091c   0x00000024   Code   RO         4071    i.fputc             print.o
    0x08000940   0x08000940   0x00000014   Code   RO         3976    i.get_mem_infor     bitband.o
    0x08000954   0x08000954   0x0000001c   Code   RO         3977    i.get_uid           bitband.o
    0x08000970   0x08000970   0x000000ac   Code   RO         1866    i.gpio_init         gd32f10x_gpio.o
    0x08000a1c   0x08000a1c   0x000000f8   Code   RO         4105    i.gru_example       dsp_test.o
    0x08000b14   0x08000b14   0x00000068   Code   RO         3934    i.led_init          led.o
    0x08000b7c   0x08000b7c   0x00000024   Code   RO         3935    i.led_off           led.o
    0x08000ba0   0x08000ba0   0x00000024   Code   RO         3936    i.led_on            led.o
    0x08000bc4   0x08000bc4   0x000000b8   Code   RO          174    i.main              main.o
    0x08000c7c   0x08000c7c   0x00000018   Code   RO         2184    i.nvic_vector_table_set  gd32f10x_misc.o
    0x08000c94   0x08000c94   0x00000080   Code   RO         4072    i.print_config      print.o
    0x08000d14   0x08000d14   0x00000124   Code   RO         2340    i.rcu_clock_freq_get  gd32f10x_rcu.o
    0x08000e38   0x08000e38   0x00000020   Code   RO         2357    i.rcu_periph_clock_enable  gd32f10x_rcu.o
    0x08000e58   0x08000e58   0x000000bc   Code   RO          258    i.system_clock_96m_hxtal  system_gd32f10x.o
    0x08000f14   0x08000f14   0x00000008   Code   RO          259    i.system_clock_config  system_gd32f10x.o
    0x08000f1c   0x08000f1c   0x00000028   Code   RO         2187    i.systick_clksource_set  gd32f10x_misc.o
    0x08000f44   0x08000f44   0x00000024   Code   RO         4012    i.systick_set       systick.o
    0x08000f68   0x08000f68   0x00000090   Code   RO         3599    i.usart_baudrate_set  gd32f10x_usart.o
    0x08000ff8   0x08000ff8   0x00000008   Code   RO         3601    i.usart_data_transmit  gd32f10x_usart.o
    0x08001000   0x08001000   0x0000000a   Code   RO         3606    i.usart_enable      gd32f10x_usart.o
    0x0800100a   0x0800100a   0x0000001e   Code   RO         3608    i.usart_flag_get    gd32f10x_usart.o
    0x08001028   0x08001028   0x00000010   Code   RO         3612    i.usart_hardware_flow_cts_config  gd32f10x_usart.o
    0x08001038   0x08001038   0x00000010   Code   RO         3613    i.usart_hardware_flow_rts_config  gd32f10x_usart.o
    0x08001048   0x08001048   0x00000010   Code   RO         3627    i.usart_parity_config  gd32f10x_usart.o
    0x08001058   0x08001058   0x00000010   Code   RO         3629    i.usart_receive_config  gd32f10x_usart.o
    0x08001068   0x08001068   0x00000010   Code   RO         3635    i.usart_stop_bit_set  gd32f10x_usart.o
    0x08001078   0x08001078   0x00000010   Code   RO         3639    i.usart_transmit_config  gd32f10x_usart.o
    0x08001088   0x08001088   0x00000010   Code   RO         3640    i.usart_word_length_set  gd32f10x_usart.o
    0x08001098   0x08001098   0x00000b00   Data   RO         9129    .constdata          arm_nntables.o
    0x08001b98   0x08001b98   0x00000020   Data   RO         9960    Region$$Table       anon$$obj.o


    Execution Region RW_IRAM1 (Exec base: 0x20000000, Load base: 0x08001bb8, Size: 0x00001e80, Max: 0x00018000, ABSOLUTE)

    Exec Addr    Load Addr    Size         Type   Attr      Idx    E Section Name        Object

    0x20000000   0x08001bb8   0x00000004   Data   RW          176    .data               main.o
    0x20000004   0x08001bbc   0x00000008   Data   RW         4013    .data               systick.o
    0x2000000c   0x08001bc4   0x00001920   Data   RW         4107    .data               dsp_test.o
    0x2000192c   0x080034e4   0x00000004   Data   RW         9923    .data               mc_w.l(stdout.o)
    0x20001930        -       0x0000000c   Zero   RW          175    .bss                main.o
    0x2000193c        -       0x00000140   Zero   RW         4106    .bss                dsp_test.o
    0x20001a7c   0x080034e8   0x00000004   PAD
    0x20001a80        -       0x00000400   Zero   RW          294    STACK               startup_gd32f10x_xd.o


==============================================================================

Image component sizes


      Code (inc. data)   RO Data    RW Data    ZI Data      Debug   Object Name

       556          0          0          0          0       2617   arm_fully_connected_mat_q7_vec_q15_opt.o
       180         10          0          0          0       1156   arm_nn_activations_q15.o
         0          0       2816          0          0       1060   arm_nntables.o
        92          0          0          0          0      20198   basicmathfunctions.o
        48         10          0          0          0       1254   bitband.o
         0          0          0          0          0      18100   controllerfunctions.o
       524        142          0       6432        320       5586   dsp_test.o
       172          0          0          0          0        816   gd32f10x_gpio.o
        24          0          0          0          0      27124   gd32f10x_it.o
        64          8          0          0          0       1056   gd32f10x_misc.o
       324         32          0          0          0       1615   gd32f10x_rcu.o
       304          8          0          0          0       6327   gd32f10x_usart.o
       176         32          0          0          0       3114   led.o
       184         92          0          4         12      26491   main.o
       164         12          0          0          0       1083   print.o
        36          8        304          0       1024        792   startup_gd32f10x_xd.o
        22          0          0          0          0        647   supportfunctions.o
       408         24          0          0          0       2233   system_gd32f10x.o
       158         16          0          8          0       1829   systick.o

    ----------------------------------------------------------------------
      3440        394       3152       6444       1360     123098   Object Totals
         0          0         32          0          0          0   (incl. Generated)
         4          0          0          0          4          0   (incl. Padding)

    ----------------------------------------------------------------------

      Code (inc. data)   RO Data    RW Data    ZI Data      Debug   Library Member Name

         0          0          0          0          0          0   entry.o
         0          0          0          0          0          0   entry10a.o
         0          0          0          0          0          0   entry11a.o
         8          4          0          0          0          0   entry2.o
         4          0          0          0          0          0   entry5.o
         0          0          0          0          0          0   entry7b.o
         0          0          0          0          0          0   entry8b.o
         8          4          0          0          0          0   entry9a.o
        30          0          0          0          0          0   handlers.o
        36          8          0          0          0         68   init.o
       372         14          0          0          0        184   printf1.o
         0          0          0          4          0          0   stdout.o
        44          0          0          0          0         80   uidiv.o

    ----------------------------------------------------------------------
       504         30          0          4          0        332   Library Totals
         2          0          0          0          0          0   (incl. Padding)

    ----------------------------------------------------------------------

      Code (inc. data)   RO Data    RW Data    ZI Data      Debug   Library Name

       502         30          0          4          0        332   mc_w.l

    ----------------------------------------------------------------------
       504         30          0          4          0        332   Library Totals

    ----------------------------------------------------------------------

==============================================================================


      Code (inc. data)   RO Data    RW Data    ZI Data      Debug   

      3944        424       3152       6448       1360     121294   Grand Totals
      3944        424       3152       6448       1360     121294   ELF Image Totals
      3944        424       3152       6448          0          0   ROM Totals

==============================================================================

    Total RO  Size (Code + RO Data)                 7096 (   6.93kB)
    Total RW  Size (RW Data + ZI Data)              7808 (   7.63kB)
    Total ROM Size (Code + RO Data + RW Data)      13544 (  13.23kB)

==============================================================================

